{
  "contractName": "assign",
  "abi": [
    {
      "constant": false,
      "inputs": [
        {
          "name": "rewarder",
          "type": "address"
        },
        {
          "name": "amount",
          "type": "uint256"
        }
      ],
      "name": "reward",
      "outputs": [],
      "payable": false,
      "stateMutability": "nonpayable",
      "type": "function"
    },
    {
      "constant": false,
      "inputs": [
        {
          "name": "punisher",
          "type": "address"
        },
        {
          "name": "amount",
          "type": "uint256"
        }
      ],
      "name": "punish",
      "outputs": [],
      "payable": false,
      "stateMutability": "nonpayable",
      "type": "function"
    },
    {
      "anonymous": false,
      "inputs": [
        {
          "indexed": true,
          "name": "from",
          "type": "address"
        },
        {
          "indexed": true,
          "name": "to",
          "type": "address"
        },
        {
          "indexed": false,
          "name": "value",
          "type": "uint256"
        }
      ],
      "name": "Transfer",
      "type": "event"
    },
    {
      "anonymous": false,
      "inputs": [
        {
          "indexed": true,
          "name": "to",
          "type": "address"
        },
        {
          "indexed": false,
          "name": "value",
          "type": "uint256"
        }
      ],
      "name": "Reward",
      "type": "event"
    },
    {
      "anonymous": false,
      "inputs": [
        {
          "indexed": true,
          "name": "to",
          "type": "address"
        },
        {
          "indexed": false,
          "name": "value",
          "type": "uint256"
        }
      ],
      "name": "Punishment",
      "type": "event"
    }
  ],
  "bytecode": "0x60806040526040805190810160405280600981526020017f546f6b656e20312e3000000000000000000000000000000000000000000000008152506002908051906020019061004f92919061018b565b506006600e556305f5e100600660003373ffffffffffffffffffffffffffffffffffffffff1673ffffffffffffffffffffffffffffffffffffffff168152602001908152602001600020819055506040805190810160405280600981526020017f746f6b656e4e616d650000000000000000000000000000000000000000000000815250600390805190602001906100e892919061018b565b506040805190810160405280600b81526020017f746f6b656e53796d626f6c0000000000000000000000000000000000000000008152506004908051906020019061013492919061018b565b5033600560006101000a81548173ffffffffffffffffffffffffffffffffffffffff021916908373ffffffffffffffffffffffffffffffffffffffff16021790555060016000819055506028600181905550610230565b828054600181600116156101000203166002900490600052602060002090601f016020900481019282601f106101cc57805160ff19168380011785556101fa565b828001600101855582156101fa579182015b828111156101f95782518255916020019190600101906101de565b5b509050610207919061020b565b5090565b61022d91905b80821115610229576000816000905550600101610211565b5090565b90565b6102b78061023f6000396000f30060806040526004361061004c576000357c0100000000000000000000000000000000000000000000000000000000900463ffffffff16806321670f2214610051578063d8e423b21461009e575b600080fd5b34801561005d57600080fd5b5061009c600480360381019080803573ffffffffffffffffffffffffffffffffffffffff169060200190929190803590602001909291905050506100eb565b005b3480156100aa57600080fd5b506100e9600480360381019080803573ffffffffffffffffffffffffffffffffffffffff169060200190929190803590602001909291905050506101bb565b005b80600660008473ffffffffffffffffffffffffffffffffffffffff1673ffffffffffffffffffffffffffffffffffffffff168152602001908152602001600020600082825401925050819055508060066000600560009054906101000a900473ffffffffffffffffffffffffffffffffffffffff1673ffffffffffffffffffffffffffffffffffffffff1673ffffffffffffffffffffffffffffffffffffffff16815260200190815260200160002060008282540392505081905550806001600082825401925050819055505050565b80600660008473ffffffffffffffffffffffffffffffffffffffff1673ffffffffffffffffffffffffffffffffffffffff168152602001908152602001600020600082825403925050819055508060066000600560009054906101000a900473ffffffffffffffffffffffffffffffffffffffff1673ffffffffffffffffffffffffffffffffffffffff1673ffffffffffffffffffffffffffffffffffffffff168152602001908152602001600020600082825401925050819055508060016000828254039250508190555050505600a165627a7a72305820863a293494da0760e59c14081836227e06b5a7243bf0c9f77bcf8f155162b87f0029",
  "source": "pragma solidity ^0.4.24;\n\nimport \"./queue.sol\";\nimport \"./login.sol\";\n\ncontract assign is login,queue{\n    struct arbitration {\n        mapping(address => bool) flag;                //flag为仲裁师对某订单的评估状态，当评估后，该状态flag=1，不允许再次评估\n        uint tick;\n        uint sum;\n    }\n\n    mapping(address => uint)   values;                //评估师报价\n    mapping(uint => address)   appeals;               //评估单编号对应的评估师地址\n    mapping(address => Queue)  loads;                 //评估师负载\n    mapping(address => uint[]) record;                //记录每个用户下评估单编号\n    mapping(address => uint[]) appeallist;            //记录每个仲裁者名下的仲裁单\n\n    mapping(uint => arbitration) status;              //记录仲裁者对某个评估单的评估结果\n    \n    \n    /**\n     * guobin\n     * 录入评估师报价\n    */\n    function _Enter_quote(uint value) internal {          \n        values[msg.sender] = value;\n    }\n    \n    /**\n     * guobin\n     * 计算评估师竞争力\n    */\n    function calc(address worker,uint state) internal returns (uint competitve) {       \n        loads[worker].data.length = 200; //对队列初始化,实际长度由extent=6控制\n        \n        uint Load = length(loads[worker]);\n        if(Load >= 5) {\n            return 0;\n        }\n        if(state == 0) {  //创建评估单分配时计算公式\n            //真实公式:competitve = check_balance(worker) * (2 - values[worker]/10) * (1 - length(loads[worker])/5);\n            competitve = check_balance(worker) * (values[worker]) * (5 - Load);\n        }\n        else {            //评估单被退回时计算公式\n            competitve = check_balance(worker) * (5 - Load);\n        }\n    }\n    \n    /**\n     * guobin\n     * 统计并筛选出最优评估师\n    */\n    function statistic(uint state) internal returns (address choose) {             \n        uint256 max = 0;\n        uint256 current = 0;\n        \n        for(uint i = 0;i < workers.length;i++) {\n            current = calc(workers[i],state);\n            if(current > max) {\n                max = current;\n                choose = workers[i];\n            }\n        }\n    }\n    \n    /**\n     * guobin\n     * 将当前订单编号分配给最优评估师\n    */\n    function distribution(uint number,address choose) internal returns (uint) { \n        push(loads[choose], number);\n        appeals[number] = choose;\n        uint[] tmp = record[choose];\n        for(uint i = 0;i < tmp.length;i++) {\n            if(tmp[i] == number) return 0;\n        }\n        record[choose].push(number);                        //将当前评估单编号(由js传递)存入对应评估师地址\n    }\n\n    /**\n     * guobin\n     * 返回当前评估师的所有评估单编号\n    */\n    function _backvalnumber() view internal returns (uint[]) {\n        return record[msg.sender];\n    }\n\n    /**\n     * guobin\n     * 评估师对订单进行评估\n    */\n    function _evaluate(uint index,string value) internal {\n        order.store_msg[index].Evaluation = value;\n        order.store_sta[index].Evaluation_status = \"1\";         //将评估单状态改为已评估\n        finishwork(index,0);\n    }\n\n    /**\n     * guobin\n     * 将申诉订单编号分配给仲裁者\n    */\n    function _appealdistribution(uint number,address appeal1,address appeal2,address appeal3,address appeal4,address appeal5) internal { \n        push(loads[appeal1], number);\n        push(loads[appeal2], number);\n        push(loads[appeal3], number);\n        push(loads[appeal4], number);\n        push(loads[appeal5], number);\n        \n        appeallist[appeal1].push(number);                    //将当前评估单编号(由js传递)存入对应仲裁者地址\n        appeallist[appeal2].push(number);                    //将当前评估单编号(由js传递)存入对应仲裁者地址\n        appeallist[appeal3].push(number);                    //将当前评估单编号(由js传递)存入对应仲裁者地址\n        appeallist[appeal4].push(number);                    //将当前评估单编号(由js传递)存入对应仲裁者地址\n        appeallist[appeal5].push(number);                    //将当前评估单编号(由js传递)存入对应仲裁者地址\n        order.store_sta[number].Evaluation_status = \"2\";     //将评估单状态改为已申诉\n    }\n\n    /**\n     * guobin\n     * 返回当前仲裁者的所有评估单编号\n    */\n    function _backappnumber() view internal returns (uint[]) {\n        return appeallist[msg.sender];\n    }\n\n    /**\n     * guobin\n     * 仲裁者对订单进行评估\n    */\n    function _appealevaluate(uint index,uint value) internal returns (uint) {\n        uint tmpvalue = 0;\n        uint tmpsum = 0;\n        \n        if(status[index].flag[msg.sender]) {                        //当同一仲裁师再次进入同一评估单，不再允许进行评估\n            return 2;\n        }\n\n        status[index].tick += 1;\n        status[index].sum += value;\n        pop(loads[msg.sender]);\n        status[index].flag[msg.sender] = true;\n\n        if(status[index].tick == 5) {\n            order.store_sta[index].Evaluation_status = \"3\";         //将评估单状态改为已仲裁\n            tmpvalue = stringToUint(order.store_msg[index].Evaluation) * 5;\n            tmpsum = status[index].sum;\n            if(tmpsum > tmpvalue * 95) {\n                if(tmpsum < tmpvalue * 105) {\n                    return 1;\n                }\n                else {\n                    return 0;\n                }\n            }\n            else {\n                return 0;\n            }\n        }\n    }\n\n    /**\n     * guobin\n     * 仲裁订单进度查询\n    */\n    function _appealeschedule(uint index) internal view returns (uint) {\n        return status[index].tick;\n    }\n\n    /**\n     * guobin\n     * 完成当前订单\n    */\n    function finishwork(uint index,uint parameter) internal returns (uint) {\n        if(parameter == 1) {                                           //当评估单被两次退回后，自动变为已关闭状态\n            order.store_sta[index].Evaluation_status = \"4\";         //将评估单状态改为已关闭\n        }\n        return pop(loads[msg.sender]);\n        \n    }\n    \n    /**\n     * guobin\n     * 找出执行申诉订单的工人\n    */\n    function workfor(uint number) view internal returns (address) {\n        return appeals[number];\n    }\n\n}\n",
  "sourcePath": "/blockpro/dev-complete/contracts/assign.sol",
  "compiler": {
    "name": "solc",
    "version": "0.4.24+commit.e67f0147.Emscripten.clang"
  },
  "schemaVersion": "2.0.1",
  "updatedAt": "2019-03-22T07:01:28.826Z"
}