{
  "contractName": "demo",
  "abi": [
    {
      "anonymous": false,
      "inputs": [
        {
          "indexed": true,
          "name": "from",
          "type": "address"
        },
        {
          "indexed": true,
          "name": "to",
          "type": "address"
        },
        {
          "indexed": false,
          "name": "value",
          "type": "uint256"
        }
      ],
      "name": "Transfer",
      "type": "event"
    },
    {
      "anonymous": false,
      "inputs": [
        {
          "indexed": true,
          "name": "to",
          "type": "address"
        },
        {
          "indexed": false,
          "name": "value",
          "type": "uint256"
        }
      ],
      "name": "Reward",
      "type": "event"
    },
    {
      "anonymous": false,
      "inputs": [
        {
          "indexed": true,
          "name": "to",
          "type": "address"
        },
        {
          "indexed": false,
          "name": "value",
          "type": "uint256"
        }
      ],
      "name": "Punishment",
      "type": "event"
    },
    {
      "constant": false,
      "inputs": [
        {
          "name": "Frame_number",
          "type": "string"
        },
        {
          "name": "Number_plate",
          "type": "string"
        },
        {
          "name": "Vehicle_type",
          "type": "string"
        },
        {
          "name": "Brand_number",
          "type": "string"
        },
        {
          "name": "car_displacement",
          "type": "string"
        },
        {
          "name": "approval_passengers",
          "type": "string"
        },
        {
          "name": "Engine_number",
          "type": "string"
        },
        {
          "name": "Manufacture_date",
          "type": "string"
        },
        {
          "name": "Evaluation",
          "type": "uint256"
        },
        {
          "name": "Timestammp",
          "type": "string"
        },
        {
          "name": "evaluation_index",
          "type": "uint256"
        }
      ],
      "name": "addvaluation",
      "outputs": [],
      "payable": false,
      "stateMutability": "nonpayable",
      "type": "function"
    },
    {
      "constant": false,
      "inputs": [
        {
          "name": "photo1",
          "type": "string"
        },
        {
          "name": "photo2",
          "type": "string"
        },
        {
          "name": "photo3",
          "type": "string"
        },
        {
          "name": "photo4",
          "type": "string"
        },
        {
          "name": "photo5",
          "type": "string"
        },
        {
          "name": "photo6",
          "type": "string"
        },
        {
          "name": "photo7",
          "type": "string"
        },
        {
          "name": "photo8",
          "type": "string"
        },
        {
          "name": "evaluation_index",
          "type": "uint256"
        }
      ],
      "name": "addphoto",
      "outputs": [],
      "payable": true,
      "stateMutability": "payable",
      "type": "function"
    },
    {
      "constant": true,
      "inputs": [],
      "name": "backordernumber",
      "outputs": [
        {
          "name": "",
          "type": "uint256"
        }
      ],
      "payable": false,
      "stateMutability": "view",
      "type": "function"
    },
    {
      "constant": false,
      "inputs": [
        {
          "name": "evaluation_index",
          "type": "uint256"
        }
      ],
      "name": "backwork",
      "outputs": [],
      "payable": false,
      "stateMutability": "nonpayable",
      "type": "function"
    },
    {
      "constant": false,
      "inputs": [
        {
          "name": "index",
          "type": "uint256"
        },
        {
          "name": "value",
          "type": "uint256"
        }
      ],
      "name": "evaluate",
      "outputs": [],
      "payable": false,
      "stateMutability": "nonpayable",
      "type": "function"
    },
    {
      "constant": true,
      "inputs": [],
      "name": "backvaluation",
      "outputs": [
        {
          "name": "",
          "type": "uint256[]"
        }
      ],
      "payable": false,
      "stateMutability": "view",
      "type": "function"
    },
    {
      "constant": false,
      "inputs": [
        {
          "name": "index",
          "type": "uint256"
        },
        {
          "name": "condition",
          "type": "string"
        }
      ],
      "name": "setstate",
      "outputs": [],
      "payable": false,
      "stateMutability": "nonpayable",
      "type": "function"
    },
    {
      "constant": true,
      "inputs": [
        {
          "name": "index",
          "type": "uint256"
        }
      ],
      "name": "displayvalue",
      "outputs": [
        {
          "name": "",
          "type": "uint256"
        }
      ],
      "payable": false,
      "stateMutability": "view",
      "type": "function"
    },
    {
      "constant": true,
      "inputs": [
        {
          "name": "index",
          "type": "uint256"
        },
        {
          "name": "num",
          "type": "uint256"
        }
      ],
      "name": "displayinfo",
      "outputs": [
        {
          "name": "",
          "type": "string"
        }
      ],
      "payable": false,
      "stateMutability": "view",
      "type": "function"
    },
    {
      "constant": false,
      "inputs": [
        {
          "name": "amount",
          "type": "uint256"
        }
      ],
      "name": "buy",
      "outputs": [],
      "payable": true,
      "stateMutability": "payable",
      "type": "function"
    },
    {
      "constant": false,
      "inputs": [
        {
          "name": "amount",
          "type": "uint256"
        },
        {
          "name": "eth_amount",
          "type": "uint256"
        }
      ],
      "name": "sell",
      "outputs": [],
      "payable": true,
      "stateMutability": "payable",
      "type": "function"
    },
    {
      "constant": true,
      "inputs": [],
      "name": "displaybalance",
      "outputs": [
        {
          "name": "",
          "type": "uint256"
        }
      ],
      "payable": false,
      "stateMutability": "view",
      "type": "function"
    },
    {
      "constant": true,
      "inputs": [],
      "name": "displayethbalance",
      "outputs": [
        {
          "name": "",
          "type": "uint256"
        }
      ],
      "payable": false,
      "stateMutability": "view",
      "type": "function"
    },
    {
      "constant": true,
      "inputs": [],
      "name": "displayaccount",
      "outputs": [
        {
          "name": "",
          "type": "uint256"
        }
      ],
      "payable": false,
      "stateMutability": "view",
      "type": "function"
    },
    {
      "constant": true,
      "inputs": [
        {
          "name": "send",
          "type": "address"
        }
      ],
      "name": "displayaccountforarbitrage",
      "outputs": [
        {
          "name": "",
          "type": "uint256"
        }
      ],
      "payable": false,
      "stateMutability": "view",
      "type": "function"
    },
    {
      "constant": true,
      "inputs": [],
      "name": "displaytoken",
      "outputs": [
        {
          "name": "",
          "type": "uint256"
        }
      ],
      "payable": false,
      "stateMutability": "view",
      "type": "function"
    },
    {
      "constant": true,
      "inputs": [],
      "name": "distranumber",
      "outputs": [
        {
          "name": "",
          "type": "uint256"
        }
      ],
      "payable": false,
      "stateMutability": "view",
      "type": "function"
    },
    {
      "constant": false,
      "inputs": [
        {
          "name": "amount",
          "type": "uint256"
        },
        {
          "name": "scale",
          "type": "uint256"
        }
      ],
      "name": "registertest",
      "outputs": [],
      "payable": true,
      "stateMutability": "payable",
      "type": "function"
    },
    {
      "constant": false,
      "inputs": [
        {
          "name": "value",
          "type": "uint256"
        }
      ],
      "name": "Enter_quote",
      "outputs": [],
      "payable": false,
      "stateMutability": "nonpayable",
      "type": "function"
    },
    {
      "constant": true,
      "inputs": [],
      "name": "checkuser",
      "outputs": [
        {
          "name": "",
          "type": "uint256"
        }
      ],
      "payable": false,
      "stateMutability": "view",
      "type": "function"
    },
    {
      "constant": false,
      "inputs": [],
      "name": "unregister",
      "outputs": [],
      "payable": false,
      "stateMutability": "nonpayable",
      "type": "function"
    },
    {
      "constant": true,
      "inputs": [],
      "name": "backofwork",
      "outputs": [
        {
          "name": "",
          "type": "address[]"
        }
      ],
      "payable": false,
      "stateMutability": "view",
      "type": "function"
    },
    {
      "constant": true,
      "inputs": [],
      "name": "backvalnumber",
      "outputs": [
        {
          "name": "",
          "type": "uint256[]"
        }
      ],
      "payable": false,
      "stateMutability": "view",
      "type": "function"
    },
    {
      "constant": true,
      "inputs": [],
      "name": "backappnumber",
      "outputs": [
        {
          "name": "",
          "type": "uint256[]"
        }
      ],
      "payable": false,
      "stateMutability": "view",
      "type": "function"
    },
    {
      "constant": false,
      "inputs": [
        {
          "name": "number",
          "type": "uint256"
        },
        {
          "name": "appeal1",
          "type": "address"
        },
        {
          "name": "appeal2",
          "type": "address"
        },
        {
          "name": "appeal3",
          "type": "address"
        },
        {
          "name": "appeal4",
          "type": "address"
        },
        {
          "name": "appeal5",
          "type": "address"
        }
      ],
      "name": "appealdistribution",
      "outputs": [],
      "payable": false,
      "stateMutability": "nonpayable",
      "type": "function"
    },
    {
      "constant": true,
      "inputs": [
        {
          "name": "index",
          "type": "uint256"
        }
      ],
      "name": "appealesituation",
      "outputs": [
        {
          "name": "",
          "type": "uint256"
        }
      ],
      "payable": false,
      "stateMutability": "view",
      "type": "function"
    },
    {
      "constant": false,
      "inputs": [
        {
          "name": "index",
          "type": "uint256"
        },
        {
          "name": "value",
          "type": "uint256"
        }
      ],
      "name": "appealevaluate",
      "outputs": [],
      "payable": false,
      "stateMutability": "nonpayable",
      "type": "function"
    },
    {
      "constant": true,
      "inputs": [
        {
          "name": "index",
          "type": "uint256"
        }
      ],
      "name": "appealeschedule",
      "outputs": [
        {
          "name": "",
          "type": "uint256"
        }
      ],
      "payable": false,
      "stateMutability": "view",
      "type": "function"
    },
    {
      "constant": true,
      "inputs": [],
      "name": "backLeaderboard",
      "outputs": [
        {
          "name": "",
          "type": "uint256[]"
        }
      ],
      "payable": false,
      "stateMutability": "view",
      "type": "function"
    }
  ],
  "bytecode": "0x60806040526040805190810160405280600981526020017f546f6b656e20312e3000000000000000000000000000000000000000000000008152506002908051906020019062000051929190620001bf565b506001600b556065600f556305f5e100600660003373ffffffffffffffffffffffffffffffffffffffff1673ffffffffffffffffffffffffffffffffffffffff168152602001908152602001600020819055506040805190810160405280600981526020017f746f6b656e4e616d65000000000000000000000000000000000000000000000081525060039080519060200190620000f1929190620001bf565b506040805190810160405280600b81526020017f746f6b656e53796d626f6c000000000000000000000000000000000000000000815250600490805190602001906200013f929190620001bf565b5033600560006101000a81548173ffffffffffffffffffffffffffffffffffffffff021916908373ffffffffffffffffffffffffffffffffffffffff16021790555060016000806101000a81548160ff021916908360ff160217905550602860018190555060c8601660000181620001b8919062000246565b506200029d565b828054600181600116156101000203166002900490600052602060002090601f016020900481019282601f106200020257805160ff191683800117855562000233565b8280016001018555821562000233579182015b828111156200023257825182559160200191906001019062000215565b5b50905062000242919062000275565b5090565b81548183558181111562000270578183600052602060002091820191016200026f919062000275565b5b505050565b6200029a91905b80821115620002965760008160009055506001016200027c565b5090565b90565b61411180620002ad6000396000f300608060405260043610610175576000357c0100000000000000000000000000000000000000000000000000000000900463ffffffff16806309afc9101461017a5780631304b5b7146101a557806315596e5b14610272578063216573a0146102de57806330e83d2d14610309578063369236e214610334578063374d91d2146103755780634245369e146103a057806343b851a01461045057806362c61f34146104bc578063684ce2e514610528578063718d70fa146105555780638c9ab83c146105ac5780639c16a16b1461061f578063a4d2ce00146108cc578063a6033996146108f7578063b99fc10a14610963578063c5f4f12a14610bb3578063cbb4cee414610be0578063d101af1a14610c21578063d67ee2ae14610c4b578063d79875eb14610c82578063d96a094a14610cac578063dcd1501714610ccc578063e79a198f14610d0d578063f363e61314610d24578063f97445a914610d4f578063fc8ee8a914610d86578063fe83014514610df2575b600080fd5b34801561018657600080fd5b5061018f610e1d565b6040518082815260200191505060405180910390f35b3480156101b157600080fd5b5061027060048036038101908080359060200190929190803573ffffffffffffffffffffffffffffffffffffffff169060200190929190803573ffffffffffffffffffffffffffffffffffffffff169060200190929190803573ffffffffffffffffffffffffffffffffffffffff169060200190929190803573ffffffffffffffffffffffffffffffffffffffff169060200190929190803573ffffffffffffffffffffffffffffffffffffffff169060200190929190505050610e2c565b005b34801561027e57600080fd5b50610287610e42565b6040518080602001828103825283818151815260200191508051906020019060200280838360005b838110156102ca5780820151818401526020810190506102af565b505050509050019250505060405180910390f35b3480156102ea57600080fd5b506102f3610e51565b6040518082815260200191505060405180910390f35b34801561031557600080fd5b5061031e610e60565b6040518082815260200191505060405180910390f35b34801561034057600080fd5b5061035f60048036038101908080359060200190929190505050610e6f565b6040518082815260200191505060405180910390f35b34801561038157600080fd5b5061038a610e80565b6040518082815260200191505060405180910390f35b3480156103ac57600080fd5b506103d56004803603810190808035906020019092919080359060200190929190505050610e8f565b6040518080602001828103825283818151815260200191508051906020019080838360005b838110156104155780820151818401526020810190506103fa565b50505050905090810190601f1680156104425780820380516001836020036101000a031916815260200191505b509250505060405180910390f35b34801561045c57600080fd5b50610465610ea3565b6040518080602001828103825283818151815260200191508051906020019060200280838360005b838110156104a857808201518184015260208101905061048d565b505050509050019250505060405180910390f35b3480156104c857600080fd5b506104d1610eb2565b6040518080602001828103825283818151815260200191508051906020019060200280838360005b838110156105145780820151818401526020810190506104f9565b505050509050019250505060405180910390f35b34801561053457600080fd5b5061055360048036038101908080359060200190929190505050610ec1565b005b34801561056157600080fd5b50610596600480360381019080803573ffffffffffffffffffffffffffffffffffffffff169060200190929190505050610f77565b6040518082815260200191505060405180910390f35b3480156105b857600080fd5b5061061d60048036038101908080359060200190929190803590602001908201803590602001908080601f0160208091040260200160405190810160405280939291908181526020018383808284378201915050505050509192919290505050610f8b565b005b34801561062b57600080fd5b506108ca600480360381019080803590602001908201803590602001908080601f0160208091040260200160405190810160405280939291908181526020018383808284378201915050505050509192919290803590602001908201803590602001908080601f0160208091040260200160405190810160405280939291908181526020018383808284378201915050505050509192919290803590602001908201803590602001908080601f0160208091040260200160405190810160405280939291908181526020018383808284378201915050505050509192919290803590602001908201803590602001908080601f0160208091040260200160405190810160405280939291908181526020018383808284378201915050505050509192919290803590602001908201803590602001908080601f0160208091040260200160405190810160405280939291908181526020018383808284378201915050505050509192919290803590602001908201803590602001908080601f0160208091040260200160405190810160405280939291908181526020018383808284378201915050505050509192919290803590602001908201803590602001908080601f0160208091040260200160405190810160405280939291908181526020018383808284378201915050505050509192919290803590602001908201803590602001908080601f016020809104026020016040519081016040528093929190818152602001838380828437820191505050505050919291929080359060200190929190803590602001908201803590602001908080601f016020809104026020016040519081016040528093929190818152602001838380828437820191505050505050919291929080359060200190929190505050610f99565b005b3480156108d857600080fd5b506108e1610fb9565b6040518082815260200191505060405180910390f35b34801561090357600080fd5b5061090c610fc8565b6040518080602001828103825283818151815260200191508051906020019060200280838360005b8381101561094f578082015181840152602081019050610934565b505050509050019250505060405180910390f35b610bb1600480360381019080803590602001908201803590602001908080601f0160208091040260200160405190810160405280939291908181526020018383808284378201915050505050509192919290803590602001908201803590602001908080601f0160208091040260200160405190810160405280939291908181526020018383808284378201915050505050509192919290803590602001908201803590602001908080601f0160208091040260200160405190810160405280939291908181526020018383808284378201915050505050509192919290803590602001908201803590602001908080601f0160208091040260200160405190810160405280939291908181526020018383808284378201915050505050509192919290803590602001908201803590602001908080601f0160208091040260200160405190810160405280939291908181526020018383808284378201915050505050509192919290803590602001908201803590602001908080601f0160208091040260200160405190810160405280939291908181526020018383808284378201915050505050509192919290803590602001908201803590602001908080601f0160208091040260200160405190810160405280939291908181526020018383808284378201915050505050509192919290803590602001908201803590602001908080601f016020809104026020016040519081016040528093929190818152602001838380828437820191505050505050919291929080359060200190929190505050610fd7565b005b348015610bbf57600080fd5b50610bde60048036038101908080359060200190929190505050611007565b005b348015610bec57600080fd5b50610c0b60048036038101908080359060200190929190505050611013565b6040518082815260200191505060405180910390f35b610c496004803603810190808035906020019092919080359060200190929190505050611025565b005b348015610c5757600080fd5b50610c806004803603810190808035906020019092919080359060200190929190505050611043565b005b610caa6004803603810190808035906020019092919080359060200190929190505050611052565b005b610cca60048036038101908080359060200190929190505050611060565b005b348015610cd857600080fd5b50610cf76004803603810190808035906020019092919050505061106c565b6040518082815260200191505060405180910390f35b348015610d1957600080fd5b50610d2261107e565b005b348015610d3057600080fd5b50610d39611089565b6040518082815260200191505060405180910390f35b348015610d5b57600080fd5b50610d846004803603810190808035906020019092919080359060200190929190505050611098565b005b348015610d9257600080fd5b50610d9b6110a6565b6040518080602001828103825283818151815260200191508051906020019060200280838360005b83811015610dde578082015181840152602081019050610dc3565b505050509050019250505060405180910390f35b348015610dfe57600080fd5b50610e076110b5565b6040518082815260200191505060405180910390f35b6000610e276110c4565b905090565b610e3a8686868686866110ce565b505050505050565b6060610e4c6114cc565b905090565b6000610e5b61155a565b905090565b6000610e6a6115a1565b905090565b6000610e7a826115c0565b50919050565b6000610e8a611631565b905090565b6060610e9b8383611678565b905092915050565b6060610ead612425565b905090565b6060610ebc6124ba565b905090565b6001610ecc8261254f565b1415610ee257610edd81600161256c565b610f74565b610eed81600061256c565b610f0081610efb600161262b565b6126ed565b506001601a600083815260200190815260200160002060008282540192505081905550610f2c81612890565b73ffffffffffffffffffffffffffffffffffffffff166108fc60649081150290604051600060405180830381858888f19350505050158015610f72573d6000803e3d6000fd5b505b50565b6000610f848260016128d3565b9050919050565b610f9582826129a3565b5050565b610fac8b8b8b8b8b8b8b8b8b8b8b6129d5565b5050505050505050505050565b6000610fc3612c95565b905090565b6060610fd2612c9f565b905090565b610fe8898989898989898989612cfa565b610ffb81610ff6600061262b565b6126ed565b50505050505050505050565b61101081612e4d565b50565b600061101e82612e94565b9050919050565b61102d612eb4565b61103682612f61565b61103f81612e4d565b5050565b61104d82826131c5565b505050565b61105c828261352d565b5050565b61106981612f61565b50565b600061107782613768565b9050919050565b61108661378b565b50565b60006110936137d8565b905090565b6110a282826137f7565b5050565b60606110b06138f4565b905090565b60006110bf613989565b905090565b6000600b54905090565b6001601160008773ffffffffffffffffffffffffffffffffffffffff1673ffffffffffffffffffffffffffffffffffffffff168152602001908152602001600020600082825401925050819055506001601160008673ffffffffffffffffffffffffffffffffffffffff1673ffffffffffffffffffffffffffffffffffffffff168152602001908152602001600020600082825401925050819055506001601160008573ffffffffffffffffffffffffffffffffffffffff1673ffffffffffffffffffffffffffffffffffffffff168152602001908152602001600020600082825401925050819055506001601160008473ffffffffffffffffffffffffffffffffffffffff1673ffffffffffffffffffffffffffffffffffffffff168152602001908152602001600020600082825401925050819055506001601160008373ffffffffffffffffffffffffffffffffffffffff1673ffffffffffffffffffffffffffffffffffffffff16815260200190815260200160002060008282540192505081905550601360008673ffffffffffffffffffffffffffffffffffffffff1673ffffffffffffffffffffffffffffffffffffffff168152602001908152602001600020869080600181540180825580915050906001820390600052602060002001600090919290919091505550601360008573ffffffffffffffffffffffffffffffffffffffff1673ffffffffffffffffffffffffffffffffffffffff168152602001908152602001600020869080600181540180825580915050906001820390600052602060002001600090919290919091505550601360008473ffffffffffffffffffffffffffffffffffffffff1673ffffffffffffffffffffffffffffffffffffffff168152602001908152602001600020869080600181540180825580915050906001820390600052602060002001600090919290919091505550601360008373ffffffffffffffffffffffffffffffffffffffff1673ffffffffffffffffffffffffffffffffffffffff168152602001908152602001600020869080600181540180825580915050906001820390600052602060002001600090919290919091505550601360008273ffffffffffffffffffffffffffffffffffffffff1673ffffffffffffffffffffffffffffffffffffffff1681526020019081526020016000208690806001815401808255809150509060018203906000526020600020016000909192909190915055506040805190810160405280600181526020017f32000000000000000000000000000000000000000000000000000000000000008152506008600001600088815260200190815260200160002060010190805190602001906114c3929190613ee0565b50505050505050565b6060600e80548060200260200160405190810160405280929190818152602001828054801561155057602002820191906000526020600020905b8160009054906101000a900473ffffffffffffffffffffffffffffffffffffffff1673ffffffffffffffffffffffffffffffffffffffff1681526020019060010190808311611506575b5050505050905090565b6000600760003373ffffffffffffffffffffffffffffffffffffffff1673ffffffffffffffffffffffffffffffffffffffff16815260200190815260200160002054905090565b60003373ffffffffffffffffffffffffffffffffffffffff1631905090565b600060016014600084815260200190815260200160002060000160003373ffffffffffffffffffffffffffffffffffffffff1673ffffffffffffffffffffffffffffffffffffffff168152602001908152602001600020541415611627576000905061162c565b600190505b919050565b6000600660003373ffffffffffffffffffffffffffffffffffffffff1673ffffffffffffffffffffffffffffffffffffffff16815260200190815260200160002054905090565b6060600182141561173c57600860010160008481526020019081526020016000206000018054600181600116156101000203166002900480601f0160208091040260200160405190810160405280929190818152602001828054600181600116156101000203166002900480156117305780601f1061170557610100808354040283529160200191611730565b820191906000526020600020905b81548152906001019060200180831161171357829003601f168201915b5050505050905061241f565b60028214156117fe57600860010160008481526020019081526020016000206001018054600181600116156101000203166002900480601f0160208091040260200160405190810160405280929190818152602001828054600181600116156101000203166002900480156117f25780601f106117c7576101008083540402835291602001916117f2565b820191906000526020600020905b8154815290600101906020018083116117d557829003601f168201915b5050505050905061241f565b60038214156118c057600860010160008481526020019081526020016000206002018054600181600116156101000203166002900480601f0160208091040260200160405190810160405280929190818152602001828054600181600116156101000203166002900480156118b45780601f10611889576101008083540402835291602001916118b4565b820191906000526020600020905b81548152906001019060200180831161189757829003601f168201915b5050505050905061241f565b600482141561198257600860010160008481526020019081526020016000206003018054600181600116156101000203166002900480601f0160208091040260200160405190810160405280929190818152602001828054600181600116156101000203166002900480156119765780601f1061194b57610100808354040283529160200191611976565b820191906000526020600020905b81548152906001019060200180831161195957829003601f168201915b5050505050905061241f565b6005821415611a4457600860010160008481526020019081526020016000206004018054600181600116156101000203166002900480601f016020809104026020016040519081016040528092919081815260200182805460018160011615610100020316600290048015611a385780601f10611a0d57610100808354040283529160200191611a38565b820191906000526020600020905b815481529060010190602001808311611a1b57829003601f168201915b5050505050905061241f565b6006821415611b0657600860010160008481526020019081526020016000206005018054600181600116156101000203166002900480601f016020809104026020016040519081016040528092919081815260200182805460018160011615610100020316600290048015611afa5780601f10611acf57610100808354040283529160200191611afa565b820191906000526020600020905b815481529060010190602001808311611add57829003601f168201915b5050505050905061241f565b6007821415611bc857600860010160008481526020019081526020016000206006018054600181600116156101000203166002900480601f016020809104026020016040519081016040528092919081815260200182805460018160011615610100020316600290048015611bbc5780601f10611b9157610100808354040283529160200191611bbc565b820191906000526020600020905b815481529060010190602001808311611b9f57829003601f168201915b5050505050905061241f565b6008821415611c8a57600860010160008481526020019081526020016000206007018054600181600116156101000203166002900480601f016020809104026020016040519081016040528092919081815260200182805460018160011615610100020316600290048015611c7e5780601f10611c5357610100808354040283529160200191611c7e565b820191906000526020600020905b815481529060010190602001808311611c6157829003601f168201915b5050505050905061241f565b600a821415611d4c57600860010160008481526020019081526020016000206009018054600181600116156101000203166002900480601f016020809104026020016040519081016040528092919081815260200182805460018160011615610100020316600290048015611d405780601f10611d1557610100808354040283529160200191611d40565b820191906000526020600020905b815481529060010190602001808311611d2357829003601f168201915b5050505050905061241f565b600b821415611e0e57600860000160008481526020019081526020016000206001018054600181600116156101000203166002900480601f016020809104026020016040519081016040528092919081815260200182805460018160011615610100020316600290048015611e025780601f10611dd757610100808354040283529160200191611e02565b820191906000526020600020905b815481529060010190602001808311611de557829003601f168201915b5050505050905061241f565b600c821415611ed057600860020160008481526020019081526020016000206000018054600181600116156101000203166002900480601f016020809104026020016040519081016040528092919081815260200182805460018160011615610100020316600290048015611ec45780601f10611e9957610100808354040283529160200191611ec4565b820191906000526020600020905b815481529060010190602001808311611ea757829003601f168201915b5050505050905061241f565b600d821415611f9257600860020160008481526020019081526020016000206001018054600181600116156101000203166002900480601f016020809104026020016040519081016040528092919081815260200182805460018160011615610100020316600290048015611f865780601f10611f5b57610100808354040283529160200191611f86565b820191906000526020600020905b815481529060010190602001808311611f6957829003601f168201915b5050505050905061241f565b600e82141561205457600860020160008481526020019081526020016000206002018054600181600116156101000203166002900480601f0160208091040260200160405190810160405280929190818152602001828054600181600116156101000203166002900480156120485780601f1061201d57610100808354040283529160200191612048565b820191906000526020600020905b81548152906001019060200180831161202b57829003601f168201915b5050505050905061241f565b600f82141561211657600860020160008481526020019081526020016000206003018054600181600116156101000203166002900480601f01602080910402602001604051908101604052809291908181526020018280546001816001161561010002031660029004801561210a5780601f106120df5761010080835404028352916020019161210a565b820191906000526020600020905b8154815290600101906020018083116120ed57829003601f168201915b5050505050905061241f565b60108214156121d857600860020160008481526020019081526020016000206004018054600181600116156101000203166002900480601f0160208091040260200160405190810160405280929190818152602001828054600181600116156101000203166002900480156121cc5780601f106121a1576101008083540402835291602001916121cc565b820191906000526020600020905b8154815290600101906020018083116121af57829003601f168201915b5050505050905061241f565b601182141561229a57600860020160008481526020019081526020016000206005018054600181600116156101000203166002900480601f01602080910402602001604051908101604052809291908181526020018280546001816001161561010002031660029004801561228e5780601f106122635761010080835404028352916020019161228e565b820191906000526020600020905b81548152906001019060200180831161227157829003601f168201915b5050505050905061241f565b601282141561235c57600860020160008481526020019081526020016000206006018054600181600116156101000203166002900480601f0160208091040260200160405190810160405280929190818152602001828054600181600116156101000203166002900480156123505780601f1061232557610100808354040283529160200191612350565b820191906000526020600020905b81548152906001019060200180831161233357829003601f168201915b5050505050905061241f565b601382141561241e57600860020160008481526020019081526020016000206007018054600181600116156101000203166002900480601f0160208091040260200160405190810160405280929190818152602001828054600181600116156101000203166002900480156124125780601f106123e757610100808354040283529160200191612412565b820191906000526020600020905b8154815290600101906020018083116123f557829003601f168201915b5050505050905061241f565b5b92915050565b6060601360003373ffffffffffffffffffffffffffffffffffffffff1673ffffffffffffffffffffffffffffffffffffffff1681526020019081526020016000208054806020026020016040519081016040528092919081815260200182805480156124b057602002820191906000526020600020905b81548152602001906001019080831161249c575b5050505050905090565b6060601260003373ffffffffffffffffffffffffffffffffffffffff1673ffffffffffffffffffffffffffffffffffffffff16815260200190815260200160002080548060200260200160405190810160405280929190818152602001828054801561254557602002820191906000526020600020905b815481526020019060010190808311612531575b5050505050905090565b6000601a6000838152602001908152602001600020549050919050565b60018114156125d9576040805190810160405280600181526020017f34000000000000000000000000000000000000000000000000000000000000008152506008600001600084815260200190815260200160002060010190805190602001906125d7929190613ee0565b505b6001601160003373ffffffffffffffffffffffffffffffffffffffff1673ffffffffffffffffffffffffffffffffffffffff168152602001908152602001600020600082825403925050819055505050565b6000806000806000925060009150600090505b600e805490508110156126e55761268e600e8281548110151561265d57fe5b9060005260206000200160009054906101000a900473ffffffffffffffffffffffffffffffffffffffff16866128d3565b9150828211156126d857819250600e818154811015156126aa57fe5b9060005260206000200160009054906101000a900473ffffffffffffffffffffffffffffffffffffffff1693505b808060010191505061263e565b505050919050565b6000606060006001601160008673ffffffffffffffffffffffffffffffffffffffff1673ffffffffffffffffffffffffffffffffffffffff1681526020019081526020016000206000828254019250508190555061274b85856139d0565b601260008573ffffffffffffffffffffffffffffffffffffffff1673ffffffffffffffffffffffffffffffffffffffff1681526020019081526020016000208054806020026020016040519081016040528092919081815260200182805480156127d457602002820191906000526020600020905b8154815260200190600101908083116127c0575b50505050509150600090505b815181101561281e578482828151811015156127f857fe5b9060200190602002015114156128115760009250612888565b80806001019150506127e0565b601260008573ffffffffffffffffffffffffffffffffffffffff1673ffffffffffffffffffffffffffffffffffffffff1681526020019081526020016000208590806001815401808255809150509060018203906000526020600020016000909192909190915055505b505092915050565b60006008600001600083815260200190815260200160002060030160009054906101000a900473ffffffffffffffffffffffffffffffffffffffff169050919050565b600080601160008573ffffffffffffffffffffffffffffffffffffffff1673ffffffffffffffffffffffffffffffffffffffff16815260200190815260200160002054905060058110151561292b576000915061299c565b600083141561298a5780600503601060008673ffffffffffffffffffffffffffffffffffffffff1673ffffffffffffffffffffffffffffffffffffffff1681526020019081526020016000205461298186613a2c565b0202915061299b565b8060050361299785613a2c565b0291505b5b5092915050565b806008600001600084815260200190815260200160002060010190805190602001906129d0929190613ee0565b505050565b6129dd613f60565b610140604051908101604052808d81526020018c81526020018b81526020018a815260200189815260200188815260200187815260200186815260200185815260200184815250905080600860010160008481526020019081526020016000206000820151816000019080519060200190612a59929190613fb4565b506020820151816001019080519060200190612a76929190613fb4565b506040820151816002019080519060200190612a93929190613fb4565b506060820151816003019080519060200190612ab0929190613fb4565b506080820151816004019080519060200190612acd929190613fb4565b5060a0820151816005019080519060200190612aea929190613fb4565b5060c0820151816006019080519060200190612b07929190613fb4565b5060e0820151816007019080519060200190612b24929190613fb4565b506101008201518160080155610120820151816009019080519060200190612b4d929190613fb4565b509050506040805190810160405280600181526020017f3000000000000000000000000000000000000000000000000000000000000000815250600860000160008481526020019081526020016000206001019080519060200190612bb3929190613ee0565b50336008600001600084815260200190815260200160002060030160006101000a81548173ffffffffffffffffffffffffffffffffffffffff021916908373ffffffffffffffffffffffffffffffffffffffff160217905550600c60003373ffffffffffffffffffffffffffffffffffffffff1673ffffffffffffffffffffffffffffffffffffffff168152602001908152602001600020829080600181540180825580915050906001820390600052602060002001600090919290919091505550600b60008154809291906001019190505550505050505050505050505050565b6000600154905090565b60606016600001805480602002602001604051908101604052809291908181526020018280548015612cf057602002820191906000526020600020905b815481526020019060010190808311612cdc575b5050505050905090565b612d02614034565b610100604051908101604052808b81526020018a815260200189815260200188815260200187815260200186815260200185815260200184815250905080600860020160008481526020019081526020016000206000820151816000019080519060200190612d72929190613fb4565b506020820151816001019080519060200190612d8f929190613fb4565b506040820151816002019080519060200190612dac929190613fb4565b506060820151816003019080519060200190612dc9929190613fb4565b506080820151816004019080519060200190612de6929190613fb4565b5060a0820151816005019080519060200190612e03929190613fb4565b5060c0820151816006019080519060200190612e20929190613fb4565b5060e0820151816007019080519060200190612e3d929190613fb4565b5090505050505050505050505050565b80601060003373ffffffffffffffffffffffffffffffffffffffff1673ffffffffffffffffffffffffffffffffffffffff1681526020019081526020016000208190555050565b600060146000838152602001908152602001600020600101549050919050565b6001600d60003373ffffffffffffffffffffffffffffffffffffffff1673ffffffffffffffffffffffffffffffffffffffff16815260200190815260200160002081905550600e3390806001815401808255809150509060018203906000526020600020016000909192909190916101000a81548173ffffffffffffffffffffffffffffffffffffffff021916908373ffffffffffffffffffffffffffffffffffffffff16021790555050565b8060066000600560009054906101000a900473ffffffffffffffffffffffffffffffffffffffff1673ffffffffffffffffffffffffffffffffffffffff1673ffffffffffffffffffffffffffffffffffffffff16815260200190815260200160002054111515612fd057600080fd5b60c981600660003373ffffffffffffffffffffffffffffffffffffffff1673ffffffffffffffffffffffffffffffffffffffff168152602001908152602001600020540110151561302057600080fd5b600760003373ffffffffffffffffffffffffffffffffffffffff1673ffffffffffffffffffffffffffffffffffffffff1681526020019081526020016000206000815480929190600101919050555080600660003373ffffffffffffffffffffffffffffffffffffffff1673ffffffffffffffffffffffffffffffffffffffff168152602001908152602001600020600082825401925050819055508060066000600560009054906101000a900473ffffffffffffffffffffffffffffffffffffffff1673ffffffffffffffffffffffffffffffffffffffff1673ffffffffffffffffffffffffffffffffffffffff16815260200190815260200160002060008282540392505081905550806001600082825401925050819055503373ffffffffffffffffffffffffffffffffffffffff16600560009054906101000a900473ffffffffffffffffffffffffffffffffffffffff1673ffffffffffffffffffffffffffffffffffffffff167fddf252ad1be2c89b69c2b068fc378daa952ba7f163c4a11628f55a4df523b3ef836040518082815260200191505060405180910390a350565b60008060008091506000905060016014600087815260200190815260200160002060000160003373ffffffffffffffffffffffffffffffffffffffff1673ffffffffffffffffffffffffffffffffffffffff16815260200190815260200160002054141561323257600080fd5b6001601160003373ffffffffffffffffffffffffffffffffffffffff1673ffffffffffffffffffffffffffffffffffffffff16815260200190815260200160002060008282540392505081905550601560008681526020019081526020016000203390806001815401808255809150509060018203906000526020600020016000909192909190916101000a81548173ffffffffffffffffffffffffffffffffffffffff021916908373ffffffffffffffffffffffffffffffffffffffff160217905550506001601460008781526020019081526020016000206001016000828254019250508190555083601460008781526020019081526020016000206002016000828254019250508190555060016014600087815260200190815260200160002060000160003373ffffffffffffffffffffffffffffffffffffffff1673ffffffffffffffffffffffffffffffffffffffff16815260200190815260200160002081905550600560146000878152602001908152602001600020600101541415613524576101f46008600101600087815260200190815260200160002060080154029150601460008681526020019081526020016000206002015490506040805190810160405280600181526020017f3300000000000000000000000000000000000000000000000000000000000000815250600860000160008781526020019081526020016000206001019080519060200190613453929190613ee0565b50605f81028211156134d25760698102821015613480576134778560646000613a75565b60009250613525565b60058181151561348c57fe5b0460086001016000878152602001908152602001600020600801819055506134c9856134bf6134ba88613c33565b613c76565b6002026001613a75565b60019250613525565b6005818115156134de57fe5b04600860010160008781526020019081526020016000206008018190555061351b8561351161350c88613c33565b613c76565b6002026001613a75565b60019250613525565b5b505092915050565b81600660003373ffffffffffffffffffffffffffffffffffffffff1673ffffffffffffffffffffffffffffffffffffffff168152602001908152602001600020541015151561357b57600080fd5b600760003373ffffffffffffffffffffffffffffffffffffffff1673ffffffffffffffffffffffffffffffffffffffff168152602001908152602001600020600081548092919060010191905055508160066000600560009054906101000a900473ffffffffffffffffffffffffffffffffffffffff1673ffffffffffffffffffffffffffffffffffffffff1673ffffffffffffffffffffffffffffffffffffffff1681526020019081526020016000206000828254019250508190555081600660003373ffffffffffffffffffffffffffffffffffffffff1673ffffffffffffffffffffffffffffffffffffffff16815260200190815260200160002060008282540392505081905550816001600082825403925050819055503373ffffffffffffffffffffffffffffffffffffffff166108fc829081150290604051600060405180830381858888f193505050501580156136dc573d6000803e3d6000fd5b50600560009054906101000a900473ffffffffffffffffffffffffffffffffffffffff1673ffffffffffffffffffffffffffffffffffffffff163373ffffffffffffffffffffffffffffffffffffffff167fddf252ad1be2c89b69c2b068fc378daa952ba7f163c4a11628f55a4df523b3ef846040518082815260200191505060405180910390a35050565b600060086001016000838152602001908152602001600020600801549050919050565b600080600d60003373ffffffffffffffffffffffffffffffffffffffff1673ffffffffffffffffffffffffffffffffffffffff168152602001908152602001600020819055506001905090565b60003073ffffffffffffffffffffffffffffffffffffffff1631905090565b600061380233613c76565b90508160086001016000858152602001908152602001600020600801819055506040805190810160405280600181526020017f3100000000000000000000000000000000000000000000000000000000000000815250600860000160008581526020019081526020016000206001019080519060200190613884929190613ee0565b5061389083600061256c565b61389a3382613cc2565b3373ffffffffffffffffffffffffffffffffffffffff166108fc826064039081150290604051600060405180830381858888f193505050501580156138e3573d6000803e3d6000fd5b506138ef601684613d92565b505050565b6060600c60003373ffffffffffffffffffffffffffffffffffffffff1673ffffffffffffffffffffffffffffffffffffffff16815260200190815260200160002080548060200260200160405190810160405280929190818152602001828054801561397f57602002820191906000526020600020905b81548152602001906001019080831161396b575b5050505050905090565b6000600d60003373ffffffffffffffffffffffffffffffffffffffff1673ffffffffffffffffffffffffffffffffffffffff16815260200190815260200160002054905090565b806008600001600084815260200190815260200160002060020160006101000a81548173ffffffffffffffffffffffffffffffffffffffff021916908373ffffffffffffffffffffffffffffffffffffffff1602179055505050565b6000600660008373ffffffffffffffffffffffffffffffffffffffff1673ffffffffffffffffffffffffffffffffffffffff168152602001908152602001600020549050919050565b6000613a7f61407a565b613a8761407a565b613a8f61409d565b6000809450600090505b6005811015613b8d576015600089815260200190815260200160002081815481101515613ac257fe5b9060005260206000200160009054906101000a900473ffffffffffffffffffffffffffffffffffffffff168282600581101515613afb57fe5b602002019073ffffffffffffffffffffffffffffffffffffffff16908173ffffffffffffffffffffffffffffffffffffffff1681525050613b4d8282600581101515613b4357fe5b6020020151613a2c565b81600503028482600581101515613b6057fe5b6020020181815250508381600581101515613b7757fe5b6020020151850194508080600101915050613a99565b600090505b6005811015613c0d57848482600581101515613baa57fe5b6020020151811515613bb857fe5b0487028382600581101515613bc957fe5b602002018181525050613c008282600581101515613be357fe5b60200201518483600581101515613bf657fe5b6020020151613cc2565b8080600101915050613b92565b6001861415613c2957613c28613c2289613c33565b88613e10565b5b5050505050505050565b60006008600001600083815260200190815260200160002060020160009054906101000a900473ffffffffffffffffffffffffffffffffffffffff169050919050565b60006064601060008473ffffffffffffffffffffffffffffffffffffffff1673ffffffffffffffffffffffffffffffffffffffff16815260200190815260200160002054039050919050565b80600660008473ffffffffffffffffffffffffffffffffffffffff1673ffffffffffffffffffffffffffffffffffffffff168152602001908152602001600020600082825401925050819055508060066000600560009054906101000a900473ffffffffffffffffffffffffffffffffffffffff1673ffffffffffffffffffffffffffffffffffffffff1673ffffffffffffffffffffffffffffffffffffffff16815260200190815260200160002060008282540392505081905550806001600082825401925050819055505050565b8160010154600f546001846002015401811515613dab57fe5b061415613db757613e0c565b80826000018360020154815481101515613dcd57fe5b906000526020600020018190555060018260030160008282540192505081905550600f546001836002015401811515613e0257fe5b0682600201819055505b5050565b80600660008473ffffffffffffffffffffffffffffffffffffffff1673ffffffffffffffffffffffffffffffffffffffff168152602001908152602001600020600082825403925050819055508060066000600560009054906101000a900473ffffffffffffffffffffffffffffffffffffffff1673ffffffffffffffffffffffffffffffffffffffff1673ffffffffffffffffffffffffffffffffffffffff16815260200190815260200160002060008282540192505081905550806001600082825403925050819055505050565b828054600181600116156101000203166002900490600052602060002090601f016020900481019282601f10613f2157805160ff1916838001178555613f4f565b82800160010185558215613f4f579182015b82811115613f4e578251825591602001919060010190613f33565b5b509050613f5c91906140c0565b5090565b61014060405190810160405280606081526020016060815260200160608152602001606081526020016060815260200160608152602001606081526020016060815260200160008152602001606081525090565b828054600181600116156101000203166002900490600052602060002090601f016020900481019282601f10613ff557805160ff1916838001178555614023565b82800160010185558215614023579182015b82811115614022578251825591602001919060010190614007565b5b50905061403091906140c0565b5090565b6101006040519081016040528060608152602001606081526020016060815260200160608152602001606081526020016060815260200160608152602001606081525090565b60a060405190810160405280600590602082028038833980820191505090505090565b60a060405190810160405280600590602082028038833980820191505090505090565b6140e291905b808211156140de5760008160009055506001016140c6565b5090565b905600a165627a7a72305820f368e88064616df30f3560a196515428ad37aa41b3ad568d75ff67ae6e86c1af0029",
  "source": "pragma solidity ^0.4.24;\n\nimport \"./assign.sol\";\n\ncontract demo is assign{\n    mapping(uint => uint) backrecord;\n    /*****************************/\n    /*****************************/\n    /**\n     * guobin\n     * \n    */\n    function addvaluation(\n        string memory Frame_number,             //\n        string memory Number_plate,             //\n        string memory Vehicle_type,             //\n        string memory Brand_number,             //\n        string memory car_displacement,         //L\n        string memory approval_passengers,      //\n        string memory Engine_number,            //\n        string memory Manufacture_date,         //\n        uint          Evaluation,               //\n        string memory Timestammp,               //\n        uint evaluation_index                   //(js,ipfs,)\n        ) public {\n        _addvaluation(Frame_number,Number_plate,Vehicle_type,Brand_number,car_displacement,approval_passengers,Engine_number,Manufacture_date,Evaluation,Timestammp,evaluation_index); //\n    }\n\n    /**\n     * guobin\n     * \n    */\n    function addphoto(\n        string memory photo1,\n        string memory photo2,\n        string memory photo3,\n        string memory photo4,\n        string memory photo5,\n        string memory photo6,\n        string memory photo7,\n        string memory photo8,\n        uint evaluation_index\n    ) public payable {\n        _addphoto(photo1,photo2,photo3,photo4,photo5,photo6,photo7,photo8,evaluation_index);\n        distribution(evaluation_index,statistic(0));             //\n    }\n\n    /**\n     * guobin\n     * \n    */\n    function backordernumber() view public returns (uint) {\n        return _backordernumber();\n    }\n\n\n    /**\n     * guobin\n     * \n    */\n    function backwork(uint evaluation_index) public {\n        if(checkbackstate(evaluation_index) == 1) {\n            finishwork(evaluation_index,1);\n        }\n        else {\n            finishwork(evaluation_index,0);\n            distribution(evaluation_index,statistic(1));             //\n            backrecord[evaluation_index] += 1;\n            _getcreator(evaluation_index).transfer(100);\n        }\n    }\n\n    /**\n     * guobin\n     * \n    */\n    function checkbackstate(uint evaluation_index) internal view returns (uint) {\n        return backrecord[evaluation_index];\n    }\n\n    /**\n     * guobin\n     * \n    */\n    function evaluate(uint index,uint value) public {\n        _evaluate(index,value);\n    }\n\n    /**\n     * guobin\n     * \n    */\n    function backvaluation() view public returns (uint[]) {\n        return _backvaluation();\n    }\n\n    /**\n     * guobin\n     * \n    */\n    function setstate(uint index,string condition) public {\n        _setstate(index,condition);\n    }\n\n    /**\n     * guobin\n     * \n    */\n    function displayvalue(uint index) view public returns (uint) {\n        return _displayvalue(index);\n    }\n\n    /**\n     * guobin\n     * \n    */\n    function displayinfo(uint index,uint num) view public returns (string) {\n        return _displayinfo(index,num);\n    }\n\n    /*****************************/\n    /**\n     * guobin\n     * \n    */\n    function buy(uint amount) public payable {\n        _buy(amount);\n    }\n    \n    /**\n     * guobin\n     * \n    */\n    function sell(uint256 amount,uint256 eth_amount) public payable {\n        _sell(amount,eth_amount);\n    }\n\n    /**\n     * guobin\n     * \n    */\n    function displaybalance() view public returns (uint256) {\n        return _displaybalance();\n    } \n\n    /**\n     * guobin\n     * \n    */\n    function displayethbalance() view public returns (uint256) {\n        return _displayethbalance();\n    } \n\n    /**\n     * guobin\n     * \n    */\n    function displayaccount() view public returns (uint256) {\n        return _displayaccount();\n    } \n\n    /**\n     * guobin\n     * \n    */\n    function displayaccountforarbitrage(address send) public view returns (uint) {\n        return calc(send,1);\n    }\n\n    /**\n     * guobin\n     * \n    */\n    function displaytoken() view public returns (uint256) {\n        return _displaytoken();\n    } \n\n    /**\n     * guobin\n     * \n    */\n    function distranumber() view public returns (uint256) {\n        return _distranumber();\n    } \n\n\n\n    /*****************************/\n    /**\n     * guobin\n     * \n    */\n    function registertest(uint amount,uint scale) public payable {          \n        _registertest();\n        _buy(amount);\n        _Enter_quote(scale);\n    }\n\n    /**\n     * guobin\n     * \n    */\n    function Enter_quote(uint value) public {                               \n        _Enter_quote(value);\n    }\n    \n    /**\n     * guobin\n     * 10\n    */\n    function checkuser() view public returns (uint) {                       \n        return _checkuser();\n    }\n\n    /**\n     * guobin\n     * \n    */\n    function unregister() public {                                          \n        _unregister();\n    }\n\n    /**\n     * guobin\n     * \n    */\n    function backofwork() view public returns (address[]) {\n        return _backofwork();\n    }\n\n    /**\n     * guobin\n     * \n    */\n    function backvalnumber() view public returns (uint[]) {\n        return _backvalnumber();\n    }\n\n\n    /*****************************/\n    /**\n     * guobin\n     * \n    */\n    function backappnumber() view public returns (uint[]) {\n        return _backappnumber();\n    }\n\n    /**\n     * guobin\n     * \n    */\n    function appealdistribution(uint number,address appeal1,address appeal2,address appeal3,address appeal4,address appeal5) public {\n        _appealdistribution(number,appeal1,appeal2,appeal3,appeal4,appeal5);\n    }\n\n    /**\n     * guobin\n     * \n    */\n    function appealesituation(uint index) public view  returns (uint) {\n        _appealesituation(index);\n    }\n\n    /**\n     * guobin\n     * \n    */\n    function appealevaluate(uint index,uint value) public {\n        _appealevaluate(index,value);\n    }\n\n    /**\n     * guobin\n     * \n    */\n    function appealeschedule(uint index) public view returns (uint) {\n        return _appealeschedule(index);\n    }\n\n    /**\n     * guobin\n     * \n    */\n    function backLeaderboard() public view returns (uint[]) {\n        return _backLeaderboard();\n    }\n}\n",
  "sourcePath": "/blockpro/evaluation-system/contracts/demo.sol",
  "compiler": {
    "name": "solc",
    "version": "0.4.24+commit.e67f0147.Emscripten.clang"
  },
  "schemaVersion": "2.0.1",
  "updatedAt": "2019-04-18T10:41:48.186Z"
}