{
  "contractName": "demo",
  "abi": [
    {
      "anonymous": false,
      "inputs": [
        {
          "indexed": true,
          "name": "from",
          "type": "address"
        },
        {
          "indexed": true,
          "name": "to",
          "type": "address"
        },
        {
          "indexed": false,
          "name": "value",
          "type": "uint256"
        }
      ],
      "name": "Transfer",
      "type": "event"
    },
    {
      "anonymous": false,
      "inputs": [
        {
          "indexed": true,
          "name": "to",
          "type": "address"
        },
        {
          "indexed": false,
          "name": "value",
          "type": "uint256"
        }
      ],
      "name": "Reward",
      "type": "event"
    },
    {
      "anonymous": false,
      "inputs": [
        {
          "indexed": true,
          "name": "to",
          "type": "address"
        },
        {
          "indexed": false,
          "name": "value",
          "type": "uint256"
        }
      ],
      "name": "Punishment",
      "type": "event"
    },
    {
      "constant": false,
      "inputs": [
        {
          "name": "Frame_number",
          "type": "string"
        },
        {
          "name": "Number_plate",
          "type": "string"
        },
        {
          "name": "Vehicle_type",
          "type": "string"
        },
        {
          "name": "Brand_number",
          "type": "string"
        },
        {
          "name": "car_displacement",
          "type": "string"
        },
        {
          "name": "approval_passengers",
          "type": "string"
        },
        {
          "name": "Engine_number",
          "type": "string"
        },
        {
          "name": "Manufacture_date",
          "type": "string"
        },
        {
          "name": "Evaluation",
          "type": "uint256"
        },
        {
          "name": "Timestammp",
          "type": "string"
        },
        {
          "name": "evaluation_index",
          "type": "uint256"
        }
      ],
      "name": "addvaluation",
      "outputs": [],
      "payable": false,
      "stateMutability": "nonpayable",
      "type": "function"
    },
    {
      "constant": false,
      "inputs": [
        {
          "name": "photo1",
          "type": "string"
        },
        {
          "name": "photo2",
          "type": "string"
        },
        {
          "name": "photo3",
          "type": "string"
        },
        {
          "name": "photo4",
          "type": "string"
        },
        {
          "name": "photo5",
          "type": "string"
        },
        {
          "name": "photo6",
          "type": "string"
        },
        {
          "name": "photo7",
          "type": "string"
        },
        {
          "name": "photo8",
          "type": "string"
        },
        {
          "name": "evaluation_index",
          "type": "uint256"
        }
      ],
      "name": "addphoto",
      "outputs": [],
      "payable": true,
      "stateMutability": "payable",
      "type": "function"
    },
    {
      "constant": true,
      "inputs": [],
      "name": "backordernumber",
      "outputs": [
        {
          "name": "",
          "type": "uint256"
        }
      ],
      "payable": false,
      "stateMutability": "view",
      "type": "function"
    },
    {
      "constant": false,
      "inputs": [
        {
          "name": "evaluation_index",
          "type": "uint256"
        }
      ],
      "name": "backwork",
      "outputs": [],
      "payable": false,
      "stateMutability": "nonpayable",
      "type": "function"
    },
    {
      "constant": false,
      "inputs": [
        {
          "name": "index",
          "type": "uint256"
        },
        {
          "name": "value",
          "type": "uint256"
        }
      ],
      "name": "evaluate",
      "outputs": [],
      "payable": false,
      "stateMutability": "nonpayable",
      "type": "function"
    },
    {
      "constant": true,
      "inputs": [],
      "name": "backvaluation",
      "outputs": [
        {
          "name": "",
          "type": "uint256[]"
        }
      ],
      "payable": false,
      "stateMutability": "view",
      "type": "function"
    },
    {
      "constant": false,
      "inputs": [
        {
          "name": "index",
          "type": "uint256"
        },
        {
          "name": "condition",
          "type": "string"
        }
      ],
      "name": "setstate",
      "outputs": [],
      "payable": false,
      "stateMutability": "nonpayable",
      "type": "function"
    },
    {
      "constant": true,
      "inputs": [
        {
          "name": "index",
          "type": "uint256"
        }
      ],
      "name": "displayvalue",
      "outputs": [
        {
          "name": "",
          "type": "uint256"
        }
      ],
      "payable": false,
      "stateMutability": "view",
      "type": "function"
    },
    {
      "constant": true,
      "inputs": [
        {
          "name": "index",
          "type": "uint256"
        },
        {
          "name": "num",
          "type": "uint256"
        }
      ],
      "name": "displayinfo",
      "outputs": [
        {
          "name": "",
          "type": "string"
        }
      ],
      "payable": false,
      "stateMutability": "view",
      "type": "function"
    },
    {
      "constant": true,
      "inputs": [
        {
          "name": "index",
          "type": "uint256"
        }
      ],
      "name": "getcreator",
      "outputs": [
        {
          "name": "",
          "type": "address"
        }
      ],
      "payable": false,
      "stateMutability": "view",
      "type": "function"
    },
    {
      "constant": true,
      "inputs": [
        {
          "name": "index",
          "type": "uint256"
        }
      ],
      "name": "getassessor",
      "outputs": [
        {
          "name": "",
          "type": "address"
        }
      ],
      "payable": false,
      "stateMutability": "view",
      "type": "function"
    },
    {
      "constant": false,
      "inputs": [
        {
          "name": "amount",
          "type": "uint256"
        }
      ],
      "name": "buy",
      "outputs": [],
      "payable": true,
      "stateMutability": "payable",
      "type": "function"
    },
    {
      "constant": false,
      "inputs": [
        {
          "name": "amount",
          "type": "uint256"
        },
        {
          "name": "eth_amount",
          "type": "uint256"
        }
      ],
      "name": "sell",
      "outputs": [],
      "payable": true,
      "stateMutability": "payable",
      "type": "function"
    },
    {
      "constant": true,
      "inputs": [],
      "name": "displaybalance",
      "outputs": [
        {
          "name": "",
          "type": "uint256"
        }
      ],
      "payable": false,
      "stateMutability": "view",
      "type": "function"
    },
    {
      "constant": true,
      "inputs": [],
      "name": "displayethbalance",
      "outputs": [
        {
          "name": "",
          "type": "uint256"
        }
      ],
      "payable": false,
      "stateMutability": "view",
      "type": "function"
    },
    {
      "constant": true,
      "inputs": [],
      "name": "displayaccount",
      "outputs": [
        {
          "name": "",
          "type": "uint256"
        }
      ],
      "payable": false,
      "stateMutability": "view",
      "type": "function"
    },
    {
      "constant": true,
      "inputs": [
        {
          "name": "send",
          "type": "address"
        }
      ],
      "name": "displayaccountforarbitrage",
      "outputs": [
        {
          "name": "",
          "type": "uint256"
        }
      ],
      "payable": false,
      "stateMutability": "view",
      "type": "function"
    },
    {
      "constant": true,
      "inputs": [],
      "name": "displaytoken",
      "outputs": [
        {
          "name": "",
          "type": "uint256"
        }
      ],
      "payable": false,
      "stateMutability": "view",
      "type": "function"
    },
    {
      "constant": true,
      "inputs": [],
      "name": "distranumber",
      "outputs": [
        {
          "name": "",
          "type": "uint256"
        }
      ],
      "payable": false,
      "stateMutability": "view",
      "type": "function"
    },
    {
      "constant": true,
      "inputs": [],
      "name": "displaycreate",
      "outputs": [
        {
          "name": "",
          "type": "uint256"
        }
      ],
      "payable": false,
      "stateMutability": "view",
      "type": "function"
    },
    {
      "constant": true,
      "inputs": [],
      "name": "displaywork",
      "outputs": [
        {
          "name": "",
          "type": "uint256"
        }
      ],
      "payable": false,
      "stateMutability": "view",
      "type": "function"
    },
    {
      "constant": false,
      "inputs": [
        {
          "name": "amount",
          "type": "uint256"
        },
        {
          "name": "scale",
          "type": "uint256"
        },
        {
          "name": "logintime",
          "type": "string"
        }
      ],
      "name": "registertest",
      "outputs": [],
      "payable": true,
      "stateMutability": "payable",
      "type": "function"
    },
    {
      "constant": false,
      "inputs": [
        {
          "name": "value",
          "type": "uint256"
        }
      ],
      "name": "Enter_quote",
      "outputs": [],
      "payable": false,
      "stateMutability": "nonpayable",
      "type": "function"
    },
    {
      "constant": true,
      "inputs": [],
      "name": "check_quote",
      "outputs": [
        {
          "name": "",
          "type": "uint256"
        }
      ],
      "payable": false,
      "stateMutability": "view",
      "type": "function"
    },
    {
      "constant": true,
      "inputs": [],
      "name": "checktime",
      "outputs": [
        {
          "name": "",
          "type": "string"
        }
      ],
      "payable": false,
      "stateMutability": "view",
      "type": "function"
    },
    {
      "constant": true,
      "inputs": [],
      "name": "checkuser",
      "outputs": [
        {
          "name": "",
          "type": "uint256"
        }
      ],
      "payable": false,
      "stateMutability": "view",
      "type": "function"
    },
    {
      "constant": false,
      "inputs": [],
      "name": "unregister",
      "outputs": [],
      "payable": false,
      "stateMutability": "nonpayable",
      "type": "function"
    },
    {
      "constant": true,
      "inputs": [],
      "name": "backofwork",
      "outputs": [
        {
          "name": "",
          "type": "address[]"
        }
      ],
      "payable": false,
      "stateMutability": "view",
      "type": "function"
    },
    {
      "constant": true,
      "inputs": [],
      "name": "backvalnumber",
      "outputs": [
        {
          "name": "",
          "type": "uint256[]"
        }
      ],
      "payable": false,
      "stateMutability": "view",
      "type": "function"
    },
    {
      "constant": true,
      "inputs": [],
      "name": "backappnumber",
      "outputs": [
        {
          "name": "",
          "type": "uint256[]"
        }
      ],
      "payable": false,
      "stateMutability": "view",
      "type": "function"
    },
    {
      "constant": false,
      "inputs": [
        {
          "name": "number",
          "type": "uint256"
        },
        {
          "name": "appeal1",
          "type": "address"
        },
        {
          "name": "appeal2",
          "type": "address"
        },
        {
          "name": "appeal3",
          "type": "address"
        },
        {
          "name": "appeal4",
          "type": "address"
        },
        {
          "name": "appeal5",
          "type": "address"
        }
      ],
      "name": "appealdistribution",
      "outputs": [],
      "payable": false,
      "stateMutability": "nonpayable",
      "type": "function"
    },
    {
      "constant": true,
      "inputs": [
        {
          "name": "index",
          "type": "uint256"
        }
      ],
      "name": "appealesituation",
      "outputs": [
        {
          "name": "",
          "type": "uint256"
        }
      ],
      "payable": false,
      "stateMutability": "view",
      "type": "function"
    },
    {
      "constant": false,
      "inputs": [
        {
          "name": "index",
          "type": "uint256"
        },
        {
          "name": "value",
          "type": "uint256"
        }
      ],
      "name": "appealevaluate",
      "outputs": [],
      "payable": false,
      "stateMutability": "nonpayable",
      "type": "function"
    },
    {
      "constant": true,
      "inputs": [
        {
          "name": "index",
          "type": "uint256"
        }
      ],
      "name": "appealeschedule",
      "outputs": [
        {
          "name": "",
          "type": "uint256"
        }
      ],
      "payable": false,
      "stateMutability": "view",
      "type": "function"
    },
    {
      "constant": true,
      "inputs": [],
      "name": "backLeaderboard",
      "outputs": [
        {
          "name": "",
          "type": "uint256[]"
        }
      ],
      "payable": false,
      "stateMutability": "view",
      "type": "function"
    },
    {
      "constant": true,
      "inputs": [],
      "name": "backLength",
      "outputs": [
        {
          "name": "",
          "type": "uint256"
        }
      ],
      "payable": false,
      "stateMutability": "view",
      "type": "function"
    }
  ],
  "bytecode": "0x60806040526040805190810160405280600981526020017f546f6b656e20312e3000000000000000000000000000000000000000000000008152506002908051906020019062000051929190620001bf565b506001600b5560656012556305f5e100600660003373ffffffffffffffffffffffffffffffffffffffff1673ffffffffffffffffffffffffffffffffffffffff168152602001908152602001600020819055506040805190810160405280600981526020017f746f6b656e4e616d65000000000000000000000000000000000000000000000081525060039080519060200190620000f1929190620001bf565b506040805190810160405280600b81526020017f746f6b656e53796d626f6c000000000000000000000000000000000000000000815250600490805190602001906200013f929190620001bf565b5033600560006101000a81548173ffffffffffffffffffffffffffffffffffffffff021916908373ffffffffffffffffffffffffffffffffffffffff16021790555060016000806101000a81548160ff021916908360ff160217905550602860018190555060c8601960000181620001b8919062000246565b506200029d565b828054600181600116156101000203166002900490600052602060002090601f016020900481019282601f106200020257805160ff191683800117855562000233565b8280016001018555821562000233579182015b828111156200023257825182559160200191906001019062000215565b5b50905062000242919062000275565b5090565b81548183558181111562000270578183600052602060002091820191016200026f919062000275565b5b505050565b6200029a91905b80821115620002965760008160009055506001016200027c565b5090565b90565b6146ee80620002ad6000396000f3006080604052600436106101c2576000357c0100000000000000000000000000000000000000000000000000000000900463ffffffff16806309afc910146101c75780631304b5b7146101f257806315596e5b1461021b57806320d3a89f14610246578063216573a014610271578063266de1e01461029c57806330e83d2d146102c7578063369236e2146102f2578063374d91d21461032f5780634245369e1461035a57806343b851a01461039757806344373603146103c257806362c61f34146103ed578063684ce2e514610418578063718d70fa14610441578063835499c91461047e5780638c4f89d8146104a95780638c9ab83c146104c55780639c16a16b146104ee578063a4d2ce0014610517578063a603399614610542578063b03ca1561461056d578063b99fc10a146105aa578063c5f4f12a146105c6578063cbb4cee4146105ef578063d67ee2ae1461062c578063d79875eb14610655578063d96a094a14610671578063dcd150171461068d578063e6615a0d146106ca578063e79a198f14610707578063f2ad521b1461071e578063f363e61314610749578063f97445a914610774578063fc8ee8a91461079d578063fe830145146107c8575b600080fd5b3480156101d357600080fd5b506101dc6107f3565b6040516101e99190614544565b60405180910390f35b3480156101fe57600080fd5b5061021960048036036102149190810190614239565b610802565b005b34801561022757600080fd5b50610230610832565b60405161023d91906144de565b60405180910390f35b34801561025257600080fd5b5061025b610841565b6040516102689190614544565b60405180910390f35b34801561027d57600080fd5b50610286610850565b6040516102939190614544565b60405180910390f35b3480156102a857600080fd5b506102b161085f565b6040516102be9190614522565b60405180910390f35b3480156102d357600080fd5b506102dc61086e565b6040516102e99190614544565b60405180910390f35b3480156102fe57600080fd5b5061031960048036036103149190810190614210565b61087d565b6040516103269190614544565b60405180910390f35b34801561033b57600080fd5b5061034461088e565b6040516103519190614544565b60405180910390f35b34801561036657600080fd5b50610381600480360361037c9190810190614316565b61089d565b60405161038e9190614522565b60405180910390f35b3480156103a357600080fd5b506103ac6108b1565b6040516103b99190614500565b60405180910390f35b3480156103ce57600080fd5b506103d76108c0565b6040516103e49190614544565b60405180910390f35b3480156103f957600080fd5b506104026108cf565b60405161040f9190614500565b60405180910390f35b34801561042457600080fd5b5061043f600480360361043a9190810190614210565b6108de565b005b34801561044d57600080fd5b5061046860048036036104639190810190613e99565b610994565b6040516104759190614544565b60405180910390f35b34801561048a57600080fd5b506104936109a8565b6040516104a09190614544565b60405180910390f35b6104c360048036036104be9190810190614352565b6109b7565b005b3480156104d157600080fd5b506104ec60048036036104e791908101906142c2565b6109d7565b005b3480156104fa57600080fd5b5061051560048036036105109190810190614048565b6109e5565b005b34801561052357600080fd5b5061052c610a05565b6040516105399190614544565b60405180910390f35b34801561054e57600080fd5b50610557610a14565b6040516105649190614500565b60405180910390f35b34801561057957600080fd5b50610594600480360361058f9190810190614210565b610a23565b6040516105a191906144c3565b60405180910390f35b6105c460048036036105bf9190810190613ec2565b610a35565b005b3480156105d257600080fd5b506105ed60048036036105e89190810190614210565b610a65565b005b3480156105fb57600080fd5b5061061660048036036106119190810190614210565b610a71565b6040516106239190614544565b60405180910390f35b34801561063857600080fd5b50610653600480360361064e9190810190614316565b610a83565b005b61066f600480360361066a9190810190614316565b610a92565b005b61068b60048036036106869190810190614210565b610aa0565b005b34801561069957600080fd5b506106b460048036036106af9190810190614210565b610aac565b6040516106c19190614544565b60405180910390f35b3480156106d657600080fd5b506106f160048036036106ec9190810190614210565b610abe565b6040516106fe91906144c3565b60405180910390f35b34801561071357600080fd5b5061071c610ad0565b005b34801561072a57600080fd5b50610733610adb565b6040516107409190614544565b60405180910390f35b34801561075557600080fd5b5061075e610aeb565b60405161076b9190614544565b60405180910390f35b34801561078057600080fd5b5061079b60048036036107969190810190614316565b610afa565b005b3480156107a957600080fd5b506107b2610b08565b6040516107bf9190614500565b60405180910390f35b3480156107d457600080fd5b506107dd610b17565b6040516107ea9190614544565b60405180910390f35b60006107fd610b26565b905090565b610810868686868686610b30565b61082a61081c87610f2e565b61082588610f71565b610fb4565b505050505050565b606061083c611054565b905090565b600061084b6110e2565b905090565b600061085a611129565b905090565b6060610869611170565b905090565b600061087861124f565b905090565b60006108888261126e565b50919050565b60006108986112df565b905090565b60606108a98383611326565b905092915050565b60606108bb6120d3565b905090565b60006108ca612168565b905090565b60606108d9612179565b905090565b60016108e98261220e565b14156108ff576108fa81600161222b565b610991565b61090a81600061222b565b61091d8161091860016122ea565b6123ac565b506001601d60008381526020019081526020016000206000828254019250508190555061094981610f2e565b73ffffffffffffffffffffffffffffffffffffffff166108fc60649081150290604051600060405180830381858888f1935050505015801561098f573d6000803e3d6000fd5b505b50565b60006109a182600161254f565b9050919050565b60006109b261261f565b905090565b6109c081612666565b6109c983612768565b6109d2826129cc565b505050565b6109e18282612a13565b5050565b6109f88b8b8b8b8b8b8b8b8b8b8b612a45565b5050505050505050505050565b6000610a0f612d05565b905090565b6060610a1e612d0f565b905090565b6000610a2e82610f2e565b9050919050565b610a46898989898989898989612d6a565b610a5981610a5460006122ea565b6123ac565b50505050505050505050565b610a6e816129cc565b50565b6000610a7c82612ebd565b9050919050565b610a8d8282612edd565b505050565b610a9c8282613245565b5050565b610aa981612768565b50565b6000610ab782613480565b9050919050565b6000610ac982610f71565b9050919050565b610ad86134a3565b50565b6000610ae6336134f0565b905090565b6000610af561358f565b905090565b610b0482826135ae565b5050565b6060610b126136ab565b905090565b6000610b21613740565b905090565b6000600b54905090565b6001601460008773ffffffffffffffffffffffffffffffffffffffff1673ffffffffffffffffffffffffffffffffffffffff168152602001908152602001600020600082825401925050819055506001601460008673ffffffffffffffffffffffffffffffffffffffff1673ffffffffffffffffffffffffffffffffffffffff168152602001908152602001600020600082825401925050819055506001601460008573ffffffffffffffffffffffffffffffffffffffff1673ffffffffffffffffffffffffffffffffffffffff168152602001908152602001600020600082825401925050819055506001601460008473ffffffffffffffffffffffffffffffffffffffff1673ffffffffffffffffffffffffffffffffffffffff168152602001908152602001600020600082825401925050819055506001601460008373ffffffffffffffffffffffffffffffffffffffff1673ffffffffffffffffffffffffffffffffffffffff16815260200190815260200160002060008282540192505081905550601660008673ffffffffffffffffffffffffffffffffffffffff1673ffffffffffffffffffffffffffffffffffffffff168152602001908152602001600020869080600181540180825580915050906001820390600052602060002001600090919290919091505550601660008573ffffffffffffffffffffffffffffffffffffffff1673ffffffffffffffffffffffffffffffffffffffff168152602001908152602001600020869080600181540180825580915050906001820390600052602060002001600090919290919091505550601660008473ffffffffffffffffffffffffffffffffffffffff1673ffffffffffffffffffffffffffffffffffffffff168152602001908152602001600020869080600181540180825580915050906001820390600052602060002001600090919290919091505550601660008373ffffffffffffffffffffffffffffffffffffffff1673ffffffffffffffffffffffffffffffffffffffff168152602001908152602001600020869080600181540180825580915050906001820390600052602060002001600090919290919091505550601660008273ffffffffffffffffffffffffffffffffffffffff1673ffffffffffffffffffffffffffffffffffffffff1681526020019081526020016000208690806001815401808255809150509060018203906000526020600020016000909192909190915055506040805190810160405280600181526020017f3200000000000000000000000000000000000000000000000000000000000000815250600860000160008881526020019081526020016000206001019080519060200190610f25929190613c16565b50505050505050565b60006008600001600083815260200190815260200160002060030160009054906101000a900473ffffffffffffffffffffffffffffffffffffffff169050919050565b60006008600001600083815260200190815260200160002060020160009054906101000a900473ffffffffffffffffffffffffffffffffffffffff169050919050565b6001600d60008473ffffffffffffffffffffffffffffffffffffffff1673ffffffffffffffffffffffffffffffffffffffff168152602001908152602001600020600082825401925050819055506001600e60008373ffffffffffffffffffffffffffffffffffffffff1673ffffffffffffffffffffffffffffffffffffffff168152602001908152602001600020600082825401925050819055505050565b606060118054806020026020016040519081016040528092919081815260200182805480156110d857602002820191906000526020600020905b8160009054906101000a900473ffffffffffffffffffffffffffffffffffffffff1673ffffffffffffffffffffffffffffffffffffffff168152602001906001019080831161108e575b5050505050905090565b6000600e60003373ffffffffffffffffffffffffffffffffffffffff1673ffffffffffffffffffffffffffffffffffffffff16815260200190815260200160002054905090565b6000600760003373ffffffffffffffffffffffffffffffffffffffff1673ffffffffffffffffffffffffffffffffffffffff16815260200190815260200160002054905090565b6060601060003373ffffffffffffffffffffffffffffffffffffffff1673ffffffffffffffffffffffffffffffffffffffff1681526020019081526020016000208054600181600116156101000203166002900480601f0160208091040260200160405190810160405280929190818152602001828054600181600116156101000203166002900480156112455780601f1061121a57610100808354040283529160200191611245565b820191906000526020600020905b81548152906001019060200180831161122857829003601f168201915b5050505050905090565b60003373ffffffffffffffffffffffffffffffffffffffff1631905090565b600060016017600084815260200190815260200160002060000160003373ffffffffffffffffffffffffffffffffffffffff1673ffffffffffffffffffffffffffffffffffffffff1681526020019081526020016000205414156112d557600090506112da565b600190505b919050565b6000600660003373ffffffffffffffffffffffffffffffffffffffff1673ffffffffffffffffffffffffffffffffffffffff16815260200190815260200160002054905090565b606060018214156113ea57600860010160008481526020019081526020016000206000018054600181600116156101000203166002900480601f0160208091040260200160405190810160405280929190818152602001828054600181600116156101000203166002900480156113de5780601f106113b3576101008083540402835291602001916113de565b820191906000526020600020905b8154815290600101906020018083116113c157829003601f168201915b505050505090506120cd565b60028214156114ac57600860010160008481526020019081526020016000206001018054600181600116156101000203166002900480601f0160208091040260200160405190810160405280929190818152602001828054600181600116156101000203166002900480156114a05780601f10611475576101008083540402835291602001916114a0565b820191906000526020600020905b81548152906001019060200180831161148357829003601f168201915b505050505090506120cd565b600382141561156e57600860010160008481526020019081526020016000206002018054600181600116156101000203166002900480601f0160208091040260200160405190810160405280929190818152602001828054600181600116156101000203166002900480156115625780601f1061153757610100808354040283529160200191611562565b820191906000526020600020905b81548152906001019060200180831161154557829003601f168201915b505050505090506120cd565b600482141561163057600860010160008481526020019081526020016000206003018054600181600116156101000203166002900480601f0160208091040260200160405190810160405280929190818152602001828054600181600116156101000203166002900480156116245780601f106115f957610100808354040283529160200191611624565b820191906000526020600020905b81548152906001019060200180831161160757829003601f168201915b505050505090506120cd565b60058214156116f257600860010160008481526020019081526020016000206004018054600181600116156101000203166002900480601f0160208091040260200160405190810160405280929190818152602001828054600181600116156101000203166002900480156116e65780601f106116bb576101008083540402835291602001916116e6565b820191906000526020600020905b8154815290600101906020018083116116c957829003601f168201915b505050505090506120cd565b60068214156117b457600860010160008481526020019081526020016000206005018054600181600116156101000203166002900480601f0160208091040260200160405190810160405280929190818152602001828054600181600116156101000203166002900480156117a85780601f1061177d576101008083540402835291602001916117a8565b820191906000526020600020905b81548152906001019060200180831161178b57829003601f168201915b505050505090506120cd565b600782141561187657600860010160008481526020019081526020016000206006018054600181600116156101000203166002900480601f01602080910402602001604051908101604052809291908181526020018280546001816001161561010002031660029004801561186a5780601f1061183f5761010080835404028352916020019161186a565b820191906000526020600020905b81548152906001019060200180831161184d57829003601f168201915b505050505090506120cd565b600882141561193857600860010160008481526020019081526020016000206007018054600181600116156101000203166002900480601f01602080910402602001604051908101604052809291908181526020018280546001816001161561010002031660029004801561192c5780601f106119015761010080835404028352916020019161192c565b820191906000526020600020905b81548152906001019060200180831161190f57829003601f168201915b505050505090506120cd565b600a8214156119fa57600860010160008481526020019081526020016000206009018054600181600116156101000203166002900480601f0160208091040260200160405190810160405280929190818152602001828054600181600116156101000203166002900480156119ee5780601f106119c3576101008083540402835291602001916119ee565b820191906000526020600020905b8154815290600101906020018083116119d157829003601f168201915b505050505090506120cd565b600b821415611abc57600860000160008481526020019081526020016000206001018054600181600116156101000203166002900480601f016020809104026020016040519081016040528092919081815260200182805460018160011615610100020316600290048015611ab05780601f10611a8557610100808354040283529160200191611ab0565b820191906000526020600020905b815481529060010190602001808311611a9357829003601f168201915b505050505090506120cd565b600c821415611b7e57600860020160008481526020019081526020016000206000018054600181600116156101000203166002900480601f016020809104026020016040519081016040528092919081815260200182805460018160011615610100020316600290048015611b725780601f10611b4757610100808354040283529160200191611b72565b820191906000526020600020905b815481529060010190602001808311611b5557829003601f168201915b505050505090506120cd565b600d821415611c4057600860020160008481526020019081526020016000206001018054600181600116156101000203166002900480601f016020809104026020016040519081016040528092919081815260200182805460018160011615610100020316600290048015611c345780601f10611c0957610100808354040283529160200191611c34565b820191906000526020600020905b815481529060010190602001808311611c1757829003601f168201915b505050505090506120cd565b600e821415611d0257600860020160008481526020019081526020016000206002018054600181600116156101000203166002900480601f016020809104026020016040519081016040528092919081815260200182805460018160011615610100020316600290048015611cf65780601f10611ccb57610100808354040283529160200191611cf6565b820191906000526020600020905b815481529060010190602001808311611cd957829003601f168201915b505050505090506120cd565b600f821415611dc457600860020160008481526020019081526020016000206003018054600181600116156101000203166002900480601f016020809104026020016040519081016040528092919081815260200182805460018160011615610100020316600290048015611db85780601f10611d8d57610100808354040283529160200191611db8565b820191906000526020600020905b815481529060010190602001808311611d9b57829003601f168201915b505050505090506120cd565b6010821415611e8657600860020160008481526020019081526020016000206004018054600181600116156101000203166002900480601f016020809104026020016040519081016040528092919081815260200182805460018160011615610100020316600290048015611e7a5780601f10611e4f57610100808354040283529160200191611e7a565b820191906000526020600020905b815481529060010190602001808311611e5d57829003601f168201915b505050505090506120cd565b6011821415611f4857600860020160008481526020019081526020016000206005018054600181600116156101000203166002900480601f016020809104026020016040519081016040528092919081815260200182805460018160011615610100020316600290048015611f3c5780601f10611f1157610100808354040283529160200191611f3c565b820191906000526020600020905b815481529060010190602001808311611f1f57829003601f168201915b505050505090506120cd565b601282141561200a57600860020160008481526020019081526020016000206006018054600181600116156101000203166002900480601f016020809104026020016040519081016040528092919081815260200182805460018160011615610100020316600290048015611ffe5780601f10611fd357610100808354040283529160200191611ffe565b820191906000526020600020905b815481529060010190602001808311611fe157829003601f168201915b505050505090506120cd565b60138214156120cc57600860020160008481526020019081526020016000206007018054600181600116156101000203166002900480601f0160208091040260200160405190810160405280929190818152602001828054600181600116156101000203166002900480156120c05780601f10612095576101008083540402835291602001916120c0565b820191906000526020600020905b8154815290600101906020018083116120a357829003601f168201915b505050505090506120cd565b5b92915050565b6060601660003373ffffffffffffffffffffffffffffffffffffffff1673ffffffffffffffffffffffffffffffffffffffff16815260200190815260200160002080548060200260200160405190810160405280929190818152602001828054801561215e57602002820191906000526020600020905b81548152602001906001019080831161214a575b5050505050905090565b60006121746019613787565b905090565b6060601560003373ffffffffffffffffffffffffffffffffffffffff1673ffffffffffffffffffffffffffffffffffffffff16815260200190815260200160002080548060200260200160405190810160405280929190818152602001828054801561220457602002820191906000526020600020905b8154815260200190600101908083116121f0575b5050505050905090565b6000601d6000838152602001908152602001600020549050919050565b6001811415612298576040805190810160405280600181526020017f3400000000000000000000000000000000000000000000000000000000000000815250600860000160008481526020019081526020016000206001019080519060200190612296929190613c16565b505b6001601460003373ffffffffffffffffffffffffffffffffffffffff1673ffffffffffffffffffffffffffffffffffffffff168152602001908152602001600020600082825403925050819055505050565b6000806000806000925060009150600090505b6011805490508110156123a45761234d60118281548110151561231c57fe5b9060005260206000200160009054906101000a900473ffffffffffffffffffffffffffffffffffffffff168661254f565b9150828211156123975781925060118181548110151561236957fe5b9060005260206000200160009054906101000a900473ffffffffffffffffffffffffffffffffffffffff1693505b80806001019150506122fd565b505050919050565b6000606060006001601460008673ffffffffffffffffffffffffffffffffffffffff1673ffffffffffffffffffffffffffffffffffffffff1681526020019081526020016000206000828254019250508190555061240a8585613795565b601560008573ffffffffffffffffffffffffffffffffffffffff1673ffffffffffffffffffffffffffffffffffffffff16815260200190815260200160002080548060200260200160405190810160405280929190818152602001828054801561249357602002820191906000526020600020905b81548152602001906001019080831161247f575b50505050509150600090505b81518110156124dd578482828151811015156124b757fe5b9060200190602002015114156124d05760009250612547565b808060010191505061249f565b601560008573ffffffffffffffffffffffffffffffffffffffff1673ffffffffffffffffffffffffffffffffffffffff1681526020019081526020016000208590806001815401808255809150509060018203906000526020600020016000909192909190915055505b505092915050565b600080601460008573ffffffffffffffffffffffffffffffffffffffff1673ffffffffffffffffffffffffffffffffffffffff1681526020019081526020016000205490506005811015156125a75760009150612618565b60008314156126065780600503601360008673ffffffffffffffffffffffffffffffffffffffff1673ffffffffffffffffffffffffffffffffffffffff168152602001908152602001600020546125fd866137f1565b02029150612617565b80600503612613856137f1565b0291505b5b5092915050565b6000600d60003373ffffffffffffffffffffffffffffffffffffffff1673ffffffffffffffffffffffffffffffffffffffff16815260200190815260200160002054905090565b6001600f60003373ffffffffffffffffffffffffffffffffffffffff1673ffffffffffffffffffffffffffffffffffffffff1681526020019081526020016000208190555080601060003373ffffffffffffffffffffffffffffffffffffffff1673ffffffffffffffffffffffffffffffffffffffff16815260200190815260200160002090805190602001906126fe929190613c16565b5060113390806001815401808255809150509060018203906000526020600020016000909192909190916101000a81548173ffffffffffffffffffffffffffffffffffffffff021916908373ffffffffffffffffffffffffffffffffffffffff1602179055505050565b8060066000600560009054906101000a900473ffffffffffffffffffffffffffffffffffffffff1673ffffffffffffffffffffffffffffffffffffffff1673ffffffffffffffffffffffffffffffffffffffff168152602001908152602001600020541115156127d757600080fd5b60c981600660003373ffffffffffffffffffffffffffffffffffffffff1673ffffffffffffffffffffffffffffffffffffffff168152602001908152602001600020540110151561282757600080fd5b600760003373ffffffffffffffffffffffffffffffffffffffff1673ffffffffffffffffffffffffffffffffffffffff1681526020019081526020016000206000815480929190600101919050555080600660003373ffffffffffffffffffffffffffffffffffffffff1673ffffffffffffffffffffffffffffffffffffffff168152602001908152602001600020600082825401925050819055508060066000600560009054906101000a900473ffffffffffffffffffffffffffffffffffffffff1673ffffffffffffffffffffffffffffffffffffffff1673ffffffffffffffffffffffffffffffffffffffff16815260200190815260200160002060008282540392505081905550806001600082825401925050819055503373ffffffffffffffffffffffffffffffffffffffff16600560009054906101000a900473ffffffffffffffffffffffffffffffffffffffff1673ffffffffffffffffffffffffffffffffffffffff167fddf252ad1be2c89b69c2b068fc378daa952ba7f163c4a11628f55a4df523b3ef836040516129c19190614544565b60405180910390a350565b80601360003373ffffffffffffffffffffffffffffffffffffffff1673ffffffffffffffffffffffffffffffffffffffff1681526020019081526020016000208190555050565b80600860000160008481526020019081526020016000206001019080519060200190612a40929190613c16565b505050565b612a4d613c96565b610140604051908101604052808d81526020018c81526020018b81526020018a815260200189815260200188815260200187815260200186815260200185815260200184815250905080600860010160008481526020019081526020016000206000820151816000019080519060200190612ac9929190613cea565b506020820151816001019080519060200190612ae6929190613cea565b506040820151816002019080519060200190612b03929190613cea565b506060820151816003019080519060200190612b20929190613cea565b506080820151816004019080519060200190612b3d929190613cea565b5060a0820151816005019080519060200190612b5a929190613cea565b5060c0820151816006019080519060200190612b77929190613cea565b5060e0820151816007019080519060200190612b94929190613cea565b506101008201518160080155610120820151816009019080519060200190612bbd929190613cea565b509050506040805190810160405280600181526020017f3000000000000000000000000000000000000000000000000000000000000000815250600860000160008481526020019081526020016000206001019080519060200190612c23929190613c16565b50336008600001600084815260200190815260200160002060030160006101000a81548173ffffffffffffffffffffffffffffffffffffffff021916908373ffffffffffffffffffffffffffffffffffffffff160217905550600c60003373ffffffffffffffffffffffffffffffffffffffff1673ffffffffffffffffffffffffffffffffffffffff168152602001908152602001600020829080600181540180825580915050906001820390600052602060002001600090919290919091505550600b60008154809291906001019190505550505050505050505050505050565b6000600154905090565b60606019600001805480602002602001604051908101604052809291908181526020018280548015612d6057602002820191906000526020600020905b815481526020019060010190808311612d4c575b5050505050905090565b612d72613d6a565b610100604051908101604052808b81526020018a815260200189815260200188815260200187815260200186815260200185815260200184815250905080600860020160008481526020019081526020016000206000820151816000019080519060200190612de2929190613cea565b506020820151816001019080519060200190612dff929190613cea565b506040820151816002019080519060200190612e1c929190613cea565b506060820151816003019080519060200190612e39929190613cea565b506080820151816004019080519060200190612e56929190613cea565b5060a0820151816005019080519060200190612e73929190613cea565b5060c0820151816006019080519060200190612e90929190613cea565b5060e0820151816007019080519060200190612ead929190613cea565b5090505050505050505050505050565b600060176000838152602001908152602001600020600101549050919050565b60008060008091506000905060016017600087815260200190815260200160002060000160003373ffffffffffffffffffffffffffffffffffffffff1673ffffffffffffffffffffffffffffffffffffffff168152602001908152602001600020541415612f4a57600080fd5b6001601460003373ffffffffffffffffffffffffffffffffffffffff1673ffffffffffffffffffffffffffffffffffffffff16815260200190815260200160002060008282540392505081905550601860008681526020019081526020016000203390806001815401808255809150509060018203906000526020600020016000909192909190916101000a81548173ffffffffffffffffffffffffffffffffffffffff021916908373ffffffffffffffffffffffffffffffffffffffff160217905550506001601760008781526020019081526020016000206001016000828254019250508190555083601760008781526020019081526020016000206002016000828254019250508190555060016017600087815260200190815260200160002060000160003373ffffffffffffffffffffffffffffffffffffffff1673ffffffffffffffffffffffffffffffffffffffff1681526020019081526020016000208190555060056017600087815260200190815260200160002060010154141561323c576101f46008600101600087815260200190815260200160002060080154029150601760008681526020019081526020016000206002015490506040805190810160405280600181526020017f330000000000000000000000000000000000000000000000000000000000000081525060086000016000878152602001908152602001600020600101908051906020019061316b929190613c16565b50605f81028211156131ea57606981028210156131985761318f856064600061383a565b6000925061323d565b6005818115156131a457fe5b0460086001016000878152602001908152602001600020600801819055506131e1856131d76131d288610f71565b6134f0565b600202600161383a565b6001925061323d565b6005818115156131f657fe5b0460086001016000878152602001908152602001600020600801819055506132338561322961322488610f71565b6134f0565b600202600161383a565b6001925061323d565b5b505092915050565b81600660003373ffffffffffffffffffffffffffffffffffffffff1673ffffffffffffffffffffffffffffffffffffffff168152602001908152602001600020541015151561329357600080fd5b600760003373ffffffffffffffffffffffffffffffffffffffff1673ffffffffffffffffffffffffffffffffffffffff168152602001908152602001600020600081548092919060010191905055508160066000600560009054906101000a900473ffffffffffffffffffffffffffffffffffffffff1673ffffffffffffffffffffffffffffffffffffffff1673ffffffffffffffffffffffffffffffffffffffff1681526020019081526020016000206000828254019250508190555081600660003373ffffffffffffffffffffffffffffffffffffffff1673ffffffffffffffffffffffffffffffffffffffff16815260200190815260200160002060008282540392505081905550816001600082825403925050819055503373ffffffffffffffffffffffffffffffffffffffff166108fc829081150290604051600060405180830381858888f193505050501580156133f4573d6000803e3d6000fd5b50600560009054906101000a900473ffffffffffffffffffffffffffffffffffffffff1673ffffffffffffffffffffffffffffffffffffffff163373ffffffffffffffffffffffffffffffffffffffff167fddf252ad1be2c89b69c2b068fc378daa952ba7f163c4a11628f55a4df523b3ef846040516134749190614544565b60405180910390a35050565b600060086001016000838152602001908152602001600020600801549050919050565b600080600f60003373ffffffffffffffffffffffffffffffffffffffff1673ffffffffffffffffffffffffffffffffffffffff168152602001908152602001600020819055506001905090565b60006064601360008473ffffffffffffffffffffffffffffffffffffffff1673ffffffffffffffffffffffffffffffffffffffff16815260200190815260200160002054101515613585576064601360008473ffffffffffffffffffffffffffffffffffffffff1673ffffffffffffffffffffffffffffffffffffffff1681526020019081526020016000205403905061358a565b600090505b919050565b60003073ffffffffffffffffffffffffffffffffffffffff1631905090565b60006135b9336134f0565b90508160086001016000858152602001908152602001600020600801819055506040805190810160405280600181526020017f310000000000000000000000000000000000000000000000000000000000000081525060086000016000858152602001908152602001600020600101908051906020019061363b929190613c16565b5061364783600061222b565b61365133826139f8565b3373ffffffffffffffffffffffffffffffffffffffff166108fc826064039081150290604051600060405180830381858888f1935050505015801561369a573d6000803e3d6000fd5b506136a6601984613ac8565b505050565b6060600c60003373ffffffffffffffffffffffffffffffffffffffff1673ffffffffffffffffffffffffffffffffffffffff16815260200190815260200160002080548060200260200160405190810160405280929190818152602001828054801561373657602002820191906000526020600020905b815481526020019060010190808311613722575b5050505050905090565b6000600f60003373ffffffffffffffffffffffffffffffffffffffff1673ffffffffffffffffffffffffffffffffffffffff16815260200190815260200160002054905090565b600081600301549050919050565b806008600001600084815260200190815260200160002060020160006101000a81548173ffffffffffffffffffffffffffffffffffffffff021916908373ffffffffffffffffffffffffffffffffffffffff1602179055505050565b6000600660008373ffffffffffffffffffffffffffffffffffffffff1673ffffffffffffffffffffffffffffffffffffffff168152602001908152602001600020549050919050565b6000613844613db0565b61384c613db0565b613854613dd3565b6000809450600090505b600581101561395257601860008981526020019081526020016000208181548110151561388757fe5b9060005260206000200160009054906101000a900473ffffffffffffffffffffffffffffffffffffffff1682826005811015156138c057fe5b602002019073ffffffffffffffffffffffffffffffffffffffff16908173ffffffffffffffffffffffffffffffffffffffff1681525050613912828260058110151561390857fe5b60200201516137f1565b8160050302848260058110151561392557fe5b602002018181525050838160058110151561393c57fe5b602002015185019450808060010191505061385e565b600090505b60058110156139d25784848260058110151561396f57fe5b602002015181151561397d57fe5b048702838260058110151561398e57fe5b6020020181815250506139c582826005811015156139a857fe5b602002015184836005811015156139bb57fe5b60200201516139f8565b8080600101915050613957565b60018614156139ee576139ed6139e789610f71565b88613b46565b5b5050505050505050565b80600660008473ffffffffffffffffffffffffffffffffffffffff1673ffffffffffffffffffffffffffffffffffffffff168152602001908152602001600020600082825401925050819055508060066000600560009054906101000a900473ffffffffffffffffffffffffffffffffffffffff1673ffffffffffffffffffffffffffffffffffffffff1673ffffffffffffffffffffffffffffffffffffffff16815260200190815260200160002060008282540392505081905550806001600082825401925050819055505050565b81600101546012546001846002015401811515613ae157fe5b061415613aed57613b42565b80826000018360020154815481101515613b0357fe5b9060005260206000200181905550600182600301600082825401925050819055506012546001836002015401811515613b3857fe5b0682600201819055505b5050565b80600660008473ffffffffffffffffffffffffffffffffffffffff1673ffffffffffffffffffffffffffffffffffffffff168152602001908152602001600020600082825403925050819055508060066000600560009054906101000a900473ffffffffffffffffffffffffffffffffffffffff1673ffffffffffffffffffffffffffffffffffffffff1673ffffffffffffffffffffffffffffffffffffffff16815260200190815260200160002060008282540192505081905550806001600082825403925050819055505050565b828054600181600116156101000203166002900490600052602060002090601f016020900481019282601f10613c5757805160ff1916838001178555613c85565b82800160010185558215613c85579182015b82811115613c84578251825591602001919060010190613c69565b5b509050613c929190613df6565b5090565b61014060405190810160405280606081526020016060815260200160608152602001606081526020016060815260200160608152602001606081526020016060815260200160008152602001606081525090565b828054600181600116156101000203166002900490600052602060002090601f016020900481019282601f10613d2b57805160ff1916838001178555613d59565b82800160010185558215613d59579182015b82811115613d58578251825591602001919060010190613d3d565b5b509050613d669190613df6565b5090565b6101006040519081016040528060608152602001606081526020016060815260200160608152602001606081526020016060815260200160608152602001606081525090565b60a060405190810160405280600590602082028038833980820191505090505090565b60a060405190810160405280600590602082028038833980820191505090505090565b613e1891905b80821115613e14576000816000905550600101613dfc565b5090565b90565b6000613e278235614637565b905092915050565b600082601f8301121515613e4257600080fd5b8135613e55613e508261458c565b61455f565b91508082526020830160208301858383011115613e7157600080fd5b613e7c838284614661565b50505092915050565b6000613e918235614657565b905092915050565b600060208284031215613eab57600080fd5b6000613eb984828501613e1b565b91505092915050565b60008060008060008060008060006101208a8c031215613ee157600080fd5b60008a013567ffffffffffffffff811115613efb57600080fd5b613f078c828d01613e2f565b99505060208a013567ffffffffffffffff811115613f2457600080fd5b613f308c828d01613e2f565b98505060408a013567ffffffffffffffff811115613f4d57600080fd5b613f598c828d01613e2f565b97505060608a013567ffffffffffffffff811115613f7657600080fd5b613f828c828d01613e2f565b96505060808a013567ffffffffffffffff811115613f9f57600080fd5b613fab8c828d01613e2f565b95505060a08a013567ffffffffffffffff811115613fc857600080fd5b613fd48c828d01613e2f565b94505060c08a013567ffffffffffffffff811115613ff157600080fd5b613ffd8c828d01613e2f565b93505060e08a013567ffffffffffffffff81111561401a57600080fd5b6140268c828d01613e2f565b9250506101006140388c828d01613e85565b9150509295985092959850929598565b60008060008060008060008060008060006101608c8e03121561406a57600080fd5b60008c013567ffffffffffffffff81111561408457600080fd5b6140908e828f01613e2f565b9b505060208c013567ffffffffffffffff8111156140ad57600080fd5b6140b98e828f01613e2f565b9a505060408c013567ffffffffffffffff8111156140d657600080fd5b6140e28e828f01613e2f565b99505060608c013567ffffffffffffffff8111156140ff57600080fd5b61410b8e828f01613e2f565b98505060808c013567ffffffffffffffff81111561412857600080fd5b6141348e828f01613e2f565b97505060a08c013567ffffffffffffffff81111561415157600080fd5b61415d8e828f01613e2f565b96505060c08c013567ffffffffffffffff81111561417a57600080fd5b6141868e828f01613e2f565b95505060e08c013567ffffffffffffffff8111156141a357600080fd5b6141af8e828f01613e2f565b9450506101006141c18e828f01613e85565b9350506101208c013567ffffffffffffffff8111156141df57600080fd5b6141eb8e828f01613e2f565b9250506101406141fd8e828f01613e85565b9150509295989b509295989b9093969950565b60006020828403121561422257600080fd5b600061423084828501613e85565b91505092915050565b60008060008060008060c0878903121561425257600080fd5b600061426089828a01613e85565b965050602061427189828a01613e1b565b955050604061428289828a01613e1b565b945050606061429389828a01613e1b565b93505060806142a489828a01613e1b565b92505060a06142b589828a01613e1b565b9150509295509295509295565b600080604083850312156142d557600080fd5b60006142e385828601613e85565b925050602083013567ffffffffffffffff81111561430057600080fd5b61430c85828601613e2f565b9150509250929050565b6000806040838503121561432957600080fd5b600061433785828601613e85565b925050602061434885828601613e85565b9150509250929050565b60008060006060848603121561436757600080fd5b600061437586828701613e85565b935050602061438686828701613e85565b925050604084013567ffffffffffffffff8111156143a357600080fd5b6143af86828701613e2f565b9150509250925092565b6143c28161460d565b82525050565b60006143d3826145d2565b8084526020840193506143e5836145b8565b60005b82811015614417576143fb8683516143b9565b614404826145f3565b91506020860195506001810190506143e8565b50849250505092915050565b600061442e826145dd565b808452602084019350614440836145c5565b60005b82811015614472576144568683516144b4565b61445f82614600565b9150602086019550600181019050614443565b50849250505092915050565b6000614489826145e8565b80845261449d816020860160208601614670565b6144a6816146a3565b602085010191505092915050565b6144bd8161462d565b82525050565b60006020820190506144d860008301846143b9565b92915050565b600060208201905081810360008301526144f881846143c8565b905092915050565b6000602082019050818103600083015261451a8184614423565b905092915050565b6000602082019050818103600083015261453c818461447e565b905092915050565b600060208201905061455960008301846144b4565b92915050565b6000604051905081810181811067ffffffffffffffff8211171561458257600080fd5b8060405250919050565b600067ffffffffffffffff8211156145a357600080fd5b601f19601f8301169050602081019050919050565b6000602082019050919050565b6000602082019050919050565b600081519050919050565b600081519050919050565b600081519050919050565b6000602082019050919050565b6000602082019050919050565b600073ffffffffffffffffffffffffffffffffffffffff82169050919050565b6000819050919050565b600073ffffffffffffffffffffffffffffffffffffffff82169050919050565b6000819050919050565b82818337600083830152505050565b60005b8381101561468e578082015181840152602081019050614673565b8381111561469d576000848401525b50505050565b6000601f19601f83011690509190505600a265627a7a723058202036d95e4b9839104dc86b21210f687b90be072cb922addc6fd09befba6d1eb96c6578706572696d656e74616cf50037",
  "source": "pragma solidity ^0.4.24;\npragma experimental ABIEncoderV2;\n\nimport \"./assign.sol\";\n\ncontract demo is assign{\n    mapping(uint => uint) backrecord;\n    /*****************************/\n    /*****************************/\n    /**\n     * guobin\n     * \n    */\n    function addvaluation(\n        string memory Frame_number,             //\n        string memory Number_plate,             //\n        string memory Vehicle_type,             //\n        string memory Brand_number,             //\n        string memory car_displacement,         //L\n        string memory approval_passengers,      //\n        string memory Engine_number,            //\n        string memory Manufacture_date,         //\n        uint          Evaluation,               //\n        string memory Timestammp,               //\n        uint evaluation_index                   //(js,ipfs,)\n        ) public {\n        _addvaluation(Frame_number,Number_plate,Vehicle_type,Brand_number,car_displacement,approval_passengers,Engine_number,Manufacture_date,Evaluation,Timestammp,evaluation_index); //\n    }\n\n    /**\n     * guobin\n     * \n    */\n    function addphoto(\n        string memory photo1,\n        string memory photo2,\n        string memory photo3,\n        string memory photo4,\n        string memory photo5,\n        string memory photo6,\n        string memory photo7,\n        string memory photo8,\n        uint evaluation_index\n    ) public payable {\n        _addphoto(photo1,photo2,photo3,photo4,photo5,photo6,photo7,photo8,evaluation_index);\n        distribution(evaluation_index,statistic(0));             //\n    }\n\n    /**\n     * guobin\n     * \n    */\n    function backordernumber() view public returns (uint) {\n        return _backordernumber();\n    }\n\n\n    /**\n     * guobin\n     * \n    */\n    function backwork(uint evaluation_index) public {\n        if(checkbackstate(evaluation_index) == 1) {\n            finishwork(evaluation_index,1);\n        }\n        else {\n            finishwork(evaluation_index,0);\n            distribution(evaluation_index,statistic(1));             //\n            backrecord[evaluation_index] += 1;\n            _getcreator(evaluation_index).transfer(100);\n        }\n    }\n\n    /**\n     * guobin\n     * \n    */\n    function checkbackstate(uint evaluation_index) internal view returns (uint) {\n        return backrecord[evaluation_index];\n    }\n\n    /**\n     * guobin\n     * \n    */\n    function evaluate(uint index,uint value) public {\n        _evaluate(index,value);\n    }\n\n    /**\n     * guobin\n     * \n    */\n    function backvaluation() view public returns (uint[]) {\n        return _backvaluation();\n    }\n\n    /**\n     * guobin\n     * \n    */\n    function setstate(uint index,string condition) public {\n        _setstate(index,condition);\n    }\n\n    /**\n     * guobin\n     * \n    */\n    function displayvalue(uint index) view public returns (uint) {\n        return _displayvalue(index);\n    }\n\n    /**\n     * guobin\n     * \n    */\n    function displayinfo(uint index,uint num) view public returns (string) {\n        return _displayinfo(index,num);\n    }\n\n    /**\n     * guobin\n     * \n    */\n    function getcreator(uint index) view public returns(address) {\n        return _getcreator(index);\n    }\n\n    /**\n     * guobin\n     * \n    */\n    function getassessor(uint index) view public returns(address) {\n        return _getassessor(index);\n    }\n\n    /*****************************/\n    /**\n     * guobin\n     * \n    */\n    function buy(uint amount) public payable {\n        _buy(amount);\n    }\n    \n    /**\n     * guobin\n     * \n    */\n    function sell(uint256 amount,uint256 eth_amount) public payable {\n        _sell(amount,eth_amount);\n    }\n\n    /**\n     * guobin\n     * \n    */\n    function displaybalance() view public returns (uint256) {\n        return _displaybalance();\n    } \n\n    /**\n     * guobin\n     * \n    */\n    function displayethbalance() view public returns (uint256) {\n        return _displayethbalance();\n    } \n\n    /**\n     * guobin\n     * \n    */\n    function displayaccount() view public returns (uint256) {\n        return _displayaccount();\n    } \n\n    /**\n     * guobin\n     * \n    */\n    function displayaccountforarbitrage(address send) public view returns (uint) {\n        return calc(send,1);\n    }\n\n    /**\n     * guobin\n     * \n    */\n    function displaytoken() view public returns (uint256) {\n        return _displaytoken();\n    } \n\n    /**\n     * guobin\n     * \n    */\n    function distranumber() view public returns (uint256) {\n        return _distranumber();\n    } \n\n    /**\n     * guobin\n     * \n    */\n    function displaycreate() view public returns (uint) {\n        return _displaycreate();\n    }\n\n    /**\n     * guobin\n     * \n    */\n    function displaywork() view public returns (uint) {\n        return _displaywork();\n    }\n\n\n\n    /*****************************/\n    /**\n     * guobin\n     * \n    */\n    function registertest(uint amount,uint scale,string logintime) public payable {          \n        _registertest(logintime);\n        _buy(amount);\n        _Enter_quote(scale);\n    }\n\n    /**\n     * guobin\n     * \n    */\n    function Enter_quote(uint value) public {                               \n        _Enter_quote(value);\n    }\n\n    /**\n     * guobin\n     * \n    */\n    function check_quote() public view returns (uint) {\n        return _check_quote(msg.sender);\n    }\n\n    /**\n     * guobin\n     * \n    */\n    function checktime() view public returns (string) {                       \n        return _checktime();\n    }\n    \n    /**\n     * guobin\n     * 10\n    */\n    function checkuser() view public returns (uint) {                       \n        return _checkuser();\n    }\n\n    /**\n     * guobin\n     * \n    */\n    function unregister() public {                                          \n        _unregister();\n    }\n\n    /**\n     * guobin\n     * \n    */\n    function backofwork() view public returns (address[]) {\n        return _backofwork();\n    }\n\n    /**\n     * guobin\n     * \n    */\n    function backvalnumber() view public returns (uint[]) {\n        return _backvalnumber();\n    }\n\n\n    /*****************************/\n    /**\n     * guobin\n     * \n    */\n    function backappnumber() view public returns (uint[]) {\n        return _backappnumber();\n    }\n\n    /**\n     * guobin\n     * \n    */\n    function appealdistribution(uint number,address appeal1,address appeal2,address appeal3,address appeal4,address appeal5) public {\n        _appealdistribution(number,appeal1,appeal2,appeal3,appeal4,appeal5);\n        _setappeal(_getcreator(number),_getassessor(number));\n    }\n\n    /**\n     * guobin\n     * \n    */\n    function appealesituation(uint index) public view  returns (uint) {\n        _appealesituation(index);\n    }\n\n    /**\n     * guobin\n     * \n    */\n    function appealevaluate(uint index,uint value) public {\n        _appealevaluate(index,value);\n    }\n\n    /**\n     * guobin\n     * \n    */\n    function appealeschedule(uint index) public view returns (uint) {\n        return _appealeschedule(index);\n    }\n\n    /**\n     * guobin\n     * \n    */\n    function backLeaderboard() public view returns (uint[]) {\n        return _backLeaderboard();\n    }\n\n    /**\n     * guobin\n     * \n    */\n    function backLength() public view returns (uint) {\n        return _backLength();\n    }\n}\n",
  "sourcePath": "/blockpro/evaluation-system/contracts/demo.sol",
  "compiler": {
    "name": "solc",
    "version": "0.4.24+commit.e67f0147.Emscripten.clang"
  },
  "schemaVersion": "2.0.1",
  "updatedAt": "2019-06-21T09:15:02.339Z"
}