{
  "contractName": "demo",
  "abi": [
    {
      "anonymous": false,
      "inputs": [
        {
          "indexed": true,
          "name": "from",
          "type": "address"
        },
        {
          "indexed": true,
          "name": "to",
          "type": "address"
        },
        {
          "indexed": false,
          "name": "value",
          "type": "uint256"
        }
      ],
      "name": "Transfer",
      "type": "event"
    },
    {
      "anonymous": false,
      "inputs": [
        {
          "indexed": true,
          "name": "to",
          "type": "address"
        },
        {
          "indexed": false,
          "name": "value",
          "type": "uint256"
        }
      ],
      "name": "Reward",
      "type": "event"
    },
    {
      "anonymous": false,
      "inputs": [
        {
          "indexed": true,
          "name": "to",
          "type": "address"
        },
        {
          "indexed": false,
          "name": "value",
          "type": "uint256"
        }
      ],
      "name": "Punishment",
      "type": "event"
    },
    {
      "constant": false,
      "inputs": [
        {
          "name": "Frame_number",
          "type": "string"
        },
        {
          "name": "Number_plate",
          "type": "string"
        },
        {
          "name": "Vehicle_type",
          "type": "string"
        },
        {
          "name": "Brand_number",
          "type": "string"
        },
        {
          "name": "car_displacement",
          "type": "string"
        },
        {
          "name": "approval_passengers",
          "type": "string"
        },
        {
          "name": "Engine_number",
          "type": "string"
        },
        {
          "name": "Manufacture_date",
          "type": "string"
        },
        {
          "name": "Evaluation",
          "type": "uint256"
        },
        {
          "name": "Timestammp",
          "type": "string"
        },
        {
          "name": "evaluation_index",
          "type": "uint256"
        }
      ],
      "name": "addvaluation",
      "outputs": [],
      "payable": false,
      "stateMutability": "nonpayable",
      "type": "function"
    },
    {
      "constant": false,
      "inputs": [
        {
          "name": "photo1",
          "type": "string"
        },
        {
          "name": "photo2",
          "type": "string"
        },
        {
          "name": "photo3",
          "type": "string"
        },
        {
          "name": "photo4",
          "type": "string"
        },
        {
          "name": "photo5",
          "type": "string"
        },
        {
          "name": "photo6",
          "type": "string"
        },
        {
          "name": "photo7",
          "type": "string"
        },
        {
          "name": "photo8",
          "type": "string"
        },
        {
          "name": "evaluation_index",
          "type": "uint256"
        }
      ],
      "name": "addphoto",
      "outputs": [],
      "payable": true,
      "stateMutability": "payable",
      "type": "function"
    },
    {
      "constant": true,
      "inputs": [],
      "name": "backordernumber",
      "outputs": [
        {
          "name": "",
          "type": "uint256"
        }
      ],
      "payable": false,
      "stateMutability": "view",
      "type": "function"
    },
    {
      "constant": false,
      "inputs": [
        {
          "name": "evaluation_index",
          "type": "uint256"
        }
      ],
      "name": "backwork",
      "outputs": [],
      "payable": false,
      "stateMutability": "nonpayable",
      "type": "function"
    },
    {
      "constant": false,
      "inputs": [
        {
          "name": "index",
          "type": "uint256"
        },
        {
          "name": "value",
          "type": "uint256"
        }
      ],
      "name": "evaluate",
      "outputs": [],
      "payable": false,
      "stateMutability": "nonpayable",
      "type": "function"
    },
    {
      "constant": true,
      "inputs": [],
      "name": "backvaluation",
      "outputs": [
        {
          "name": "",
          "type": "uint256[]"
        }
      ],
      "payable": false,
      "stateMutability": "view",
      "type": "function"
    },
    {
      "constant": false,
      "inputs": [
        {
          "name": "index",
          "type": "uint256"
        },
        {
          "name": "condition",
          "type": "string"
        }
      ],
      "name": "setstate",
      "outputs": [],
      "payable": false,
      "stateMutability": "nonpayable",
      "type": "function"
    },
    {
      "constant": true,
      "inputs": [
        {
          "name": "index",
          "type": "uint256"
        }
      ],
      "name": "displayvalue",
      "outputs": [
        {
          "name": "",
          "type": "uint256"
        }
      ],
      "payable": false,
      "stateMutability": "view",
      "type": "function"
    },
    {
      "constant": true,
      "inputs": [
        {
          "name": "index",
          "type": "uint256"
        },
        {
          "name": "num",
          "type": "uint256"
        }
      ],
      "name": "displayinfo",
      "outputs": [
        {
          "name": "",
          "type": "string"
        }
      ],
      "payable": false,
      "stateMutability": "view",
      "type": "function"
    },
    {
      "constant": true,
      "inputs": [
        {
          "name": "index",
          "type": "uint256"
        }
      ],
      "name": "getcreator",
      "outputs": [
        {
          "name": "",
          "type": "address"
        }
      ],
      "payable": false,
      "stateMutability": "view",
      "type": "function"
    },
    {
      "constant": true,
      "inputs": [
        {
          "name": "index",
          "type": "uint256"
        }
      ],
      "name": "getassessor",
      "outputs": [
        {
          "name": "",
          "type": "address"
        }
      ],
      "payable": false,
      "stateMutability": "view",
      "type": "function"
    },
    {
      "constant": false,
      "inputs": [
        {
          "name": "amount",
          "type": "uint256"
        }
      ],
      "name": "buy",
      "outputs": [],
      "payable": true,
      "stateMutability": "payable",
      "type": "function"
    },
    {
      "constant": false,
      "inputs": [
        {
          "name": "amount",
          "type": "uint256"
        },
        {
          "name": "eth_amount",
          "type": "uint256"
        }
      ],
      "name": "sell",
      "outputs": [],
      "payable": true,
      "stateMutability": "payable",
      "type": "function"
    },
    {
      "constant": true,
      "inputs": [],
      "name": "displaybalance",
      "outputs": [
        {
          "name": "",
          "type": "uint256"
        }
      ],
      "payable": false,
      "stateMutability": "view",
      "type": "function"
    },
    {
      "constant": true,
      "inputs": [],
      "name": "displayethbalance",
      "outputs": [
        {
          "name": "",
          "type": "uint256"
        }
      ],
      "payable": false,
      "stateMutability": "view",
      "type": "function"
    },
    {
      "constant": true,
      "inputs": [],
      "name": "displayaccount",
      "outputs": [
        {
          "name": "",
          "type": "uint256"
        }
      ],
      "payable": false,
      "stateMutability": "view",
      "type": "function"
    },
    {
      "constant": true,
      "inputs": [
        {
          "name": "send",
          "type": "address"
        }
      ],
      "name": "displayaccountforarbitrage",
      "outputs": [
        {
          "name": "",
          "type": "uint256"
        }
      ],
      "payable": false,
      "stateMutability": "view",
      "type": "function"
    },
    {
      "constant": true,
      "inputs": [],
      "name": "displaytoken",
      "outputs": [
        {
          "name": "",
          "type": "uint256"
        }
      ],
      "payable": false,
      "stateMutability": "view",
      "type": "function"
    },
    {
      "constant": true,
      "inputs": [],
      "name": "distranumber",
      "outputs": [
        {
          "name": "",
          "type": "uint256"
        }
      ],
      "payable": false,
      "stateMutability": "view",
      "type": "function"
    },
    {
      "constant": true,
      "inputs": [],
      "name": "displaycreate",
      "outputs": [
        {
          "name": "",
          "type": "uint256"
        }
      ],
      "payable": false,
      "stateMutability": "view",
      "type": "function"
    },
    {
      "constant": true,
      "inputs": [],
      "name": "displaywork",
      "outputs": [
        {
          "name": "",
          "type": "uint256"
        }
      ],
      "payable": false,
      "stateMutability": "view",
      "type": "function"
    },
    {
      "constant": false,
      "inputs": [
        {
          "name": "amount",
          "type": "uint256"
        },
        {
          "name": "scale",
          "type": "uint256"
        },
        {
          "name": "logintime",
          "type": "string"
        }
      ],
      "name": "registertest",
      "outputs": [],
      "payable": true,
      "stateMutability": "payable",
      "type": "function"
    },
    {
      "constant": false,
      "inputs": [
        {
          "name": "value",
          "type": "uint256"
        }
      ],
      "name": "Enter_quote",
      "outputs": [],
      "payable": false,
      "stateMutability": "nonpayable",
      "type": "function"
    },
    {
      "constant": true,
      "inputs": [],
      "name": "check_quote",
      "outputs": [
        {
          "name": "",
          "type": "uint256"
        }
      ],
      "payable": false,
      "stateMutability": "view",
      "type": "function"
    },
    {
      "constant": true,
      "inputs": [],
      "name": "checktime",
      "outputs": [
        {
          "name": "",
          "type": "string"
        }
      ],
      "payable": false,
      "stateMutability": "view",
      "type": "function"
    },
    {
      "constant": true,
      "inputs": [],
      "name": "checkuser",
      "outputs": [
        {
          "name": "",
          "type": "uint256"
        }
      ],
      "payable": false,
      "stateMutability": "view",
      "type": "function"
    },
    {
      "constant": false,
      "inputs": [],
      "name": "unregister",
      "outputs": [],
      "payable": false,
      "stateMutability": "nonpayable",
      "type": "function"
    },
    {
      "constant": true,
      "inputs": [],
      "name": "backofwork",
      "outputs": [
        {
          "name": "",
          "type": "address[]"
        }
      ],
      "payable": false,
      "stateMutability": "view",
      "type": "function"
    },
    {
      "constant": true,
      "inputs": [],
      "name": "backvalnumber",
      "outputs": [
        {
          "name": "",
          "type": "uint256[]"
        }
      ],
      "payable": false,
      "stateMutability": "view",
      "type": "function"
    },
    {
      "constant": true,
      "inputs": [],
      "name": "backappnumber",
      "outputs": [
        {
          "name": "",
          "type": "uint256[]"
        }
      ],
      "payable": false,
      "stateMutability": "view",
      "type": "function"
    },
    {
      "constant": false,
      "inputs": [
        {
          "name": "number",
          "type": "uint256"
        },
        {
          "name": "appeal1",
          "type": "address"
        },
        {
          "name": "appeal2",
          "type": "address"
        },
        {
          "name": "appeal3",
          "type": "address"
        },
        {
          "name": "appeal4",
          "type": "address"
        },
        {
          "name": "appeal5",
          "type": "address"
        }
      ],
      "name": "appealdistribution",
      "outputs": [],
      "payable": false,
      "stateMutability": "nonpayable",
      "type": "function"
    },
    {
      "constant": true,
      "inputs": [
        {
          "name": "index",
          "type": "uint256"
        }
      ],
      "name": "appealesituation",
      "outputs": [
        {
          "name": "",
          "type": "uint256"
        }
      ],
      "payable": false,
      "stateMutability": "view",
      "type": "function"
    },
    {
      "constant": false,
      "inputs": [
        {
          "name": "index",
          "type": "uint256"
        },
        {
          "name": "value",
          "type": "uint256"
        }
      ],
      "name": "appealevaluate",
      "outputs": [],
      "payable": false,
      "stateMutability": "nonpayable",
      "type": "function"
    },
    {
      "constant": true,
      "inputs": [
        {
          "name": "index",
          "type": "uint256"
        }
      ],
      "name": "appealeschedule",
      "outputs": [
        {
          "name": "",
          "type": "uint256"
        }
      ],
      "payable": false,
      "stateMutability": "view",
      "type": "function"
    },
    {
      "constant": true,
      "inputs": [],
      "name": "backLeaderboard",
      "outputs": [
        {
          "name": "",
          "type": "uint256[]"
        }
      ],
      "payable": false,
      "stateMutability": "view",
      "type": "function"
    },
    {
      "constant": true,
      "inputs": [],
      "name": "backLength",
      "outputs": [
        {
          "name": "",
          "type": "uint256"
        }
      ],
      "payable": false,
      "stateMutability": "view",
      "type": "function"
    }
  ],
  "bytecode": "0x60806040526040805190810160405280600981526020017f546f6b656e20312e3000000000000000000000000000000000000000000000008152506002908051906020019062000051929190620001bf565b506001600b5560656012556305f5e100600660003373ffffffffffffffffffffffffffffffffffffffff1673ffffffffffffffffffffffffffffffffffffffff168152602001908152602001600020819055506040805190810160405280600981526020017f746f6b656e4e616d65000000000000000000000000000000000000000000000081525060039080519060200190620000f1929190620001bf565b506040805190810160405280600b81526020017f746f6b656e53796d626f6c000000000000000000000000000000000000000000815250600490805190602001906200013f929190620001bf565b5033600560006101000a81548173ffffffffffffffffffffffffffffffffffffffff021916908373ffffffffffffffffffffffffffffffffffffffff16021790555060016000806101000a81548160ff021916908360ff160217905550602860018190555060c8601960000181620001b8919062000246565b506200029d565b828054600181600116156101000203166002900490600052602060002090601f016020900481019282601f106200020257805160ff191683800117855562000233565b8280016001018555821562000233579182015b828111156200023257825182559160200191906001019062000215565b5b50905062000242919062000275565b5090565b81548183558181111562000270578183600052602060002091820191016200026f919062000275565b5b505050565b6200029a91905b80821115620002965760008160009055506001016200027c565b5090565b90565b61471a80620002ad6000396000f3006080604052600436106101c2576000357c0100000000000000000000000000000000000000000000000000000000900463ffffffff16806309afc910146101c75780631304b5b7146101f257806315596e5b146102bf57806320d3a89f1461032b578063216573a014610356578063266de1e01461038157806330e83d2d14610411578063369236e21461043c578063374d91d21461047d5780634245369e146104a857806343b851a01461055857806344373603146105c457806362c61f34146105ef578063684ce2e51461065b578063718d70fa14610688578063835499c9146106df5780638c4f89d81461070a5780638c9ab83c1461077a5780639c16a16b146107ed578063a4d2ce0014610a9a578063a603399614610ac5578063b03ca15614610b31578063b99fc10a14610b9e578063c5f4f12a14610dee578063cbb4cee414610e1b578063d67ee2ae14610e5c578063d79875eb14610e93578063d96a094a14610ebd578063dcd1501714610edd578063e6615a0d14610f1e578063e79a198f14610f8b578063f2ad521b14610fa2578063f363e61314610fcd578063f97445a914610ff8578063fc8ee8a91461102f578063fe8301451461109b575b600080fd5b3480156101d357600080fd5b506101dc6110c6565b6040518082815260200191505060405180910390f35b3480156101fe57600080fd5b506102bd60048036038101908080359060200190929190803573ffffffffffffffffffffffffffffffffffffffff169060200190929190803573ffffffffffffffffffffffffffffffffffffffff169060200190929190803573ffffffffffffffffffffffffffffffffffffffff169060200190929190803573ffffffffffffffffffffffffffffffffffffffff169060200190929190803573ffffffffffffffffffffffffffffffffffffffff1690602001909291905050506110d5565b005b3480156102cb57600080fd5b506102d4611105565b6040518080602001828103825283818151815260200191508051906020019060200280838360005b838110156103175780820151818401526020810190506102fc565b505050509050019250505060405180910390f35b34801561033757600080fd5b50610340611114565b6040518082815260200191505060405180910390f35b34801561036257600080fd5b5061036b611123565b6040518082815260200191505060405180910390f35b34801561038d57600080fd5b50610396611132565b6040518080602001828103825283818151815260200191508051906020019080838360005b838110156103d65780820151818401526020810190506103bb565b50505050905090810190601f1680156104035780820380516001836020036101000a031916815260200191505b509250505060405180910390f35b34801561041d57600080fd5b50610426611141565b6040518082815260200191505060405180910390f35b34801561044857600080fd5b5061046760048036038101908080359060200190929190505050611150565b6040518082815260200191505060405180910390f35b34801561048957600080fd5b50610492611161565b6040518082815260200191505060405180910390f35b3480156104b457600080fd5b506104dd6004803603810190808035906020019092919080359060200190929190505050611170565b6040518080602001828103825283818151815260200191508051906020019080838360005b8381101561051d578082015181840152602081019050610502565b50505050905090810190601f16801561054a5780820380516001836020036101000a031916815260200191505b509250505060405180910390f35b34801561056457600080fd5b5061056d611184565b6040518080602001828103825283818151815260200191508051906020019060200280838360005b838110156105b0578082015181840152602081019050610595565b505050509050019250505060405180910390f35b3480156105d057600080fd5b506105d9611193565b6040518082815260200191505060405180910390f35b3480156105fb57600080fd5b506106046111a2565b6040518080602001828103825283818151815260200191508051906020019060200280838360005b8381101561064757808201518184015260208101905061062c565b505050509050019250505060405180910390f35b34801561066757600080fd5b50610686600480360381019080803590602001909291905050506111b1565b005b34801561069457600080fd5b506106c9600480360381019080803573ffffffffffffffffffffffffffffffffffffffff169060200190929190505050611267565b6040518082815260200191505060405180910390f35b3480156106eb57600080fd5b506106f461127b565b6040518082815260200191505060405180910390f35b6107786004803603810190808035906020019092919080359060200190929190803590602001908201803590602001908080601f016020809104026020016040519081016040528093929190818152602001838380828437820191505050505050919291929050505061128a565b005b34801561078657600080fd5b506107eb60048036038101908080359060200190929190803590602001908201803590602001908080601f01602080910402602001604051908101604052809392919081815260200183838082843782019150505050505091929192905050506112aa565b005b3480156107f957600080fd5b50610a98600480360381019080803590602001908201803590602001908080601f0160208091040260200160405190810160405280939291908181526020018383808284378201915050505050509192919290803590602001908201803590602001908080601f0160208091040260200160405190810160405280939291908181526020018383808284378201915050505050509192919290803590602001908201803590602001908080601f0160208091040260200160405190810160405280939291908181526020018383808284378201915050505050509192919290803590602001908201803590602001908080601f0160208091040260200160405190810160405280939291908181526020018383808284378201915050505050509192919290803590602001908201803590602001908080601f0160208091040260200160405190810160405280939291908181526020018383808284378201915050505050509192919290803590602001908201803590602001908080601f0160208091040260200160405190810160405280939291908181526020018383808284378201915050505050509192919290803590602001908201803590602001908080601f0160208091040260200160405190810160405280939291908181526020018383808284378201915050505050509192919290803590602001908201803590602001908080601f016020809104026020016040519081016040528093929190818152602001838380828437820191505050505050919291929080359060200190929190803590602001908201803590602001908080601f0160208091040260200160405190810160405280939291908181526020018383808284378201915050505050509192919290803590602001909291905050506112b8565b005b348015610aa657600080fd5b50610aaf6112d8565b6040518082815260200191505060405180910390f35b348015610ad157600080fd5b50610ada6112e7565b6040518080602001828103825283818151815260200191508051906020019060200280838360005b83811015610b1d578082015181840152602081019050610b02565b505050509050019250505060405180910390f35b348015610b3d57600080fd5b50610b5c600480360381019080803590602001909291905050506112f6565b604051808273ffffffffffffffffffffffffffffffffffffffff1673ffffffffffffffffffffffffffffffffffffffff16815260200191505060405180910390f35b610dec600480360381019080803590602001908201803590602001908080601f0160208091040260200160405190810160405280939291908181526020018383808284378201915050505050509192919290803590602001908201803590602001908080601f0160208091040260200160405190810160405280939291908181526020018383808284378201915050505050509192919290803590602001908201803590602001908080601f0160208091040260200160405190810160405280939291908181526020018383808284378201915050505050509192919290803590602001908201803590602001908080601f0160208091040260200160405190810160405280939291908181526020018383808284378201915050505050509192919290803590602001908201803590602001908080601f0160208091040260200160405190810160405280939291908181526020018383808284378201915050505050509192919290803590602001908201803590602001908080601f0160208091040260200160405190810160405280939291908181526020018383808284378201915050505050509192919290803590602001908201803590602001908080601f0160208091040260200160405190810160405280939291908181526020018383808284378201915050505050509192919290803590602001908201803590602001908080601f016020809104026020016040519081016040528093929190818152602001838380828437820191505050505050919291929080359060200190929190505050611308565b005b348015610dfa57600080fd5b50610e1960048036038101908080359060200190929190505050611338565b005b348015610e2757600080fd5b50610e4660048036038101908080359060200190929190505050611344565b6040518082815260200191505060405180910390f35b348015610e6857600080fd5b50610e916004803603810190808035906020019092919080359060200190929190505050611356565b005b610ebb6004803603810190808035906020019092919080359060200190929190505050611365565b005b610edb60048036038101908080359060200190929190505050611373565b005b348015610ee957600080fd5b50610f086004803603810190808035906020019092919050505061137f565b6040518082815260200191505060405180910390f35b348015610f2a57600080fd5b50610f4960048036038101908080359060200190929190505050611391565b604051808273ffffffffffffffffffffffffffffffffffffffff1673ffffffffffffffffffffffffffffffffffffffff16815260200191505060405180910390f35b348015610f9757600080fd5b50610fa06113a3565b005b348015610fae57600080fd5b50610fb76113ae565b6040518082815260200191505060405180910390f35b348015610fd957600080fd5b50610fe26113be565b6040518082815260200191505060405180910390f35b34801561100457600080fd5b5061102d60048036038101908080359060200190929190803590602001909291905050506113cd565b005b34801561103b57600080fd5b506110446113db565b6040518080602001828103825283818151815260200191508051906020019060200280838360005b8381101561108757808201518184015260208101905061106c565b505050509050019250505060405180910390f35b3480156110a757600080fd5b506110b06113ea565b6040518082815260200191505060405180910390f35b60006110d06113f9565b905090565b6110e3868686868686611403565b6110fd6110ef87611801565b6110f888611844565b611887565b505050505050565b606061110f611927565b905090565b600061111e6119b5565b905090565b600061112d6119fc565b905090565b606061113c611a43565b905090565b600061114b611b22565b905090565b600061115b82611b41565b50919050565b600061116b611bb2565b905090565b606061117c8383611bf9565b905092915050565b606061118e6129a6565b905090565b600061119d612a3b565b905090565b60606111ac612a4c565b905090565b60016111bc82612ae1565b14156111d2576111cd816001612afe565b611264565b6111dd816000612afe565b6111f0816111eb6001612bbd565b612c7f565b506001601d60008381526020019081526020016000206000828254019250508190555061121c81611801565b73ffffffffffffffffffffffffffffffffffffffff166108fc60649081150290604051600060405180830381858888f19350505050158015611262573d6000803e3d6000fd5b505b50565b6000611274826001612e22565b9050919050565b6000611285612ef2565b905090565b61129381612f39565b61129c8361303b565b6112a58261329f565b505050565b6112b482826132e6565b5050565b6112cb8b8b8b8b8b8b8b8b8b8b8b613318565b5050505050505050505050565b60006112e26135d8565b905090565b60606112f16135e2565b905090565b600061130182611801565b9050919050565b61131989898989898989898961363d565b61132c816113276000612bbd565b612c7f565b50505050505050505050565b6113418161329f565b50565b600061134f82613790565b9050919050565b61136082826137b0565b505050565b61136f8282613b18565b5050565b61137c8161303b565b50565b600061138a82613d53565b9050919050565b600061139c82611844565b9050919050565b6113ab613d76565b50565b60006113b933613dc3565b905090565b60006113c8613e62565b905090565b6113d78282613e81565b5050565b60606113e5613f7e565b905090565b60006113f4614013565b905090565b6000600b54905090565b6001601460008773ffffffffffffffffffffffffffffffffffffffff1673ffffffffffffffffffffffffffffffffffffffff168152602001908152602001600020600082825401925050819055506001601460008673ffffffffffffffffffffffffffffffffffffffff1673ffffffffffffffffffffffffffffffffffffffff168152602001908152602001600020600082825401925050819055506001601460008573ffffffffffffffffffffffffffffffffffffffff1673ffffffffffffffffffffffffffffffffffffffff168152602001908152602001600020600082825401925050819055506001601460008473ffffffffffffffffffffffffffffffffffffffff1673ffffffffffffffffffffffffffffffffffffffff168152602001908152602001600020600082825401925050819055506001601460008373ffffffffffffffffffffffffffffffffffffffff1673ffffffffffffffffffffffffffffffffffffffff16815260200190815260200160002060008282540192505081905550601660008673ffffffffffffffffffffffffffffffffffffffff1673ffffffffffffffffffffffffffffffffffffffff168152602001908152602001600020869080600181540180825580915050906001820390600052602060002001600090919290919091505550601660008573ffffffffffffffffffffffffffffffffffffffff1673ffffffffffffffffffffffffffffffffffffffff168152602001908152602001600020869080600181540180825580915050906001820390600052602060002001600090919290919091505550601660008473ffffffffffffffffffffffffffffffffffffffff1673ffffffffffffffffffffffffffffffffffffffff168152602001908152602001600020869080600181540180825580915050906001820390600052602060002001600090919290919091505550601660008373ffffffffffffffffffffffffffffffffffffffff1673ffffffffffffffffffffffffffffffffffffffff168152602001908152602001600020869080600181540180825580915050906001820390600052602060002001600090919290919091505550601660008273ffffffffffffffffffffffffffffffffffffffff1673ffffffffffffffffffffffffffffffffffffffff1681526020019081526020016000208690806001815401808255809150509060018203906000526020600020016000909192909190915055506040805190810160405280600181526020017f32000000000000000000000000000000000000000000000000000000000000008152506008600001600088815260200190815260200160002060010190805190602001906117f89291906144e9565b50505050505050565b60006008600001600083815260200190815260200160002060030160009054906101000a900473ffffffffffffffffffffffffffffffffffffffff169050919050565b60006008600001600083815260200190815260200160002060020160009054906101000a900473ffffffffffffffffffffffffffffffffffffffff169050919050565b6001600d60008473ffffffffffffffffffffffffffffffffffffffff1673ffffffffffffffffffffffffffffffffffffffff168152602001908152602001600020600082825401925050819055506001600e60008373ffffffffffffffffffffffffffffffffffffffff1673ffffffffffffffffffffffffffffffffffffffff168152602001908152602001600020600082825401925050819055505050565b606060118054806020026020016040519081016040528092919081815260200182805480156119ab57602002820191906000526020600020905b8160009054906101000a900473ffffffffffffffffffffffffffffffffffffffff1673ffffffffffffffffffffffffffffffffffffffff1681526020019060010190808311611961575b5050505050905090565b6000600e60003373ffffffffffffffffffffffffffffffffffffffff1673ffffffffffffffffffffffffffffffffffffffff16815260200190815260200160002054905090565b6000600760003373ffffffffffffffffffffffffffffffffffffffff1673ffffffffffffffffffffffffffffffffffffffff16815260200190815260200160002054905090565b6060601060003373ffffffffffffffffffffffffffffffffffffffff1673ffffffffffffffffffffffffffffffffffffffff1681526020019081526020016000208054600181600116156101000203166002900480601f016020809104026020016040519081016040528092919081815260200182805460018160011615610100020316600290048015611b185780601f10611aed57610100808354040283529160200191611b18565b820191906000526020600020905b815481529060010190602001808311611afb57829003601f168201915b5050505050905090565b60003373ffffffffffffffffffffffffffffffffffffffff1631905090565b600060016017600084815260200190815260200160002060000160003373ffffffffffffffffffffffffffffffffffffffff1673ffffffffffffffffffffffffffffffffffffffff168152602001908152602001600020541415611ba85760009050611bad565b600190505b919050565b6000600660003373ffffffffffffffffffffffffffffffffffffffff1673ffffffffffffffffffffffffffffffffffffffff16815260200190815260200160002054905090565b60606001821415611cbd57600860010160008481526020019081526020016000206000018054600181600116156101000203166002900480601f016020809104026020016040519081016040528092919081815260200182805460018160011615610100020316600290048015611cb15780601f10611c8657610100808354040283529160200191611cb1565b820191906000526020600020905b815481529060010190602001808311611c9457829003601f168201915b505050505090506129a0565b6002821415611d7f57600860010160008481526020019081526020016000206001018054600181600116156101000203166002900480601f016020809104026020016040519081016040528092919081815260200182805460018160011615610100020316600290048015611d735780601f10611d4857610100808354040283529160200191611d73565b820191906000526020600020905b815481529060010190602001808311611d5657829003601f168201915b505050505090506129a0565b6003821415611e4157600860010160008481526020019081526020016000206002018054600181600116156101000203166002900480601f016020809104026020016040519081016040528092919081815260200182805460018160011615610100020316600290048015611e355780601f10611e0a57610100808354040283529160200191611e35565b820191906000526020600020905b815481529060010190602001808311611e1857829003601f168201915b505050505090506129a0565b6004821415611f0357600860010160008481526020019081526020016000206003018054600181600116156101000203166002900480601f016020809104026020016040519081016040528092919081815260200182805460018160011615610100020316600290048015611ef75780601f10611ecc57610100808354040283529160200191611ef7565b820191906000526020600020905b815481529060010190602001808311611eda57829003601f168201915b505050505090506129a0565b6005821415611fc557600860010160008481526020019081526020016000206004018054600181600116156101000203166002900480601f016020809104026020016040519081016040528092919081815260200182805460018160011615610100020316600290048015611fb95780601f10611f8e57610100808354040283529160200191611fb9565b820191906000526020600020905b815481529060010190602001808311611f9c57829003601f168201915b505050505090506129a0565b600682141561208757600860010160008481526020019081526020016000206005018054600181600116156101000203166002900480601f01602080910402602001604051908101604052809291908181526020018280546001816001161561010002031660029004801561207b5780601f106120505761010080835404028352916020019161207b565b820191906000526020600020905b81548152906001019060200180831161205e57829003601f168201915b505050505090506129a0565b600782141561214957600860010160008481526020019081526020016000206006018054600181600116156101000203166002900480601f01602080910402602001604051908101604052809291908181526020018280546001816001161561010002031660029004801561213d5780601f106121125761010080835404028352916020019161213d565b820191906000526020600020905b81548152906001019060200180831161212057829003601f168201915b505050505090506129a0565b600882141561220b57600860010160008481526020019081526020016000206007018054600181600116156101000203166002900480601f0160208091040260200160405190810160405280929190818152602001828054600181600116156101000203166002900480156121ff5780601f106121d4576101008083540402835291602001916121ff565b820191906000526020600020905b8154815290600101906020018083116121e257829003601f168201915b505050505090506129a0565b600a8214156122cd57600860010160008481526020019081526020016000206009018054600181600116156101000203166002900480601f0160208091040260200160405190810160405280929190818152602001828054600181600116156101000203166002900480156122c15780601f10612296576101008083540402835291602001916122c1565b820191906000526020600020905b8154815290600101906020018083116122a457829003601f168201915b505050505090506129a0565b600b82141561238f57600860000160008481526020019081526020016000206001018054600181600116156101000203166002900480601f0160208091040260200160405190810160405280929190818152602001828054600181600116156101000203166002900480156123835780601f1061235857610100808354040283529160200191612383565b820191906000526020600020905b81548152906001019060200180831161236657829003601f168201915b505050505090506129a0565b600c82141561245157600860020160008481526020019081526020016000206000018054600181600116156101000203166002900480601f0160208091040260200160405190810160405280929190818152602001828054600181600116156101000203166002900480156124455780601f1061241a57610100808354040283529160200191612445565b820191906000526020600020905b81548152906001019060200180831161242857829003601f168201915b505050505090506129a0565b600d82141561251357600860020160008481526020019081526020016000206001018054600181600116156101000203166002900480601f0160208091040260200160405190810160405280929190818152602001828054600181600116156101000203166002900480156125075780601f106124dc57610100808354040283529160200191612507565b820191906000526020600020905b8154815290600101906020018083116124ea57829003601f168201915b505050505090506129a0565b600e8214156125d557600860020160008481526020019081526020016000206002018054600181600116156101000203166002900480601f0160208091040260200160405190810160405280929190818152602001828054600181600116156101000203166002900480156125c95780601f1061259e576101008083540402835291602001916125c9565b820191906000526020600020905b8154815290600101906020018083116125ac57829003601f168201915b505050505090506129a0565b600f82141561269757600860020160008481526020019081526020016000206003018054600181600116156101000203166002900480601f01602080910402602001604051908101604052809291908181526020018280546001816001161561010002031660029004801561268b5780601f106126605761010080835404028352916020019161268b565b820191906000526020600020905b81548152906001019060200180831161266e57829003601f168201915b505050505090506129a0565b601082141561275957600860020160008481526020019081526020016000206004018054600181600116156101000203166002900480601f01602080910402602001604051908101604052809291908181526020018280546001816001161561010002031660029004801561274d5780601f106127225761010080835404028352916020019161274d565b820191906000526020600020905b81548152906001019060200180831161273057829003601f168201915b505050505090506129a0565b601182141561281b57600860020160008481526020019081526020016000206005018054600181600116156101000203166002900480601f01602080910402602001604051908101604052809291908181526020018280546001816001161561010002031660029004801561280f5780601f106127e45761010080835404028352916020019161280f565b820191906000526020600020905b8154815290600101906020018083116127f257829003601f168201915b505050505090506129a0565b60128214156128dd57600860020160008481526020019081526020016000206006018054600181600116156101000203166002900480601f0160208091040260200160405190810160405280929190818152602001828054600181600116156101000203166002900480156128d15780601f106128a6576101008083540402835291602001916128d1565b820191906000526020600020905b8154815290600101906020018083116128b457829003601f168201915b505050505090506129a0565b601382141561299f57600860020160008481526020019081526020016000206007018054600181600116156101000203166002900480601f0160208091040260200160405190810160405280929190818152602001828054600181600116156101000203166002900480156129935780601f1061296857610100808354040283529160200191612993565b820191906000526020600020905b81548152906001019060200180831161297657829003601f168201915b505050505090506129a0565b5b92915050565b6060601660003373ffffffffffffffffffffffffffffffffffffffff1673ffffffffffffffffffffffffffffffffffffffff168152602001908152602001600020805480602002602001604051908101604052809291908181526020018280548015612a3157602002820191906000526020600020905b815481526020019060010190808311612a1d575b5050505050905090565b6000612a47601961405a565b905090565b6060601560003373ffffffffffffffffffffffffffffffffffffffff1673ffffffffffffffffffffffffffffffffffffffff168152602001908152602001600020805480602002602001604051908101604052809291908181526020018280548015612ad757602002820191906000526020600020905b815481526020019060010190808311612ac3575b5050505050905090565b6000601d6000838152602001908152602001600020549050919050565b6001811415612b6b576040805190810160405280600181526020017f3400000000000000000000000000000000000000000000000000000000000000815250600860000160008481526020019081526020016000206001019080519060200190612b699291906144e9565b505b6001601460003373ffffffffffffffffffffffffffffffffffffffff1673ffffffffffffffffffffffffffffffffffffffff168152602001908152602001600020600082825403925050819055505050565b6000806000806000925060009150600090505b601180549050811015612c7757612c20601182815481101515612bef57fe5b9060005260206000200160009054906101000a900473ffffffffffffffffffffffffffffffffffffffff1686612e22565b915082821115612c6a57819250601181815481101515612c3c57fe5b9060005260206000200160009054906101000a900473ffffffffffffffffffffffffffffffffffffffff1693505b8080600101915050612bd0565b505050919050565b6000606060006001601460008673ffffffffffffffffffffffffffffffffffffffff1673ffffffffffffffffffffffffffffffffffffffff16815260200190815260200160002060008282540192505081905550612cdd8585614068565b601560008573ffffffffffffffffffffffffffffffffffffffff1673ffffffffffffffffffffffffffffffffffffffff168152602001908152602001600020805480602002602001604051908101604052809291908181526020018280548015612d6657602002820191906000526020600020905b815481526020019060010190808311612d52575b50505050509150600090505b8151811015612db057848282815181101515612d8a57fe5b906020019060200201511415612da35760009250612e1a565b8080600101915050612d72565b601560008573ffffffffffffffffffffffffffffffffffffffff1673ffffffffffffffffffffffffffffffffffffffff1681526020019081526020016000208590806001815401808255809150509060018203906000526020600020016000909192909190915055505b505092915050565b600080601460008573ffffffffffffffffffffffffffffffffffffffff1673ffffffffffffffffffffffffffffffffffffffff168152602001908152602001600020549050600581101515612e7a5760009150612eeb565b6000831415612ed95780600503601360008673ffffffffffffffffffffffffffffffffffffffff1673ffffffffffffffffffffffffffffffffffffffff16815260200190815260200160002054612ed0866140c4565b02029150612eea565b80600503612ee6856140c4565b0291505b5b5092915050565b6000600d60003373ffffffffffffffffffffffffffffffffffffffff1673ffffffffffffffffffffffffffffffffffffffff16815260200190815260200160002054905090565b6001600f60003373ffffffffffffffffffffffffffffffffffffffff1673ffffffffffffffffffffffffffffffffffffffff1681526020019081526020016000208190555080601060003373ffffffffffffffffffffffffffffffffffffffff1673ffffffffffffffffffffffffffffffffffffffff1681526020019081526020016000209080519060200190612fd19291906144e9565b5060113390806001815401808255809150509060018203906000526020600020016000909192909190916101000a81548173ffffffffffffffffffffffffffffffffffffffff021916908373ffffffffffffffffffffffffffffffffffffffff1602179055505050565b8060066000600560009054906101000a900473ffffffffffffffffffffffffffffffffffffffff1673ffffffffffffffffffffffffffffffffffffffff1673ffffffffffffffffffffffffffffffffffffffff168152602001908152602001600020541115156130aa57600080fd5b60c981600660003373ffffffffffffffffffffffffffffffffffffffff1673ffffffffffffffffffffffffffffffffffffffff16815260200190815260200160002054011015156130fa57600080fd5b600760003373ffffffffffffffffffffffffffffffffffffffff1673ffffffffffffffffffffffffffffffffffffffff1681526020019081526020016000206000815480929190600101919050555080600660003373ffffffffffffffffffffffffffffffffffffffff1673ffffffffffffffffffffffffffffffffffffffff168152602001908152602001600020600082825401925050819055508060066000600560009054906101000a900473ffffffffffffffffffffffffffffffffffffffff1673ffffffffffffffffffffffffffffffffffffffff1673ffffffffffffffffffffffffffffffffffffffff16815260200190815260200160002060008282540392505081905550806001600082825401925050819055503373ffffffffffffffffffffffffffffffffffffffff16600560009054906101000a900473ffffffffffffffffffffffffffffffffffffffff1673ffffffffffffffffffffffffffffffffffffffff167fddf252ad1be2c89b69c2b068fc378daa952ba7f163c4a11628f55a4df523b3ef836040518082815260200191505060405180910390a350565b80601360003373ffffffffffffffffffffffffffffffffffffffff1673ffffffffffffffffffffffffffffffffffffffff1681526020019081526020016000208190555050565b806008600001600084815260200190815260200160002060010190805190602001906133139291906144e9565b505050565b613320614569565b610140604051908101604052808d81526020018c81526020018b81526020018a81526020018981526020018881526020018781526020018681526020018581526020018481525090508060086001016000848152602001908152602001600020600082015181600001908051906020019061339c9291906145bd565b5060208201518160010190805190602001906133b99291906145bd565b5060408201518160020190805190602001906133d69291906145bd565b5060608201518160030190805190602001906133f39291906145bd565b5060808201518160040190805190602001906134109291906145bd565b5060a082015181600501908051906020019061342d9291906145bd565b5060c082015181600601908051906020019061344a9291906145bd565b5060e08201518160070190805190602001906134679291906145bd565b5061010082015181600801556101208201518160090190805190602001906134909291906145bd565b509050506040805190810160405280600181526020017f30000000000000000000000000000000000000000000000000000000000000008152506008600001600084815260200190815260200160002060010190805190602001906134f69291906144e9565b50336008600001600084815260200190815260200160002060030160006101000a81548173ffffffffffffffffffffffffffffffffffffffff021916908373ffffffffffffffffffffffffffffffffffffffff160217905550600c60003373ffffffffffffffffffffffffffffffffffffffff1673ffffffffffffffffffffffffffffffffffffffff168152602001908152602001600020829080600181540180825580915050906001820390600052602060002001600090919290919091505550600b60008154809291906001019190505550505050505050505050505050565b6000600154905090565b6060601960000180548060200260200160405190810160405280929190818152602001828054801561363357602002820191906000526020600020905b81548152602001906001019080831161361f575b5050505050905090565b61364561463d565b610100604051908101604052808b81526020018a8152602001898152602001888152602001878152602001868152602001858152602001848152509050806008600201600084815260200190815260200160002060008201518160000190805190602001906136b59291906145bd565b5060208201518160010190805190602001906136d29291906145bd565b5060408201518160020190805190602001906136ef9291906145bd565b50606082015181600301908051906020019061370c9291906145bd565b5060808201518160040190805190602001906137299291906145bd565b5060a08201518160050190805190602001906137469291906145bd565b5060c08201518160060190805190602001906137639291906145bd565b5060e08201518160070190805190602001906137809291906145bd565b5090505050505050505050505050565b600060176000838152602001908152602001600020600101549050919050565b60008060008091506000905060016017600087815260200190815260200160002060000160003373ffffffffffffffffffffffffffffffffffffffff1673ffffffffffffffffffffffffffffffffffffffff16815260200190815260200160002054141561381d57600080fd5b6001601460003373ffffffffffffffffffffffffffffffffffffffff1673ffffffffffffffffffffffffffffffffffffffff16815260200190815260200160002060008282540392505081905550601860008681526020019081526020016000203390806001815401808255809150509060018203906000526020600020016000909192909190916101000a81548173ffffffffffffffffffffffffffffffffffffffff021916908373ffffffffffffffffffffffffffffffffffffffff160217905550506001601760008781526020019081526020016000206001016000828254019250508190555083601760008781526020019081526020016000206002016000828254019250508190555060016017600087815260200190815260200160002060000160003373ffffffffffffffffffffffffffffffffffffffff1673ffffffffffffffffffffffffffffffffffffffff16815260200190815260200160002081905550600560176000878152602001908152602001600020600101541415613b0f576101f46008600101600087815260200190815260200160002060080154029150601760008681526020019081526020016000206002015490506040805190810160405280600181526020017f3300000000000000000000000000000000000000000000000000000000000000815250600860000160008781526020019081526020016000206001019080519060200190613a3e9291906144e9565b50605f8102821115613abd5760698102821015613a6b57613a62856064600061410d565b60009250613b10565b600581811515613a7757fe5b046008600101600087815260200190815260200160002060080181905550613ab485613aaa613aa588611844565b613dc3565b600202600161410d565b60019250613b10565b600581811515613ac957fe5b046008600101600087815260200190815260200160002060080181905550613b0685613afc613af788611844565b613dc3565b600202600161410d565b60019250613b10565b5b505092915050565b81600660003373ffffffffffffffffffffffffffffffffffffffff1673ffffffffffffffffffffffffffffffffffffffff1681526020019081526020016000205410151515613b6657600080fd5b600760003373ffffffffffffffffffffffffffffffffffffffff1673ffffffffffffffffffffffffffffffffffffffff168152602001908152602001600020600081548092919060010191905055508160066000600560009054906101000a900473ffffffffffffffffffffffffffffffffffffffff1673ffffffffffffffffffffffffffffffffffffffff1673ffffffffffffffffffffffffffffffffffffffff1681526020019081526020016000206000828254019250508190555081600660003373ffffffffffffffffffffffffffffffffffffffff1673ffffffffffffffffffffffffffffffffffffffff16815260200190815260200160002060008282540392505081905550816001600082825403925050819055503373ffffffffffffffffffffffffffffffffffffffff166108fc829081150290604051600060405180830381858888f19350505050158015613cc7573d6000803e3d6000fd5b50600560009054906101000a900473ffffffffffffffffffffffffffffffffffffffff1673ffffffffffffffffffffffffffffffffffffffff163373ffffffffffffffffffffffffffffffffffffffff167fddf252ad1be2c89b69c2b068fc378daa952ba7f163c4a11628f55a4df523b3ef846040518082815260200191505060405180910390a35050565b600060086001016000838152602001908152602001600020600801549050919050565b600080600f60003373ffffffffffffffffffffffffffffffffffffffff1673ffffffffffffffffffffffffffffffffffffffff168152602001908152602001600020819055506001905090565b60006064601360008473ffffffffffffffffffffffffffffffffffffffff1673ffffffffffffffffffffffffffffffffffffffff16815260200190815260200160002054101515613e58576064601360008473ffffffffffffffffffffffffffffffffffffffff1673ffffffffffffffffffffffffffffffffffffffff16815260200190815260200160002054039050613e5d565b600090505b919050565b60003073ffffffffffffffffffffffffffffffffffffffff1631905090565b6000613e8c33613dc3565b90508160086001016000858152602001908152602001600020600801819055506040805190810160405280600181526020017f3100000000000000000000000000000000000000000000000000000000000000815250600860000160008581526020019081526020016000206001019080519060200190613f0e9291906144e9565b50613f1a836000612afe565b613f2433826142cb565b3373ffffffffffffffffffffffffffffffffffffffff166108fc826064039081150290604051600060405180830381858888f19350505050158015613f6d573d6000803e3d6000fd5b50613f7960198461439b565b505050565b6060600c60003373ffffffffffffffffffffffffffffffffffffffff1673ffffffffffffffffffffffffffffffffffffffff16815260200190815260200160002080548060200260200160405190810160405280929190818152602001828054801561400957602002820191906000526020600020905b815481526020019060010190808311613ff5575b5050505050905090565b6000600f60003373ffffffffffffffffffffffffffffffffffffffff1673ffffffffffffffffffffffffffffffffffffffff16815260200190815260200160002054905090565b600081600301549050919050565b806008600001600084815260200190815260200160002060020160006101000a81548173ffffffffffffffffffffffffffffffffffffffff021916908373ffffffffffffffffffffffffffffffffffffffff1602179055505050565b6000600660008373ffffffffffffffffffffffffffffffffffffffff1673ffffffffffffffffffffffffffffffffffffffff168152602001908152602001600020549050919050565b6000614117614683565b61411f614683565b6141276146a6565b6000809450600090505b600581101561422557601860008981526020019081526020016000208181548110151561415a57fe5b9060005260206000200160009054906101000a900473ffffffffffffffffffffffffffffffffffffffff16828260058110151561419357fe5b602002019073ffffffffffffffffffffffffffffffffffffffff16908173ffffffffffffffffffffffffffffffffffffffff16815250506141e582826005811015156141db57fe5b60200201516140c4565b816005030284826005811015156141f857fe5b602002018181525050838160058110151561420f57fe5b6020020151850194508080600101915050614131565b600090505b60058110156142a55784848260058110151561424257fe5b602002015181151561425057fe5b048702838260058110151561426157fe5b602002018181525050614298828260058110151561427b57fe5b6020020151848360058110151561428e57fe5b60200201516142cb565b808060010191505061422a565b60018614156142c1576142c06142ba89611844565b88614419565b5b5050505050505050565b80600660008473ffffffffffffffffffffffffffffffffffffffff1673ffffffffffffffffffffffffffffffffffffffff168152602001908152602001600020600082825401925050819055508060066000600560009054906101000a900473ffffffffffffffffffffffffffffffffffffffff1673ffffffffffffffffffffffffffffffffffffffff1673ffffffffffffffffffffffffffffffffffffffff16815260200190815260200160002060008282540392505081905550806001600082825401925050819055505050565b816001015460125460018460020154018115156143b457fe5b0614156143c057614415565b808260000183600201548154811015156143d657fe5b906000526020600020018190555060018260030160008282540192505081905550601254600183600201540181151561440b57fe5b0682600201819055505b5050565b80600660008473ffffffffffffffffffffffffffffffffffffffff1673ffffffffffffffffffffffffffffffffffffffff168152602001908152602001600020600082825403925050819055508060066000600560009054906101000a900473ffffffffffffffffffffffffffffffffffffffff1673ffffffffffffffffffffffffffffffffffffffff1673ffffffffffffffffffffffffffffffffffffffff16815260200190815260200160002060008282540192505081905550806001600082825403925050819055505050565b828054600181600116156101000203166002900490600052602060002090601f016020900481019282601f1061452a57805160ff1916838001178555614558565b82800160010185558215614558579182015b8281111561455757825182559160200191906001019061453c565b5b50905061456591906146c9565b5090565b61014060405190810160405280606081526020016060815260200160608152602001606081526020016060815260200160608152602001606081526020016060815260200160008152602001606081525090565b828054600181600116156101000203166002900490600052602060002090601f016020900481019282601f106145fe57805160ff191683800117855561462c565b8280016001018555821561462c579182015b8281111561462b578251825591602001919060010190614610565b5b50905061463991906146c9565b5090565b6101006040519081016040528060608152602001606081526020016060815260200160608152602001606081526020016060815260200160608152602001606081525090565b60a060405190810160405280600590602082028038833980820191505090505090565b60a060405190810160405280600590602082028038833980820191505090505090565b6146eb91905b808211156146e75760008160009055506001016146cf565b5090565b905600a165627a7a72305820adf9643c6a8c538000cf960d8362f007a0221d4fcb7a0309b0a550d7436ea1fa0029",
  "source": "pragma solidity ^0.4.24;\n\nimport \"./assign.sol\";\n\ncontract demo is assign{\n    mapping(uint => uint) backrecord;\n    /*****************************/\n    /*****************************/\n    /**\n     * guobin\n     * \n    */\n    function addvaluation(\n        string memory Frame_number,             //\n        string memory Number_plate,             //\n        string memory Vehicle_type,             //\n        string memory Brand_number,             //\n        string memory car_displacement,         //L\n        string memory approval_passengers,      //\n        string memory Engine_number,            //\n        string memory Manufacture_date,         //\n        uint          Evaluation,               //\n        string memory Timestammp,               //\n        uint evaluation_index                   //(js,ipfs,)\n        ) public {\n        _addvaluation(Frame_number,Number_plate,Vehicle_type,Brand_number,car_displacement,approval_passengers,Engine_number,Manufacture_date,Evaluation,Timestammp,evaluation_index); //\n    }\n\n    /**\n     * guobin\n     * \n    */\n    function addphoto(\n        string memory photo1,\n        string memory photo2,\n        string memory photo3,\n        string memory photo4,\n        string memory photo5,\n        string memory photo6,\n        string memory photo7,\n        string memory photo8,\n        uint evaluation_index\n    ) public payable {\n        _addphoto(photo1,photo2,photo3,photo4,photo5,photo6,photo7,photo8,evaluation_index);\n        distribution(evaluation_index,statistic(0));             //\n    }\n\n    /**\n     * guobin\n     * \n    */\n    function backordernumber() view public returns (uint) {\n        return _backordernumber();\n    }\n\n\n    /**\n     * guobin\n     * \n    */\n    function backwork(uint evaluation_index) public {\n        if(checkbackstate(evaluation_index) == 1) {\n            finishwork(evaluation_index,1);\n        }\n        else {\n            finishwork(evaluation_index,0);\n            distribution(evaluation_index,statistic(1));             //\n            backrecord[evaluation_index] += 1;\n            _getcreator(evaluation_index).transfer(100);\n        }\n    }\n\n    /**\n     * guobin\n     * \n    */\n    function checkbackstate(uint evaluation_index) internal view returns (uint) {\n        return backrecord[evaluation_index];\n    }\n\n    /**\n     * guobin\n     * \n    */\n    function evaluate(uint index,uint value) public {\n        _evaluate(index,value);\n    }\n\n    /**\n     * guobin\n     * \n    */\n    function backvaluation() view public returns (uint[]) {\n        return _backvaluation();\n    }\n\n    /**\n     * guobin\n     * \n    */\n    function setstate(uint index,string condition) public {\n        _setstate(index,condition);\n    }\n\n    /**\n     * guobin\n     * \n    */\n    function displayvalue(uint index) view public returns (uint) {\n        return _displayvalue(index);\n    }\n\n    /**\n     * guobin\n     * \n    */\n    function displayinfo(uint index,uint num) view public returns (string) {\n        return _displayinfo(index,num);\n    }\n\n    /**\n     * guobin\n     * \n    */\n    function getcreator(uint index) view public returns(address) {\n        return _getcreator(index);\n    }\n\n    /**\n     * guobin\n     * \n    */\n    function getassessor(uint index) view public returns(address) {\n        return _getassessor(index);\n    }\n\n    /*****************************/\n    /**\n     * guobin\n     * \n    */\n    function buy(uint amount) public payable {\n        _buy(amount);\n    }\n    \n    /**\n     * guobin\n     * \n    */\n    function sell(uint256 amount,uint256 eth_amount) public payable {\n        _sell(amount,eth_amount);\n    }\n\n    /**\n     * guobin\n     * \n    */\n    function displaybalance() view public returns (uint256) {\n        return _displaybalance();\n    } \n\n    /**\n     * guobin\n     * \n    */\n    function displayethbalance() view public returns (uint256) {\n        return _displayethbalance();\n    } \n\n    /**\n     * guobin\n     * \n    */\n    function displayaccount() view public returns (uint256) {\n        return _displayaccount();\n    } \n\n    /**\n     * guobin\n     * \n    */\n    function displayaccountforarbitrage(address send) public view returns (uint) {\n        return calc(send,1);\n    }\n\n    /**\n     * guobin\n     * \n    */\n    function displaytoken() view public returns (uint256) {\n        return _displaytoken();\n    } \n\n    /**\n     * guobin\n     * \n    */\n    function distranumber() view public returns (uint256) {\n        return _distranumber();\n    } \n\n    /**\n     * guobin\n     * \n    */\n    function displaycreate() view public returns (uint) {\n        return _displaycreate();\n    }\n\n    /**\n     * guobin\n     * \n    */\n    function displaywork() view public returns (uint) {\n        return _displaywork();\n    }\n\n\n\n    /*****************************/\n    /**\n     * guobin\n     * \n    */\n    function registertest(uint amount,uint scale,string logintime) public payable {          \n        _registertest(logintime);\n        _buy(amount);\n        _Enter_quote(scale);\n    }\n\n    /**\n     * guobin\n     * \n    */\n    function Enter_quote(uint value) public {                               \n        _Enter_quote(value);\n    }\n\n    /**\n     * guobin\n     * \n    */\n    function check_quote() public view returns (uint) {\n        return _check_quote(msg.sender);\n    }\n\n    /**\n     * guobin\n     * \n    */\n    function checktime() view public returns (string) {                       \n        return _checktime();\n    }\n    \n    /**\n     * guobin\n     * 10\n    */\n    function checkuser() view public returns (uint) {                       \n        return _checkuser();\n    }\n\n    /**\n     * guobin\n     * \n    */\n    function unregister() public {                                          \n        _unregister();\n    }\n\n    /**\n     * guobin\n     * \n    */\n    function backofwork() view public returns (address[]) {\n        return _backofwork();\n    }\n\n    /**\n     * guobin\n     * \n    */\n    function backvalnumber() view public returns (uint[]) {\n        return _backvalnumber();\n    }\n\n\n    /*****************************/\n    /**\n     * guobin\n     * \n    */\n    function backappnumber() view public returns (uint[]) {\n        return _backappnumber();\n    }\n\n    /**\n     * guobin\n     * \n    */\n    function appealdistribution(uint number,address appeal1,address appeal2,address appeal3,address appeal4,address appeal5) public {\n        _appealdistribution(number,appeal1,appeal2,appeal3,appeal4,appeal5);\n        _setappeal(_getcreator(number),_getassessor(number));\n    }\n\n    /**\n     * guobin\n     * \n    */\n    function appealesituation(uint index) public view  returns (uint) {\n        _appealesituation(index);\n    }\n\n    /**\n     * guobin\n     * \n    */\n    function appealevaluate(uint index,uint value) public {\n        _appealevaluate(index,value);\n    }\n\n    /**\n     * guobin\n     * \n    */\n    function appealeschedule(uint index) public view returns (uint) {\n        return _appealeschedule(index);\n    }\n\n    /**\n     * guobin\n     * \n    */\n    function backLeaderboard() public view returns (uint[]) {\n        return _backLeaderboard();\n    }\n\n    /**\n     * guobin\n     * \n    */\n    function backLength() public view returns (uint) {\n        return _backLength();\n    }\n}\n",
  "sourcePath": "/blockpro/evaluation-system/contracts/demo.sol",
  "compiler": {
    "name": "solc",
    "version": "0.4.24+commit.e67f0147.Emscripten.clang"
  },
  "schemaVersion": "2.0.1",
  "updatedAt": "2019-05-06T10:45:19.453Z"
}