{
  "contractName": "demo",
  "abi": [
    {
      "anonymous": false,
      "inputs": [
        {
          "indexed": true,
          "name": "from",
          "type": "address"
        },
        {
          "indexed": true,
          "name": "to",
          "type": "address"
        },
        {
          "indexed": false,
          "name": "value",
          "type": "uint256"
        }
      ],
      "name": "Transfer",
      "type": "event"
    },
    {
      "anonymous": false,
      "inputs": [
        {
          "indexed": true,
          "name": "to",
          "type": "address"
        },
        {
          "indexed": false,
          "name": "value",
          "type": "uint256"
        }
      ],
      "name": "Reward",
      "type": "event"
    },
    {
      "anonymous": false,
      "inputs": [
        {
          "indexed": true,
          "name": "to",
          "type": "address"
        },
        {
          "indexed": false,
          "name": "value",
          "type": "uint256"
        }
      ],
      "name": "Punishment",
      "type": "event"
    },
    {
      "constant": false,
      "inputs": [
        {
          "name": "Frame_number",
          "type": "string"
        },
        {
          "name": "Number_plate",
          "type": "string"
        },
        {
          "name": "Vehicle_type",
          "type": "string"
        },
        {
          "name": "Brand_number",
          "type": "string"
        },
        {
          "name": "car_displacement",
          "type": "string"
        },
        {
          "name": "approval_passengers",
          "type": "string"
        },
        {
          "name": "Engine_number",
          "type": "string"
        },
        {
          "name": "Manufacture_date",
          "type": "string"
        },
        {
          "name": "Evaluation",
          "type": "uint256"
        },
        {
          "name": "Timestammp",
          "type": "string"
        },
        {
          "name": "evaluation_index",
          "type": "uint256"
        }
      ],
      "name": "addvaluation",
      "outputs": [],
      "payable": false,
      "stateMutability": "nonpayable",
      "type": "function"
    },
    {
      "constant": false,
      "inputs": [
        {
          "name": "photo1",
          "type": "string"
        },
        {
          "name": "photo2",
          "type": "string"
        },
        {
          "name": "photo3",
          "type": "string"
        },
        {
          "name": "photo4",
          "type": "string"
        },
        {
          "name": "photo5",
          "type": "string"
        },
        {
          "name": "photo6",
          "type": "string"
        },
        {
          "name": "photo7",
          "type": "string"
        },
        {
          "name": "photo8",
          "type": "string"
        },
        {
          "name": "evaluation_index",
          "type": "uint256"
        }
      ],
      "name": "addphoto",
      "outputs": [],
      "payable": true,
      "stateMutability": "payable",
      "type": "function"
    },
    {
      "constant": true,
      "inputs": [],
      "name": "backordernumber",
      "outputs": [
        {
          "name": "",
          "type": "uint256"
        }
      ],
      "payable": false,
      "stateMutability": "view",
      "type": "function"
    },
    {
      "constant": false,
      "inputs": [
        {
          "name": "evaluation_index",
          "type": "uint256"
        }
      ],
      "name": "backwork",
      "outputs": [],
      "payable": false,
      "stateMutability": "nonpayable",
      "type": "function"
    },
    {
      "constant": false,
      "inputs": [
        {
          "name": "index",
          "type": "uint256"
        },
        {
          "name": "value",
          "type": "uint256"
        }
      ],
      "name": "evaluate",
      "outputs": [],
      "payable": false,
      "stateMutability": "nonpayable",
      "type": "function"
    },
    {
      "constant": true,
      "inputs": [],
      "name": "backvaluation",
      "outputs": [
        {
          "name": "",
          "type": "uint256[]"
        }
      ],
      "payable": false,
      "stateMutability": "view",
      "type": "function"
    },
    {
      "constant": false,
      "inputs": [
        {
          "name": "index",
          "type": "uint256"
        },
        {
          "name": "condition",
          "type": "string"
        }
      ],
      "name": "setstate",
      "outputs": [],
      "payable": false,
      "stateMutability": "nonpayable",
      "type": "function"
    },
    {
      "constant": true,
      "inputs": [
        {
          "name": "index",
          "type": "uint256"
        }
      ],
      "name": "displayvalue",
      "outputs": [
        {
          "name": "",
          "type": "uint256"
        }
      ],
      "payable": false,
      "stateMutability": "view",
      "type": "function"
    },
    {
      "constant": true,
      "inputs": [
        {
          "name": "index",
          "type": "uint256"
        },
        {
          "name": "num",
          "type": "uint256"
        }
      ],
      "name": "displayinfo",
      "outputs": [
        {
          "name": "",
          "type": "string"
        }
      ],
      "payable": false,
      "stateMutability": "view",
      "type": "function"
    },
    {
      "constant": true,
      "inputs": [
        {
          "name": "index",
          "type": "uint256"
        }
      ],
      "name": "getcreator",
      "outputs": [
        {
          "name": "",
          "type": "address"
        }
      ],
      "payable": false,
      "stateMutability": "view",
      "type": "function"
    },
    {
      "constant": true,
      "inputs": [
        {
          "name": "index",
          "type": "uint256"
        }
      ],
      "name": "getassessor",
      "outputs": [
        {
          "name": "",
          "type": "address"
        }
      ],
      "payable": false,
      "stateMutability": "view",
      "type": "function"
    },
    {
      "constant": false,
      "inputs": [
        {
          "name": "amount",
          "type": "uint256"
        }
      ],
      "name": "buy",
      "outputs": [],
      "payable": true,
      "stateMutability": "payable",
      "type": "function"
    },
    {
      "constant": false,
      "inputs": [
        {
          "name": "amount",
          "type": "uint256"
        },
        {
          "name": "eth_amount",
          "type": "uint256"
        }
      ],
      "name": "sell",
      "outputs": [],
      "payable": true,
      "stateMutability": "payable",
      "type": "function"
    },
    {
      "constant": true,
      "inputs": [],
      "name": "displaybalance",
      "outputs": [
        {
          "name": "",
          "type": "uint256"
        }
      ],
      "payable": false,
      "stateMutability": "view",
      "type": "function"
    },
    {
      "constant": true,
      "inputs": [],
      "name": "displayethbalance",
      "outputs": [
        {
          "name": "",
          "type": "uint256"
        }
      ],
      "payable": false,
      "stateMutability": "view",
      "type": "function"
    },
    {
      "constant": true,
      "inputs": [],
      "name": "displayaccount",
      "outputs": [
        {
          "name": "",
          "type": "uint256"
        }
      ],
      "payable": false,
      "stateMutability": "view",
      "type": "function"
    },
    {
      "constant": true,
      "inputs": [
        {
          "name": "send",
          "type": "address"
        }
      ],
      "name": "displayaccountforarbitrage",
      "outputs": [
        {
          "name": "",
          "type": "uint256"
        }
      ],
      "payable": false,
      "stateMutability": "view",
      "type": "function"
    },
    {
      "constant": true,
      "inputs": [],
      "name": "displaytoken",
      "outputs": [
        {
          "name": "",
          "type": "uint256"
        }
      ],
      "payable": false,
      "stateMutability": "view",
      "type": "function"
    },
    {
      "constant": true,
      "inputs": [],
      "name": "distranumber",
      "outputs": [
        {
          "name": "",
          "type": "uint256"
        }
      ],
      "payable": false,
      "stateMutability": "view",
      "type": "function"
    },
    {
      "constant": false,
      "inputs": [
        {
          "name": "amount",
          "type": "uint256"
        },
        {
          "name": "scale",
          "type": "uint256"
        }
      ],
      "name": "registertest",
      "outputs": [],
      "payable": true,
      "stateMutability": "payable",
      "type": "function"
    },
    {
      "constant": false,
      "inputs": [
        {
          "name": "value",
          "type": "uint256"
        }
      ],
      "name": "Enter_quote",
      "outputs": [],
      "payable": false,
      "stateMutability": "nonpayable",
      "type": "function"
    },
    {
      "constant": true,
      "inputs": [],
      "name": "checkuser",
      "outputs": [
        {
          "name": "",
          "type": "uint256"
        }
      ],
      "payable": false,
      "stateMutability": "view",
      "type": "function"
    },
    {
      "constant": false,
      "inputs": [],
      "name": "unregister",
      "outputs": [],
      "payable": false,
      "stateMutability": "nonpayable",
      "type": "function"
    },
    {
      "constant": true,
      "inputs": [],
      "name": "backofwork",
      "outputs": [
        {
          "name": "",
          "type": "address[]"
        }
      ],
      "payable": false,
      "stateMutability": "view",
      "type": "function"
    },
    {
      "constant": true,
      "inputs": [],
      "name": "backvalnumber",
      "outputs": [
        {
          "name": "",
          "type": "uint256[]"
        }
      ],
      "payable": false,
      "stateMutability": "view",
      "type": "function"
    },
    {
      "constant": true,
      "inputs": [],
      "name": "backappnumber",
      "outputs": [
        {
          "name": "",
          "type": "uint256[]"
        }
      ],
      "payable": false,
      "stateMutability": "view",
      "type": "function"
    },
    {
      "constant": false,
      "inputs": [
        {
          "name": "number",
          "type": "uint256"
        },
        {
          "name": "appeal1",
          "type": "address"
        },
        {
          "name": "appeal2",
          "type": "address"
        },
        {
          "name": "appeal3",
          "type": "address"
        },
        {
          "name": "appeal4",
          "type": "address"
        },
        {
          "name": "appeal5",
          "type": "address"
        }
      ],
      "name": "appealdistribution",
      "outputs": [],
      "payable": false,
      "stateMutability": "nonpayable",
      "type": "function"
    },
    {
      "constant": true,
      "inputs": [
        {
          "name": "index",
          "type": "uint256"
        }
      ],
      "name": "appealesituation",
      "outputs": [
        {
          "name": "",
          "type": "uint256"
        }
      ],
      "payable": false,
      "stateMutability": "view",
      "type": "function"
    },
    {
      "constant": false,
      "inputs": [
        {
          "name": "index",
          "type": "uint256"
        },
        {
          "name": "value",
          "type": "uint256"
        }
      ],
      "name": "appealevaluate",
      "outputs": [],
      "payable": false,
      "stateMutability": "nonpayable",
      "type": "function"
    },
    {
      "constant": true,
      "inputs": [
        {
          "name": "index",
          "type": "uint256"
        }
      ],
      "name": "appealeschedule",
      "outputs": [
        {
          "name": "",
          "type": "uint256"
        }
      ],
      "payable": false,
      "stateMutability": "view",
      "type": "function"
    },
    {
      "constant": true,
      "inputs": [],
      "name": "backLeaderboard",
      "outputs": [
        {
          "name": "",
          "type": "uint256[]"
        }
      ],
      "payable": false,
      "stateMutability": "view",
      "type": "function"
    },
    {
      "constant": true,
      "inputs": [],
      "name": "backLength",
      "outputs": [
        {
          "name": "",
          "type": "uint256"
        }
      ],
      "payable": false,
      "stateMutability": "view",
      "type": "function"
    }
  ],
  "bytecode": "0x60806040526040805190810160405280600981526020017f546f6b656e20312e3000000000000000000000000000000000000000000000008152506002908051906020019062000051929190620001bf565b506001600b556065600f556305f5e100600660003373ffffffffffffffffffffffffffffffffffffffff1673ffffffffffffffffffffffffffffffffffffffff168152602001908152602001600020819055506040805190810160405280600981526020017f746f6b656e4e616d65000000000000000000000000000000000000000000000081525060039080519060200190620000f1929190620001bf565b506040805190810160405280600b81526020017f746f6b656e53796d626f6c000000000000000000000000000000000000000000815250600490805190602001906200013f929190620001bf565b5033600560006101000a81548173ffffffffffffffffffffffffffffffffffffffff021916908373ffffffffffffffffffffffffffffffffffffffff16021790555060016000806101000a81548160ff021916908360ff160217905550602860018190555060c8601660000181620001b8919062000246565b506200029d565b828054600181600116156101000203166002900490600052602060002090601f016020900481019282601f106200020257805160ff191683800117855562000233565b8280016001018555821562000233579182015b828111156200023257825182559160200191906001019062000215565b5b50905062000242919062000275565b5090565b81548183558181111562000270578183600052602060002091820191016200026f919062000275565b5b505050565b6200029a91905b80821115620002965760008160009055506001016200027c565b5090565b90565b61428980620002ad6000396000f300608060405260043610610196576000357c0100000000000000000000000000000000000000000000000000000000900463ffffffff16806309afc9101461019b5780631304b5b7146101c657806315596e5b14610293578063216573a0146102ff57806330e83d2d1461032a578063369236e214610355578063374d91d2146103965780634245369e146103c157806343b851a01461047157806344373603146104dd57806362c61f3414610508578063684ce2e514610574578063718d70fa146105a15780638c9ab83c146105f85780639c16a16b1461066b578063a4d2ce0014610918578063a603399614610943578063b03ca156146109af578063b99fc10a14610a1c578063c5f4f12a14610c6c578063cbb4cee414610c99578063d101af1a14610cda578063d67ee2ae14610d04578063d79875eb14610d3b578063d96a094a14610d65578063dcd1501714610d85578063e6615a0d14610dc6578063e79a198f14610e33578063f363e61314610e4a578063f97445a914610e75578063fc8ee8a914610eac578063fe83014514610f18575b600080fd5b3480156101a757600080fd5b506101b0610f43565b6040518082815260200191505060405180910390f35b3480156101d257600080fd5b5061029160048036038101908080359060200190929190803573ffffffffffffffffffffffffffffffffffffffff169060200190929190803573ffffffffffffffffffffffffffffffffffffffff169060200190929190803573ffffffffffffffffffffffffffffffffffffffff169060200190929190803573ffffffffffffffffffffffffffffffffffffffff169060200190929190803573ffffffffffffffffffffffffffffffffffffffff169060200190929190505050610f52565b005b34801561029f57600080fd5b506102a8610f68565b6040518080602001828103825283818151815260200191508051906020019060200280838360005b838110156102eb5780820151818401526020810190506102d0565b505050509050019250505060405180910390f35b34801561030b57600080fd5b50610314610f77565b6040518082815260200191505060405180910390f35b34801561033657600080fd5b5061033f610f86565b6040518082815260200191505060405180910390f35b34801561036157600080fd5b5061038060048036038101908080359060200190929190505050610f95565b6040518082815260200191505060405180910390f35b3480156103a257600080fd5b506103ab610fa6565b6040518082815260200191505060405180910390f35b3480156103cd57600080fd5b506103f66004803603810190808035906020019092919080359060200190929190505050610fb5565b6040518080602001828103825283818151815260200191508051906020019080838360005b8381101561043657808201518184015260208101905061041b565b50505050905090810190601f1680156104635780820380516001836020036101000a031916815260200191505b509250505060405180910390f35b34801561047d57600080fd5b50610486610fc9565b6040518080602001828103825283818151815260200191508051906020019060200280838360005b838110156104c95780820151818401526020810190506104ae565b505050509050019250505060405180910390f35b3480156104e957600080fd5b506104f2610fd8565b6040518082815260200191505060405180910390f35b34801561051457600080fd5b5061051d610fe7565b6040518080602001828103825283818151815260200191508051906020019060200280838360005b83811015610560578082015181840152602081019050610545565b505050509050019250505060405180910390f35b34801561058057600080fd5b5061059f60048036038101908080359060200190929190505050610ff6565b005b3480156105ad57600080fd5b506105e2600480360381019080803573ffffffffffffffffffffffffffffffffffffffff1690602001909291905050506110ac565b6040518082815260200191505060405180910390f35b34801561060457600080fd5b5061066960048036038101908080359060200190929190803590602001908201803590602001908080601f01602080910402602001604051908101604052809392919081815260200183838082843782019150505050505091929192905050506110c0565b005b34801561067757600080fd5b50610916600480360381019080803590602001908201803590602001908080601f0160208091040260200160405190810160405280939291908181526020018383808284378201915050505050509192919290803590602001908201803590602001908080601f0160208091040260200160405190810160405280939291908181526020018383808284378201915050505050509192919290803590602001908201803590602001908080601f0160208091040260200160405190810160405280939291908181526020018383808284378201915050505050509192919290803590602001908201803590602001908080601f0160208091040260200160405190810160405280939291908181526020018383808284378201915050505050509192919290803590602001908201803590602001908080601f0160208091040260200160405190810160405280939291908181526020018383808284378201915050505050509192919290803590602001908201803590602001908080601f0160208091040260200160405190810160405280939291908181526020018383808284378201915050505050509192919290803590602001908201803590602001908080601f0160208091040260200160405190810160405280939291908181526020018383808284378201915050505050509192919290803590602001908201803590602001908080601f016020809104026020016040519081016040528093929190818152602001838380828437820191505050505050919291929080359060200190929190803590602001908201803590602001908080601f0160208091040260200160405190810160405280939291908181526020018383808284378201915050505050509192919290803590602001909291905050506110ce565b005b34801561092457600080fd5b5061092d6110ee565b6040518082815260200191505060405180910390f35b34801561094f57600080fd5b506109586110fd565b6040518080602001828103825283818151815260200191508051906020019060200280838360005b8381101561099b578082015181840152602081019050610980565b505050509050019250505060405180910390f35b3480156109bb57600080fd5b506109da6004803603810190808035906020019092919050505061110c565b604051808273ffffffffffffffffffffffffffffffffffffffff1673ffffffffffffffffffffffffffffffffffffffff16815260200191505060405180910390f35b610c6a600480360381019080803590602001908201803590602001908080601f0160208091040260200160405190810160405280939291908181526020018383808284378201915050505050509192919290803590602001908201803590602001908080601f0160208091040260200160405190810160405280939291908181526020018383808284378201915050505050509192919290803590602001908201803590602001908080601f0160208091040260200160405190810160405280939291908181526020018383808284378201915050505050509192919290803590602001908201803590602001908080601f0160208091040260200160405190810160405280939291908181526020018383808284378201915050505050509192919290803590602001908201803590602001908080601f0160208091040260200160405190810160405280939291908181526020018383808284378201915050505050509192919290803590602001908201803590602001908080601f0160208091040260200160405190810160405280939291908181526020018383808284378201915050505050509192919290803590602001908201803590602001908080601f0160208091040260200160405190810160405280939291908181526020018383808284378201915050505050509192919290803590602001908201803590602001908080601f01602080910402602001604051908101604052809392919081815260200183838082843782019150505050505091929192908035906020019092919050505061111e565b005b348015610c7857600080fd5b50610c976004803603810190808035906020019092919050505061114e565b005b348015610ca557600080fd5b50610cc46004803603810190808035906020019092919050505061115a565b6040518082815260200191505060405180910390f35b610d02600480360381019080803590602001909291908035906020019092919050505061116c565b005b348015610d1057600080fd5b50610d39600480360381019080803590602001909291908035906020019092919050505061118a565b005b610d636004803603810190808035906020019092919080359060200190929190505050611199565b005b610d83600480360381019080803590602001909291905050506111a7565b005b348015610d9157600080fd5b50610db0600480360381019080803590602001909291905050506111b3565b6040518082815260200191505060405180910390f35b348015610dd257600080fd5b50610df1600480360381019080803590602001909291905050506111c5565b604051808273ffffffffffffffffffffffffffffffffffffffff1673ffffffffffffffffffffffffffffffffffffffff16815260200191505060405180910390f35b348015610e3f57600080fd5b50610e486111d7565b005b348015610e5657600080fd5b50610e5f6111e2565b6040518082815260200191505060405180910390f35b348015610e8157600080fd5b50610eaa60048036038101908080359060200190929190803590602001909291905050506111f1565b005b348015610eb857600080fd5b50610ec16111ff565b6040518080602001828103825283818151815260200191508051906020019060200280838360005b83811015610f04578082015181840152602081019050610ee9565b505050509050019250505060405180910390f35b348015610f2457600080fd5b50610f2d61120e565b6040518082815260200191505060405180910390f35b6000610f4d61121d565b905090565b610f60868686868686611227565b505050505050565b6060610f72611625565b905090565b6000610f816116b3565b905090565b6000610f906116fa565b905090565b6000610fa082611719565b50919050565b6000610fb061178a565b905090565b6060610fc183836117d1565b905092915050565b6060610fd361257e565b905090565b6000610fe2612613565b905090565b6060610ff1612624565b905090565b6001611001826126b9565b1415611017576110128160016126d6565b6110a9565b6110228160006126d6565b611035816110306001612795565b612857565b506001601a600083815260200190815260200160002060008282540192505081905550611061816129fa565b73ffffffffffffffffffffffffffffffffffffffff166108fc60649081150290604051600060405180830381858888f193505050501580156110a7573d6000803e3d6000fd5b505b50565b60006110b9826001612a3d565b9050919050565b6110ca8282612b0d565b5050565b6110e18b8b8b8b8b8b8b8b8b8b8b612b3f565b5050505050505050505050565b60006110f8612dff565b905090565b6060611107612e09565b905090565b6000611117826129fa565b9050919050565b61112f898989898989898989612e64565b6111428161113d6000612795565b612857565b50505050505050505050565b61115781612fb7565b50565b600061116582612ffe565b9050919050565b61117461301e565b61117d826130cb565b61118681612fb7565b5050565b611194828261332f565b505050565b6111a38282613697565b5050565b6111b0816130cb565b50565b60006111be826138d2565b9050919050565b60006111d0826138f5565b9050919050565b6111df613938565b50565b60006111ec613985565b905090565b6111fb82826139a4565b5050565b6060611209613aa1565b905090565b6000611218613b36565b905090565b6000600b54905090565b6001601160008773ffffffffffffffffffffffffffffffffffffffff1673ffffffffffffffffffffffffffffffffffffffff168152602001908152602001600020600082825401925050819055506001601160008673ffffffffffffffffffffffffffffffffffffffff1673ffffffffffffffffffffffffffffffffffffffff168152602001908152602001600020600082825401925050819055506001601160008573ffffffffffffffffffffffffffffffffffffffff1673ffffffffffffffffffffffffffffffffffffffff168152602001908152602001600020600082825401925050819055506001601160008473ffffffffffffffffffffffffffffffffffffffff1673ffffffffffffffffffffffffffffffffffffffff168152602001908152602001600020600082825401925050819055506001601160008373ffffffffffffffffffffffffffffffffffffffff1673ffffffffffffffffffffffffffffffffffffffff16815260200190815260200160002060008282540192505081905550601360008673ffffffffffffffffffffffffffffffffffffffff1673ffffffffffffffffffffffffffffffffffffffff168152602001908152602001600020869080600181540180825580915050906001820390600052602060002001600090919290919091505550601360008573ffffffffffffffffffffffffffffffffffffffff1673ffffffffffffffffffffffffffffffffffffffff168152602001908152602001600020869080600181540180825580915050906001820390600052602060002001600090919290919091505550601360008473ffffffffffffffffffffffffffffffffffffffff1673ffffffffffffffffffffffffffffffffffffffff168152602001908152602001600020869080600181540180825580915050906001820390600052602060002001600090919290919091505550601360008373ffffffffffffffffffffffffffffffffffffffff1673ffffffffffffffffffffffffffffffffffffffff168152602001908152602001600020869080600181540180825580915050906001820390600052602060002001600090919290919091505550601360008273ffffffffffffffffffffffffffffffffffffffff1673ffffffffffffffffffffffffffffffffffffffff1681526020019081526020016000208690806001815401808255809150509060018203906000526020600020016000909192909190915055506040805190810160405280600181526020017f320000000000000000000000000000000000000000000000000000000000000081525060086000016000888152602001908152602001600020600101908051906020019061161c929190614058565b50505050505050565b6060600e8054806020026020016040519081016040528092919081815260200182805480156116a957602002820191906000526020600020905b8160009054906101000a900473ffffffffffffffffffffffffffffffffffffffff1673ffffffffffffffffffffffffffffffffffffffff168152602001906001019080831161165f575b5050505050905090565b6000600760003373ffffffffffffffffffffffffffffffffffffffff1673ffffffffffffffffffffffffffffffffffffffff16815260200190815260200160002054905090565b60003373ffffffffffffffffffffffffffffffffffffffff1631905090565b600060016014600084815260200190815260200160002060000160003373ffffffffffffffffffffffffffffffffffffffff1673ffffffffffffffffffffffffffffffffffffffff1681526020019081526020016000205414156117805760009050611785565b600190505b919050565b6000600660003373ffffffffffffffffffffffffffffffffffffffff1673ffffffffffffffffffffffffffffffffffffffff16815260200190815260200160002054905090565b6060600182141561189557600860010160008481526020019081526020016000206000018054600181600116156101000203166002900480601f0160208091040260200160405190810160405280929190818152602001828054600181600116156101000203166002900480156118895780601f1061185e57610100808354040283529160200191611889565b820191906000526020600020905b81548152906001019060200180831161186c57829003601f168201915b50505050509050612578565b600282141561195757600860010160008481526020019081526020016000206001018054600181600116156101000203166002900480601f01602080910402602001604051908101604052809291908181526020018280546001816001161561010002031660029004801561194b5780601f106119205761010080835404028352916020019161194b565b820191906000526020600020905b81548152906001019060200180831161192e57829003601f168201915b50505050509050612578565b6003821415611a1957600860010160008481526020019081526020016000206002018054600181600116156101000203166002900480601f016020809104026020016040519081016040528092919081815260200182805460018160011615610100020316600290048015611a0d5780601f106119e257610100808354040283529160200191611a0d565b820191906000526020600020905b8154815290600101906020018083116119f057829003601f168201915b50505050509050612578565b6004821415611adb57600860010160008481526020019081526020016000206003018054600181600116156101000203166002900480601f016020809104026020016040519081016040528092919081815260200182805460018160011615610100020316600290048015611acf5780601f10611aa457610100808354040283529160200191611acf565b820191906000526020600020905b815481529060010190602001808311611ab257829003601f168201915b50505050509050612578565b6005821415611b9d57600860010160008481526020019081526020016000206004018054600181600116156101000203166002900480601f016020809104026020016040519081016040528092919081815260200182805460018160011615610100020316600290048015611b915780601f10611b6657610100808354040283529160200191611b91565b820191906000526020600020905b815481529060010190602001808311611b7457829003601f168201915b50505050509050612578565b6006821415611c5f57600860010160008481526020019081526020016000206005018054600181600116156101000203166002900480601f016020809104026020016040519081016040528092919081815260200182805460018160011615610100020316600290048015611c535780601f10611c2857610100808354040283529160200191611c53565b820191906000526020600020905b815481529060010190602001808311611c3657829003601f168201915b50505050509050612578565b6007821415611d2157600860010160008481526020019081526020016000206006018054600181600116156101000203166002900480601f016020809104026020016040519081016040528092919081815260200182805460018160011615610100020316600290048015611d155780601f10611cea57610100808354040283529160200191611d15565b820191906000526020600020905b815481529060010190602001808311611cf857829003601f168201915b50505050509050612578565b6008821415611de357600860010160008481526020019081526020016000206007018054600181600116156101000203166002900480601f016020809104026020016040519081016040528092919081815260200182805460018160011615610100020316600290048015611dd75780601f10611dac57610100808354040283529160200191611dd7565b820191906000526020600020905b815481529060010190602001808311611dba57829003601f168201915b50505050509050612578565b600a821415611ea557600860010160008481526020019081526020016000206009018054600181600116156101000203166002900480601f016020809104026020016040519081016040528092919081815260200182805460018160011615610100020316600290048015611e995780601f10611e6e57610100808354040283529160200191611e99565b820191906000526020600020905b815481529060010190602001808311611e7c57829003601f168201915b50505050509050612578565b600b821415611f6757600860000160008481526020019081526020016000206001018054600181600116156101000203166002900480601f016020809104026020016040519081016040528092919081815260200182805460018160011615610100020316600290048015611f5b5780601f10611f3057610100808354040283529160200191611f5b565b820191906000526020600020905b815481529060010190602001808311611f3e57829003601f168201915b50505050509050612578565b600c82141561202957600860020160008481526020019081526020016000206000018054600181600116156101000203166002900480601f01602080910402602001604051908101604052809291908181526020018280546001816001161561010002031660029004801561201d5780601f10611ff25761010080835404028352916020019161201d565b820191906000526020600020905b81548152906001019060200180831161200057829003601f168201915b50505050509050612578565b600d8214156120eb57600860020160008481526020019081526020016000206001018054600181600116156101000203166002900480601f0160208091040260200160405190810160405280929190818152602001828054600181600116156101000203166002900480156120df5780601f106120b4576101008083540402835291602001916120df565b820191906000526020600020905b8154815290600101906020018083116120c257829003601f168201915b50505050509050612578565b600e8214156121ad57600860020160008481526020019081526020016000206002018054600181600116156101000203166002900480601f0160208091040260200160405190810160405280929190818152602001828054600181600116156101000203166002900480156121a15780601f10612176576101008083540402835291602001916121a1565b820191906000526020600020905b81548152906001019060200180831161218457829003601f168201915b50505050509050612578565b600f82141561226f57600860020160008481526020019081526020016000206003018054600181600116156101000203166002900480601f0160208091040260200160405190810160405280929190818152602001828054600181600116156101000203166002900480156122635780601f1061223857610100808354040283529160200191612263565b820191906000526020600020905b81548152906001019060200180831161224657829003601f168201915b50505050509050612578565b601082141561233157600860020160008481526020019081526020016000206004018054600181600116156101000203166002900480601f0160208091040260200160405190810160405280929190818152602001828054600181600116156101000203166002900480156123255780601f106122fa57610100808354040283529160200191612325565b820191906000526020600020905b81548152906001019060200180831161230857829003601f168201915b50505050509050612578565b60118214156123f357600860020160008481526020019081526020016000206005018054600181600116156101000203166002900480601f0160208091040260200160405190810160405280929190818152602001828054600181600116156101000203166002900480156123e75780601f106123bc576101008083540402835291602001916123e7565b820191906000526020600020905b8154815290600101906020018083116123ca57829003601f168201915b50505050509050612578565b60128214156124b557600860020160008481526020019081526020016000206006018054600181600116156101000203166002900480601f0160208091040260200160405190810160405280929190818152602001828054600181600116156101000203166002900480156124a95780601f1061247e576101008083540402835291602001916124a9565b820191906000526020600020905b81548152906001019060200180831161248c57829003601f168201915b50505050509050612578565b601382141561257757600860020160008481526020019081526020016000206007018054600181600116156101000203166002900480601f01602080910402602001604051908101604052809291908181526020018280546001816001161561010002031660029004801561256b5780601f106125405761010080835404028352916020019161256b565b820191906000526020600020905b81548152906001019060200180831161254e57829003601f168201915b50505050509050612578565b5b92915050565b6060601360003373ffffffffffffffffffffffffffffffffffffffff1673ffffffffffffffffffffffffffffffffffffffff16815260200190815260200160002080548060200260200160405190810160405280929190818152602001828054801561260957602002820191906000526020600020905b8154815260200190600101908083116125f5575b5050505050905090565b600061261f6016613b7d565b905090565b6060601260003373ffffffffffffffffffffffffffffffffffffffff1673ffffffffffffffffffffffffffffffffffffffff1681526020019081526020016000208054806020026020016040519081016040528092919081815260200182805480156126af57602002820191906000526020600020905b81548152602001906001019080831161269b575b5050505050905090565b6000601a6000838152602001908152602001600020549050919050565b6001811415612743576040805190810160405280600181526020017f3400000000000000000000000000000000000000000000000000000000000000815250600860000160008481526020019081526020016000206001019080519060200190612741929190614058565b505b6001601160003373ffffffffffffffffffffffffffffffffffffffff1673ffffffffffffffffffffffffffffffffffffffff168152602001908152602001600020600082825403925050819055505050565b6000806000806000925060009150600090505b600e8054905081101561284f576127f8600e828154811015156127c757fe5b9060005260206000200160009054906101000a900473ffffffffffffffffffffffffffffffffffffffff1686612a3d565b91508282111561284257819250600e8181548110151561281457fe5b9060005260206000200160009054906101000a900473ffffffffffffffffffffffffffffffffffffffff1693505b80806001019150506127a8565b505050919050565b6000606060006001601160008673ffffffffffffffffffffffffffffffffffffffff1673ffffffffffffffffffffffffffffffffffffffff168152602001908152602001600020600082825401925050819055506128b58585613b8b565b601260008573ffffffffffffffffffffffffffffffffffffffff1673ffffffffffffffffffffffffffffffffffffffff16815260200190815260200160002080548060200260200160405190810160405280929190818152602001828054801561293e57602002820191906000526020600020905b81548152602001906001019080831161292a575b50505050509150600090505b81518110156129885784828281518110151561296257fe5b90602001906020020151141561297b57600092506129f2565b808060010191505061294a565b601260008573ffffffffffffffffffffffffffffffffffffffff1673ffffffffffffffffffffffffffffffffffffffff1681526020019081526020016000208590806001815401808255809150509060018203906000526020600020016000909192909190915055505b505092915050565b60006008600001600083815260200190815260200160002060030160009054906101000a900473ffffffffffffffffffffffffffffffffffffffff169050919050565b600080601160008573ffffffffffffffffffffffffffffffffffffffff1673ffffffffffffffffffffffffffffffffffffffff168152602001908152602001600020549050600581101515612a955760009150612b06565b6000831415612af45780600503601060008673ffffffffffffffffffffffffffffffffffffffff1673ffffffffffffffffffffffffffffffffffffffff16815260200190815260200160002054612aeb86613be7565b02029150612b05565b80600503612b0185613be7565b0291505b5b5092915050565b80600860000160008481526020019081526020016000206001019080519060200190612b3a929190614058565b505050565b612b476140d8565b610140604051908101604052808d81526020018c81526020018b81526020018a815260200189815260200188815260200187815260200186815260200185815260200184815250905080600860010160008481526020019081526020016000206000820151816000019080519060200190612bc392919061412c565b506020820151816001019080519060200190612be092919061412c565b506040820151816002019080519060200190612bfd92919061412c565b506060820151816003019080519060200190612c1a92919061412c565b506080820151816004019080519060200190612c3792919061412c565b5060a0820151816005019080519060200190612c5492919061412c565b5060c0820151816006019080519060200190612c7192919061412c565b5060e0820151816007019080519060200190612c8e92919061412c565b506101008201518160080155610120820151816009019080519060200190612cb792919061412c565b509050506040805190810160405280600181526020017f3000000000000000000000000000000000000000000000000000000000000000815250600860000160008481526020019081526020016000206001019080519060200190612d1d929190614058565b50336008600001600084815260200190815260200160002060030160006101000a81548173ffffffffffffffffffffffffffffffffffffffff021916908373ffffffffffffffffffffffffffffffffffffffff160217905550600c60003373ffffffffffffffffffffffffffffffffffffffff1673ffffffffffffffffffffffffffffffffffffffff168152602001908152602001600020829080600181540180825580915050906001820390600052602060002001600090919290919091505550600b60008154809291906001019190505550505050505050505050505050565b6000600154905090565b60606016600001805480602002602001604051908101604052809291908181526020018280548015612e5a57602002820191906000526020600020905b815481526020019060010190808311612e46575b5050505050905090565b612e6c6141ac565b610100604051908101604052808b81526020018a815260200189815260200188815260200187815260200186815260200185815260200184815250905080600860020160008481526020019081526020016000206000820151816000019080519060200190612edc92919061412c565b506020820151816001019080519060200190612ef992919061412c565b506040820151816002019080519060200190612f1692919061412c565b506060820151816003019080519060200190612f3392919061412c565b506080820151816004019080519060200190612f5092919061412c565b5060a0820151816005019080519060200190612f6d92919061412c565b5060c0820151816006019080519060200190612f8a92919061412c565b5060e0820151816007019080519060200190612fa792919061412c565b5090505050505050505050505050565b80601060003373ffffffffffffffffffffffffffffffffffffffff1673ffffffffffffffffffffffffffffffffffffffff1681526020019081526020016000208190555050565b600060146000838152602001908152602001600020600101549050919050565b6001600d60003373ffffffffffffffffffffffffffffffffffffffff1673ffffffffffffffffffffffffffffffffffffffff16815260200190815260200160002081905550600e3390806001815401808255809150509060018203906000526020600020016000909192909190916101000a81548173ffffffffffffffffffffffffffffffffffffffff021916908373ffffffffffffffffffffffffffffffffffffffff16021790555050565b8060066000600560009054906101000a900473ffffffffffffffffffffffffffffffffffffffff1673ffffffffffffffffffffffffffffffffffffffff1673ffffffffffffffffffffffffffffffffffffffff1681526020019081526020016000205411151561313a57600080fd5b60c981600660003373ffffffffffffffffffffffffffffffffffffffff1673ffffffffffffffffffffffffffffffffffffffff168152602001908152602001600020540110151561318a57600080fd5b600760003373ffffffffffffffffffffffffffffffffffffffff1673ffffffffffffffffffffffffffffffffffffffff1681526020019081526020016000206000815480929190600101919050555080600660003373ffffffffffffffffffffffffffffffffffffffff1673ffffffffffffffffffffffffffffffffffffffff168152602001908152602001600020600082825401925050819055508060066000600560009054906101000a900473ffffffffffffffffffffffffffffffffffffffff1673ffffffffffffffffffffffffffffffffffffffff1673ffffffffffffffffffffffffffffffffffffffff16815260200190815260200160002060008282540392505081905550806001600082825401925050819055503373ffffffffffffffffffffffffffffffffffffffff16600560009054906101000a900473ffffffffffffffffffffffffffffffffffffffff1673ffffffffffffffffffffffffffffffffffffffff167fddf252ad1be2c89b69c2b068fc378daa952ba7f163c4a11628f55a4df523b3ef836040518082815260200191505060405180910390a350565b60008060008091506000905060016014600087815260200190815260200160002060000160003373ffffffffffffffffffffffffffffffffffffffff1673ffffffffffffffffffffffffffffffffffffffff16815260200190815260200160002054141561339c57600080fd5b6001601160003373ffffffffffffffffffffffffffffffffffffffff1673ffffffffffffffffffffffffffffffffffffffff16815260200190815260200160002060008282540392505081905550601560008681526020019081526020016000203390806001815401808255809150509060018203906000526020600020016000909192909190916101000a81548173ffffffffffffffffffffffffffffffffffffffff021916908373ffffffffffffffffffffffffffffffffffffffff160217905550506001601460008781526020019081526020016000206001016000828254019250508190555083601460008781526020019081526020016000206002016000828254019250508190555060016014600087815260200190815260200160002060000160003373ffffffffffffffffffffffffffffffffffffffff1673ffffffffffffffffffffffffffffffffffffffff1681526020019081526020016000208190555060056014600087815260200190815260200160002060010154141561368e576101f46008600101600087815260200190815260200160002060080154029150601460008681526020019081526020016000206002015490506040805190810160405280600181526020017f33000000000000000000000000000000000000000000000000000000000000008152506008600001600087815260200190815260200160002060010190805190602001906135bd929190614058565b50605f810282111561363c57606981028210156135ea576135e18560646000613c30565b6000925061368f565b6005818115156135f657fe5b04600860010160008781526020019081526020016000206008018190555061363385613629613624886138f5565b613dee565b6002026001613c30565b6001925061368f565b60058181151561364857fe5b0460086001016000878152602001908152602001600020600801819055506136858561367b613676886138f5565b613dee565b6002026001613c30565b6001925061368f565b5b505092915050565b81600660003373ffffffffffffffffffffffffffffffffffffffff1673ffffffffffffffffffffffffffffffffffffffff16815260200190815260200160002054101515156136e557600080fd5b600760003373ffffffffffffffffffffffffffffffffffffffff1673ffffffffffffffffffffffffffffffffffffffff168152602001908152602001600020600081548092919060010191905055508160066000600560009054906101000a900473ffffffffffffffffffffffffffffffffffffffff1673ffffffffffffffffffffffffffffffffffffffff1673ffffffffffffffffffffffffffffffffffffffff1681526020019081526020016000206000828254019250508190555081600660003373ffffffffffffffffffffffffffffffffffffffff1673ffffffffffffffffffffffffffffffffffffffff16815260200190815260200160002060008282540392505081905550816001600082825403925050819055503373ffffffffffffffffffffffffffffffffffffffff166108fc829081150290604051600060405180830381858888f19350505050158015613846573d6000803e3d6000fd5b50600560009054906101000a900473ffffffffffffffffffffffffffffffffffffffff1673ffffffffffffffffffffffffffffffffffffffff163373ffffffffffffffffffffffffffffffffffffffff167fddf252ad1be2c89b69c2b068fc378daa952ba7f163c4a11628f55a4df523b3ef846040518082815260200191505060405180910390a35050565b600060086001016000838152602001908152602001600020600801549050919050565b60006008600001600083815260200190815260200160002060020160009054906101000a900473ffffffffffffffffffffffffffffffffffffffff169050919050565b600080600d60003373ffffffffffffffffffffffffffffffffffffffff1673ffffffffffffffffffffffffffffffffffffffff168152602001908152602001600020819055506001905090565b60003073ffffffffffffffffffffffffffffffffffffffff1631905090565b60006139af33613dee565b90508160086001016000858152602001908152602001600020600801819055506040805190810160405280600181526020017f3100000000000000000000000000000000000000000000000000000000000000815250600860000160008581526020019081526020016000206001019080519060200190613a31929190614058565b50613a3d8360006126d6565b613a473382613e3a565b3373ffffffffffffffffffffffffffffffffffffffff166108fc826064039081150290604051600060405180830381858888f19350505050158015613a90573d6000803e3d6000fd5b50613a9c601684613f0a565b505050565b6060600c60003373ffffffffffffffffffffffffffffffffffffffff1673ffffffffffffffffffffffffffffffffffffffff168152602001908152602001600020805480602002602001604051908101604052809291908181526020018280548015613b2c57602002820191906000526020600020905b815481526020019060010190808311613b18575b5050505050905090565b6000600d60003373ffffffffffffffffffffffffffffffffffffffff1673ffffffffffffffffffffffffffffffffffffffff16815260200190815260200160002054905090565b600081600301549050919050565b806008600001600084815260200190815260200160002060020160006101000a81548173ffffffffffffffffffffffffffffffffffffffff021916908373ffffffffffffffffffffffffffffffffffffffff1602179055505050565b6000600660008373ffffffffffffffffffffffffffffffffffffffff1673ffffffffffffffffffffffffffffffffffffffff168152602001908152602001600020549050919050565b6000613c3a6141f2565b613c426141f2565b613c4a614215565b6000809450600090505b6005811015613d48576015600089815260200190815260200160002081815481101515613c7d57fe5b9060005260206000200160009054906101000a900473ffffffffffffffffffffffffffffffffffffffff168282600581101515613cb657fe5b602002019073ffffffffffffffffffffffffffffffffffffffff16908173ffffffffffffffffffffffffffffffffffffffff1681525050613d088282600581101515613cfe57fe5b6020020151613be7565b81600503028482600581101515613d1b57fe5b6020020181815250508381600581101515613d3257fe5b6020020151850194508080600101915050613c54565b600090505b6005811015613dc857848482600581101515613d6557fe5b6020020151811515613d7357fe5b0487028382600581101515613d8457fe5b602002018181525050613dbb8282600581101515613d9e57fe5b60200201518483600581101515613db157fe5b6020020151613e3a565b8080600101915050613d4d565b6001861415613de457613de3613ddd896138f5565b88613f88565b5b5050505050505050565b60006064601060008473ffffffffffffffffffffffffffffffffffffffff1673ffffffffffffffffffffffffffffffffffffffff16815260200190815260200160002054039050919050565b80600660008473ffffffffffffffffffffffffffffffffffffffff1673ffffffffffffffffffffffffffffffffffffffff168152602001908152602001600020600082825401925050819055508060066000600560009054906101000a900473ffffffffffffffffffffffffffffffffffffffff1673ffffffffffffffffffffffffffffffffffffffff1673ffffffffffffffffffffffffffffffffffffffff16815260200190815260200160002060008282540392505081905550806001600082825401925050819055505050565b8160010154600f546001846002015401811515613f2357fe5b061415613f2f57613f84565b80826000018360020154815481101515613f4557fe5b906000526020600020018190555060018260030160008282540192505081905550600f546001836002015401811515613f7a57fe5b0682600201819055505b5050565b80600660008473ffffffffffffffffffffffffffffffffffffffff1673ffffffffffffffffffffffffffffffffffffffff168152602001908152602001600020600082825403925050819055508060066000600560009054906101000a900473ffffffffffffffffffffffffffffffffffffffff1673ffffffffffffffffffffffffffffffffffffffff1673ffffffffffffffffffffffffffffffffffffffff16815260200190815260200160002060008282540192505081905550806001600082825403925050819055505050565b828054600181600116156101000203166002900490600052602060002090601f016020900481019282601f1061409957805160ff19168380011785556140c7565b828001600101855582156140c7579182015b828111156140c65782518255916020019190600101906140ab565b5b5090506140d49190614238565b5090565b61014060405190810160405280606081526020016060815260200160608152602001606081526020016060815260200160608152602001606081526020016060815260200160008152602001606081525090565b828054600181600116156101000203166002900490600052602060002090601f016020900481019282601f1061416d57805160ff191683800117855561419b565b8280016001018555821561419b579182015b8281111561419a57825182559160200191906001019061417f565b5b5090506141a89190614238565b5090565b6101006040519081016040528060608152602001606081526020016060815260200160608152602001606081526020016060815260200160608152602001606081525090565b60a060405190810160405280600590602082028038833980820191505090505090565b60a060405190810160405280600590602082028038833980820191505090505090565b61425a91905b8082111561425657600081600090555060010161423e565b5090565b905600a165627a7a72305820a182074a73ef6b0591676d51adedf0799e291db4ccc0cfd2de133bd36b60213b0029",
  "source": "pragma solidity ^0.4.24;\n\nimport \"./assign.sol\";\n\ncontract demo is assign{\n    mapping(uint => uint) backrecord;\n    /*****************************/\n    /*****************************/\n    /**\n     * guobin\n     * \n    */\n    function addvaluation(\n        string memory Frame_number,             //\n        string memory Number_plate,             //\n        string memory Vehicle_type,             //\n        string memory Brand_number,             //\n        string memory car_displacement,         //L\n        string memory approval_passengers,      //\n        string memory Engine_number,            //\n        string memory Manufacture_date,         //\n        uint          Evaluation,               //\n        string memory Timestammp,               //\n        uint evaluation_index                   //(js,ipfs,)\n        ) public {\n        _addvaluation(Frame_number,Number_plate,Vehicle_type,Brand_number,car_displacement,approval_passengers,Engine_number,Manufacture_date,Evaluation,Timestammp,evaluation_index); //\n    }\n\n    /**\n     * guobin\n     * \n    */\n    function addphoto(\n        string memory photo1,\n        string memory photo2,\n        string memory photo3,\n        string memory photo4,\n        string memory photo5,\n        string memory photo6,\n        string memory photo7,\n        string memory photo8,\n        uint evaluation_index\n    ) public payable {\n        _addphoto(photo1,photo2,photo3,photo4,photo5,photo6,photo7,photo8,evaluation_index);\n        distribution(evaluation_index,statistic(0));             //\n    }\n\n    /**\n     * guobin\n     * \n    */\n    function backordernumber() view public returns (uint) {\n        return _backordernumber();\n    }\n\n\n    /**\n     * guobin\n     * \n    */\n    function backwork(uint evaluation_index) public {\n        if(checkbackstate(evaluation_index) == 1) {\n            finishwork(evaluation_index,1);\n        }\n        else {\n            finishwork(evaluation_index,0);\n            distribution(evaluation_index,statistic(1));             //\n            backrecord[evaluation_index] += 1;\n            _getcreator(evaluation_index).transfer(100);\n        }\n    }\n\n    /**\n     * guobin\n     * \n    */\n    function checkbackstate(uint evaluation_index) internal view returns (uint) {\n        return backrecord[evaluation_index];\n    }\n\n    /**\n     * guobin\n     * \n    */\n    function evaluate(uint index,uint value) public {\n        _evaluate(index,value);\n    }\n\n    /**\n     * guobin\n     * \n    */\n    function backvaluation() view public returns (uint[]) {\n        return _backvaluation();\n    }\n\n    /**\n     * guobin\n     * \n    */\n    function setstate(uint index,string condition) public {\n        _setstate(index,condition);\n    }\n\n    /**\n     * guobin\n     * \n    */\n    function displayvalue(uint index) view public returns (uint) {\n        return _displayvalue(index);\n    }\n\n    /**\n     * guobin\n     * \n    */\n    function displayinfo(uint index,uint num) view public returns (string) {\n        return _displayinfo(index,num);\n    }\n\n    /**\n     * guobin\n     * \n    */\n    function getcreator(uint index) view public returns(address) {\n        return _getcreator(index);\n    }\n\n    /**\n     * guobin\n     * \n    */\n    function getassessor(uint index) view public returns(address) {\n        return _getassessor(index);\n    }\n\n    /*****************************/\n    /**\n     * guobin\n     * \n    */\n    function buy(uint amount) public payable {\n        _buy(amount);\n    }\n    \n    /**\n     * guobin\n     * \n    */\n    function sell(uint256 amount,uint256 eth_amount) public payable {\n        _sell(amount,eth_amount);\n    }\n\n    /**\n     * guobin\n     * \n    */\n    function displaybalance() view public returns (uint256) {\n        return _displaybalance();\n    } \n\n    /**\n     * guobin\n     * \n    */\n    function displayethbalance() view public returns (uint256) {\n        return _displayethbalance();\n    } \n\n    /**\n     * guobin\n     * \n    */\n    function displayaccount() view public returns (uint256) {\n        return _displayaccount();\n    } \n\n    /**\n     * guobin\n     * \n    */\n    function displayaccountforarbitrage(address send) public view returns (uint) {\n        return calc(send,1);\n    }\n\n    /**\n     * guobin\n     * \n    */\n    function displaytoken() view public returns (uint256) {\n        return _displaytoken();\n    } \n\n    /**\n     * guobin\n     * \n    */\n    function distranumber() view public returns (uint256) {\n        return _distranumber();\n    } \n\n\n\n    /*****************************/\n    /**\n     * guobin\n     * \n    */\n    function registertest(uint amount,uint scale) public payable {          \n        _registertest();\n        _buy(amount);\n        _Enter_quote(scale);\n    }\n\n    /**\n     * guobin\n     * \n    */\n    function Enter_quote(uint value) public {                               \n        _Enter_quote(value);\n    }\n    \n    /**\n     * guobin\n     * 10\n    */\n    function checkuser() view public returns (uint) {                       \n        return _checkuser();\n    }\n\n    /**\n     * guobin\n     * \n    */\n    function unregister() public {                                          \n        _unregister();\n    }\n\n    /**\n     * guobin\n     * \n    */\n    function backofwork() view public returns (address[]) {\n        return _backofwork();\n    }\n\n    /**\n     * guobin\n     * \n    */\n    function backvalnumber() view public returns (uint[]) {\n        return _backvalnumber();\n    }\n\n\n    /*****************************/\n    /**\n     * guobin\n     * \n    */\n    function backappnumber() view public returns (uint[]) {\n        return _backappnumber();\n    }\n\n    /**\n     * guobin\n     * \n    */\n    function appealdistribution(uint number,address appeal1,address appeal2,address appeal3,address appeal4,address appeal5) public {\n        _appealdistribution(number,appeal1,appeal2,appeal3,appeal4,appeal5);\n    }\n\n    /**\n     * guobin\n     * \n    */\n    function appealesituation(uint index) public view  returns (uint) {\n        _appealesituation(index);\n    }\n\n    /**\n     * guobin\n     * \n    */\n    function appealevaluate(uint index,uint value) public {\n        _appealevaluate(index,value);\n    }\n\n    /**\n     * guobin\n     * \n    */\n    function appealeschedule(uint index) public view returns (uint) {\n        return _appealeschedule(index);\n    }\n\n    /**\n     * guobin\n     * \n    */\n    function backLeaderboard() public view returns (uint[]) {\n        return _backLeaderboard();\n    }\n\n    /**\n     * guobin\n     * \n    */\n    function backLength() public view returns (uint) {\n        return _backLength();\n    }\n}\n",
  "sourcePath": "/blockpro/evaluation-system/contracts/demo.sol",
  "compiler": {
    "name": "solc",
    "version": "0.4.24+commit.e67f0147.Emscripten.clang"
  },
  "schemaVersion": "2.0.1",
  "updatedAt": "2019-04-30T03:38:29.245Z"
}