{
  "contractName": "demo",
  "abi": [
    {
      "constant": false,
      "inputs": [
        {
          "name": "rewarder",
          "type": "address"
        },
        {
          "name": "amount",
          "type": "uint256"
        }
      ],
      "name": "reward",
      "outputs": [],
      "payable": false,
      "stateMutability": "nonpayable",
      "type": "function"
    },
    {
      "constant": false,
      "inputs": [
        {
          "name": "punisher",
          "type": "address"
        },
        {
          "name": "amount",
          "type": "uint256"
        }
      ],
      "name": "punish",
      "outputs": [],
      "payable": false,
      "stateMutability": "nonpayable",
      "type": "function"
    },
    {
      "anonymous": false,
      "inputs": [
        {
          "indexed": true,
          "name": "from",
          "type": "address"
        },
        {
          "indexed": true,
          "name": "to",
          "type": "address"
        },
        {
          "indexed": false,
          "name": "value",
          "type": "uint256"
        }
      ],
      "name": "Transfer",
      "type": "event"
    },
    {
      "anonymous": false,
      "inputs": [
        {
          "indexed": true,
          "name": "to",
          "type": "address"
        },
        {
          "indexed": false,
          "name": "value",
          "type": "uint256"
        }
      ],
      "name": "Reward",
      "type": "event"
    },
    {
      "anonymous": false,
      "inputs": [
        {
          "indexed": true,
          "name": "to",
          "type": "address"
        },
        {
          "indexed": false,
          "name": "value",
          "type": "uint256"
        }
      ],
      "name": "Punishment",
      "type": "event"
    },
    {
      "constant": false,
      "inputs": [
        {
          "name": "Frame_number",
          "type": "string"
        },
        {
          "name": "Number_plate",
          "type": "string"
        },
        {
          "name": "Vehicle_type",
          "type": "string"
        },
        {
          "name": "Brand_number",
          "type": "string"
        },
        {
          "name": "Engine_number",
          "type": "string"
        },
        {
          "name": "Manufacture_date",
          "type": "string"
        },
        {
          "name": "Evaluation",
          "type": "string"
        },
        {
          "name": "Timestammp",
          "type": "string"
        },
        {
          "name": "evaluation_index",
          "type": "uint256"
        }
      ],
      "name": "addvaluation",
      "outputs": [],
      "payable": false,
      "stateMutability": "nonpayable",
      "type": "function"
    },
    {
      "constant": false,
      "inputs": [
        {
          "name": "photo1",
          "type": "string"
        },
        {
          "name": "photo2",
          "type": "string"
        },
        {
          "name": "photo3",
          "type": "string"
        },
        {
          "name": "photo4",
          "type": "string"
        },
        {
          "name": "photo5",
          "type": "string"
        },
        {
          "name": "photo6",
          "type": "string"
        },
        {
          "name": "photo7",
          "type": "string"
        },
        {
          "name": "photo8",
          "type": "string"
        },
        {
          "name": "evaluation_index",
          "type": "uint256"
        }
      ],
      "name": "addphoto",
      "outputs": [],
      "payable": true,
      "stateMutability": "payable",
      "type": "function"
    },
    {
      "constant": false,
      "inputs": [
        {
          "name": "evaluation_index",
          "type": "uint256"
        }
      ],
      "name": "backwork",
      "outputs": [],
      "payable": false,
      "stateMutability": "nonpayable",
      "type": "function"
    },
    {
      "constant": false,
      "inputs": [
        {
          "name": "index",
          "type": "uint256"
        },
        {
          "name": "value",
          "type": "string"
        }
      ],
      "name": "evaluate",
      "outputs": [],
      "payable": false,
      "stateMutability": "nonpayable",
      "type": "function"
    },
    {
      "constant": true,
      "inputs": [],
      "name": "backvaluation",
      "outputs": [
        {
          "name": "",
          "type": "uint256[]"
        }
      ],
      "payable": false,
      "stateMutability": "view",
      "type": "function"
    },
    {
      "constant": false,
      "inputs": [
        {
          "name": "index",
          "type": "uint256"
        },
        {
          "name": "condition",
          "type": "string"
        }
      ],
      "name": "setstate",
      "outputs": [],
      "payable": false,
      "stateMutability": "nonpayable",
      "type": "function"
    },
    {
      "constant": true,
      "inputs": [
        {
          "name": "index",
          "type": "uint256"
        },
        {
          "name": "num",
          "type": "uint256"
        }
      ],
      "name": "display",
      "outputs": [
        {
          "name": "",
          "type": "string"
        }
      ],
      "payable": false,
      "stateMutability": "view",
      "type": "function"
    },
    {
      "constant": false,
      "inputs": [
        {
          "name": "amount",
          "type": "uint256"
        }
      ],
      "name": "buy",
      "outputs": [],
      "payable": true,
      "stateMutability": "payable",
      "type": "function"
    },
    {
      "constant": false,
      "inputs": [
        {
          "name": "amount",
          "type": "uint256"
        },
        {
          "name": "eth_amount",
          "type": "uint256"
        }
      ],
      "name": "sell",
      "outputs": [],
      "payable": true,
      "stateMutability": "payable",
      "type": "function"
    },
    {
      "constant": true,
      "inputs": [],
      "name": "displaybalance",
      "outputs": [
        {
          "name": "",
          "type": "uint256"
        }
      ],
      "payable": false,
      "stateMutability": "view",
      "type": "function"
    },
    {
      "constant": true,
      "inputs": [],
      "name": "displayethbalance",
      "outputs": [
        {
          "name": "",
          "type": "uint256"
        }
      ],
      "payable": false,
      "stateMutability": "view",
      "type": "function"
    },
    {
      "constant": true,
      "inputs": [],
      "name": "displayaccount",
      "outputs": [
        {
          "name": "",
          "type": "uint256"
        }
      ],
      "payable": false,
      "stateMutability": "view",
      "type": "function"
    },
    {
      "constant": true,
      "inputs": [
        {
          "name": "send",
          "type": "address"
        }
      ],
      "name": "displayaccountforarbitrage",
      "outputs": [
        {
          "name": "",
          "type": "uint256"
        }
      ],
      "payable": false,
      "stateMutability": "view",
      "type": "function"
    },
    {
      "constant": true,
      "inputs": [],
      "name": "displaytoken",
      "outputs": [
        {
          "name": "",
          "type": "uint256"
        }
      ],
      "payable": false,
      "stateMutability": "view",
      "type": "function"
    },
    {
      "constant": true,
      "inputs": [],
      "name": "distranumber",
      "outputs": [
        {
          "name": "",
          "type": "uint256"
        }
      ],
      "payable": false,
      "stateMutability": "view",
      "type": "function"
    },
    {
      "constant": false,
      "inputs": [
        {
          "name": "amount",
          "type": "uint256"
        },
        {
          "name": "scale",
          "type": "uint256"
        }
      ],
      "name": "registertest",
      "outputs": [],
      "payable": true,
      "stateMutability": "payable",
      "type": "function"
    },
    {
      "constant": false,
      "inputs": [
        {
          "name": "value",
          "type": "uint256"
        }
      ],
      "name": "Enter_quote",
      "outputs": [],
      "payable": false,
      "stateMutability": "nonpayable",
      "type": "function"
    },
    {
      "constant": true,
      "inputs": [],
      "name": "checkuser",
      "outputs": [
        {
          "name": "",
          "type": "uint256"
        }
      ],
      "payable": false,
      "stateMutability": "view",
      "type": "function"
    },
    {
      "constant": false,
      "inputs": [],
      "name": "unregister",
      "outputs": [],
      "payable": false,
      "stateMutability": "nonpayable",
      "type": "function"
    },
    {
      "constant": true,
      "inputs": [],
      "name": "backofwork",
      "outputs": [
        {
          "name": "",
          "type": "address[]"
        }
      ],
      "payable": false,
      "stateMutability": "view",
      "type": "function"
    },
    {
      "constant": true,
      "inputs": [],
      "name": "backvalnumber",
      "outputs": [
        {
          "name": "",
          "type": "uint256[]"
        }
      ],
      "payable": false,
      "stateMutability": "view",
      "type": "function"
    },
    {
      "constant": true,
      "inputs": [],
      "name": "backappnumber",
      "outputs": [
        {
          "name": "",
          "type": "uint256[]"
        }
      ],
      "payable": false,
      "stateMutability": "view",
      "type": "function"
    },
    {
      "constant": false,
      "inputs": [
        {
          "name": "number",
          "type": "uint256"
        },
        {
          "name": "appeal1",
          "type": "address"
        },
        {
          "name": "appeal2",
          "type": "address"
        },
        {
          "name": "appeal3",
          "type": "address"
        },
        {
          "name": "appeal4",
          "type": "address"
        },
        {
          "name": "appeal5",
          "type": "address"
        }
      ],
      "name": "appealdistribution",
      "outputs": [],
      "payable": false,
      "stateMutability": "nonpayable",
      "type": "function"
    },
    {
      "constant": false,
      "inputs": [
        {
          "name": "index",
          "type": "uint256"
        },
        {
          "name": "value",
          "type": "uint256"
        }
      ],
      "name": "appealevaluate",
      "outputs": [],
      "payable": false,
      "stateMutability": "nonpayable",
      "type": "function"
    },
    {
      "constant": true,
      "inputs": [
        {
          "name": "index",
          "type": "uint256"
        }
      ],
      "name": "appealeschedule",
      "outputs": [
        {
          "name": "",
          "type": "uint256"
        }
      ],
      "payable": false,
      "stateMutability": "view",
      "type": "function"
    }
  ],
  "bytecode": "0x60806040526040805190810160405280600981526020017f546f6b656e20312e300000000000000000000000000000000000000000000000815250600290805190602001906200005192919062000192565b506006600e556305f5e100600660003373ffffffffffffffffffffffffffffffffffffffff1673ffffffffffffffffffffffffffffffffffffffff168152602001908152602001600020819055506040805190810160405280600981526020017f746f6b656e4e616d65000000000000000000000000000000000000000000000081525060039080519060200190620000ec92919062000192565b506040805190810160405280600b81526020017f746f6b656e53796d626f6c000000000000000000000000000000000000000000815250600490805190602001906200013a92919062000192565b5033600560006101000a81548173ffffffffffffffffffffffffffffffffffffffff021916908373ffffffffffffffffffffffffffffffffffffffff1602179055506001600081905550602860018190555062000241565b828054600181600116156101000203166002900490600052602060002090601f016020900481019282601f10620001d557805160ff191683800117855562000206565b8280016001018555821562000206579182015b8281111562000205578251825591602001919060010190620001e8565b5b50905062000215919062000219565b5090565b6200023e91905b808211156200023a57600081600090555060010162000220565b5090565b90565b613cdd80620002516000396000f30060806040526004361061015f576000357c0100000000000000000000000000000000000000000000000000000000900463ffffffff1680631304b5b71461016457806315596e5b14610231578063216573a01461029d57806321670f22146102c85780632dd276e81461031557806330e83d2d1461057257806334681ef61461059d578063374d91d21461064d57806343b851a01461067857806362c61f34146106e4578063684ce2e514610750578063718d70fa1461077d5780638c9ab83c146107d4578063a4d2ce0014610847578063b99fc10a14610872578063c5f4f12a14610ac2578063cbb4cee414610aef578063d101af1a14610b30578063d67ee2ae14610b5a578063d79875eb14610b91578063d8e423b214610bbb578063d96a094a14610c08578063dd81afdd14610c28578063e79a198f14610c9b578063f363e61314610cb2578063fc8ee8a914610cdd578063fe83014514610d49575b600080fd5b34801561017057600080fd5b5061022f60048036038101908080359060200190929190803573ffffffffffffffffffffffffffffffffffffffff169060200190929190803573ffffffffffffffffffffffffffffffffffffffff169060200190929190803573ffffffffffffffffffffffffffffffffffffffff169060200190929190803573ffffffffffffffffffffffffffffffffffffffff169060200190929190803573ffffffffffffffffffffffffffffffffffffffff169060200190929190505050610d74565b005b34801561023d57600080fd5b50610246610d8a565b6040518080602001828103825283818151815260200191508051906020019060200280838360005b8381101561028957808201518184015260208101905061026e565b505050509050019250505060405180910390f35b3480156102a957600080fd5b506102b2610d99565b6040518082815260200191505060405180910390f35b3480156102d457600080fd5b50610313600480360381019080803573ffffffffffffffffffffffffffffffffffffffff16906020019092919080359060200190929190505050610da8565b005b34801561032157600080fd5b50610570600480360381019080803590602001908201803590602001908080601f0160208091040260200160405190810160405280939291908181526020018383808284378201915050505050509192919290803590602001908201803590602001908080601f0160208091040260200160405190810160405280939291908181526020018383808284378201915050505050509192919290803590602001908201803590602001908080601f0160208091040260200160405190810160405280939291908181526020018383808284378201915050505050509192919290803590602001908201803590602001908080601f0160208091040260200160405190810160405280939291908181526020018383808284378201915050505050509192919290803590602001908201803590602001908080601f0160208091040260200160405190810160405280939291908181526020018383808284378201915050505050509192919290803590602001908201803590602001908080601f0160208091040260200160405190810160405280939291908181526020018383808284378201915050505050509192919290803590602001908201803590602001908080601f0160208091040260200160405190810160405280939291908181526020018383808284378201915050505050509192919290803590602001908201803590602001908080601f016020809104026020016040519081016040528093929190818152602001838380828437820191505050505050919291929080359060200190929190505050610e78565b005b34801561057e57600080fd5b50610587610e94565b6040518082815260200191505060405180910390f35b3480156105a957600080fd5b506105d26004803603810190808035906020019092919080359060200190929190505050610ea3565b6040518080602001828103825283818151815260200191508051906020019080838360005b838110156106125780820151818401526020810190506105f7565b50505050905090810190601f16801561063f5780820380516001836020036101000a031916815260200191505b509250505060405180910390f35b34801561065957600080fd5b50610662610eb7565b6040518082815260200191505060405180910390f35b34801561068457600080fd5b5061068d610ec6565b6040518080602001828103825283818151815260200191508051906020019060200280838360005b838110156106d05780820151818401526020810190506106b5565b505050509050019250505060405180910390f35b3480156106f057600080fd5b506106f9610ed5565b6040518080602001828103825283818151815260200191508051906020019060200280838360005b8381101561073c578082015181840152602081019050610721565b505050509050019250505060405180910390f35b34801561075c57600080fd5b5061077b60048036038101908080359060200190929190505050610ee4565b005b34801561078957600080fd5b506107be600480360381019080803573ffffffffffffffffffffffffffffffffffffffff169060200190929190505050610f4c565b6040518082815260200191505060405180910390f35b3480156107e057600080fd5b5061084560048036038101908080359060200190929190803590602001908201803590602001908080601f0160208091040260200160405190810160405280939291908181526020018383808284378201915050505050509192919290505050610f60565b005b34801561085357600080fd5b5061085c610f6e565b6040518082815260200191505060405180910390f35b610ac0600480360381019080803590602001908201803590602001908080601f0160208091040260200160405190810160405280939291908181526020018383808284378201915050505050509192919290803590602001908201803590602001908080601f0160208091040260200160405190810160405280939291908181526020018383808284378201915050505050509192919290803590602001908201803590602001908080601f0160208091040260200160405190810160405280939291908181526020018383808284378201915050505050509192919290803590602001908201803590602001908080601f0160208091040260200160405190810160405280939291908181526020018383808284378201915050505050509192919290803590602001908201803590602001908080601f0160208091040260200160405190810160405280939291908181526020018383808284378201915050505050509192919290803590602001908201803590602001908080601f0160208091040260200160405190810160405280939291908181526020018383808284378201915050505050509192919290803590602001908201803590602001908080601f0160208091040260200160405190810160405280939291908181526020018383808284378201915050505050509192919290803590602001908201803590602001908080601f016020809104026020016040519081016040528093929190818152602001838380828437820191505050505050919291929080359060200190929190505050610f7d565b005b348015610ace57600080fd5b50610aed60048036038101908080359060200190929190505050610fad565b005b348015610afb57600080fd5b50610b1a60048036038101908080359060200190929190505050610fb9565b6040518082815260200191505060405180910390f35b610b586004803603810190808035906020019092919080359060200190929190505050610fcb565b005b348015610b6657600080fd5b50610b8f6004803603810190808035906020019092919080359060200190929190505050610fe9565b005b610bb96004803603810190808035906020019092919080359060200190929190505050610ff8565b005b348015610bc757600080fd5b50610c06600480360381019080803573ffffffffffffffffffffffffffffffffffffffff16906020019092919080359060200190929190505050611006565b005b610c26600480360381019080803590602001909291905050506110d6565b005b348015610c3457600080fd5b50610c9960048036038101908080359060200190929190803590602001908201803590602001908080601f01602080910402602001604051908101604052809392919081815260200183838082843782019150505050505091929192905050506110e2565b005b348015610ca757600080fd5b50610cb06110f0565b005b348015610cbe57600080fd5b50610cc76110fb565b6040518082815260200191505060405180910390f35b348015610ce957600080fd5b50610cf261110a565b6040518080602001828103825283818151815260200191508051906020019060200280838360005b83811015610d35578082015181840152602081019050610d1a565b505050509050019250505060405180910390f35b348015610d5557600080fd5b50610d5e611119565b6040518082815260200191505060405180910390f35b610d82868686868686611128565b505050505050565b6060610d94611508565b905090565b6000610da3611596565b905090565b80600660008473ffffffffffffffffffffffffffffffffffffffff1673ffffffffffffffffffffffffffffffffffffffff168152602001908152602001600020600082825401925050819055508060066000600560009054906101000a900473ffffffffffffffffffffffffffffffffffffffff1673ffffffffffffffffffffffffffffffffffffffff1673ffffffffffffffffffffffffffffffffffffffff16815260200190815260200160002060008282540392505081905550806001600082825401925050819055505050565b610e898989898989898989896115dd565b505050505050505050565b6000610e9e611854565b905090565b6060610eaf8383611873565b905092915050565b6000610ec161255e565b905090565b6060610ed06125a5565b905090565b6060610edf61263a565b905090565b6001610eef826126cf565b1415610f0657610f008160016126ec565b50610f49565b610f118160006126ec565b50610f2581610f2060016127aa565b61286c565b50600160156000838152602001908152602001600020600082825401925050819055505b50565b6000610f59826001612a05565b9050919050565b610f6a8282612b2c565b5050565b6000610f78612b5e565b905090565b610f8e898989898989898989612b68565b610fa181610f9c60006127aa565b61286c565b50505050505050505050565b610fb681612cbb565b50565b6000610fc482612d02565b9050919050565b610fd3612d22565b610fdc82612dcf565b610fe581612cbb565b5050565b610ff38282613033565b505050565b611002828261333f565b5050565b80600660008473ffffffffffffffffffffffffffffffffffffffff1673ffffffffffffffffffffffffffffffffffffffff168152602001908152602001600020600082825403925050819055508060066000600560009054906101000a900473ffffffffffffffffffffffffffffffffffffffff1673ffffffffffffffffffffffffffffffffffffffff1673ffffffffffffffffffffffffffffffffffffffff16815260200190815260200160002060008282540192505081905550806001600082825403925050819055505050565b6110df81612dcf565b50565b6110ec828261357a565b5050565b6110f861361b565b50565b6000611105613668565b905090565b6060611114613687565b905090565b600061112361371c565b905090565b611170601160008773ffffffffffffffffffffffffffffffffffffffff1673ffffffffffffffffffffffffffffffffffffffff16815260200190815260200160002087613763565b6111b8601160008673ffffffffffffffffffffffffffffffffffffffff1673ffffffffffffffffffffffffffffffffffffffff16815260200190815260200160002087613763565b611200601160008573ffffffffffffffffffffffffffffffffffffffff1673ffffffffffffffffffffffffffffffffffffffff16815260200190815260200160002087613763565b611248601160008473ffffffffffffffffffffffffffffffffffffffff1673ffffffffffffffffffffffffffffffffffffffff16815260200190815260200160002087613763565b611290601160008373ffffffffffffffffffffffffffffffffffffffff1673ffffffffffffffffffffffffffffffffffffffff16815260200190815260200160002087613763565b601360008673ffffffffffffffffffffffffffffffffffffffff1673ffffffffffffffffffffffffffffffffffffffff168152602001908152602001600020869080600181540180825580915050906001820390600052602060002001600090919290919091505550601360008573ffffffffffffffffffffffffffffffffffffffff1673ffffffffffffffffffffffffffffffffffffffff168152602001908152602001600020869080600181540180825580915050906001820390600052602060002001600090919290919091505550601360008473ffffffffffffffffffffffffffffffffffffffff1673ffffffffffffffffffffffffffffffffffffffff168152602001908152602001600020869080600181540180825580915050906001820390600052602060002001600090919290919091505550601360008373ffffffffffffffffffffffffffffffffffffffff1673ffffffffffffffffffffffffffffffffffffffff168152602001908152602001600020869080600181540180825580915050906001820390600052602060002001600090919290919091505550601360008273ffffffffffffffffffffffffffffffffffffffff1673ffffffffffffffffffffffffffffffffffffffff1681526020019081526020016000208690806001815401808255809150509060018203906000526020600020016000909192909190915055506040805190810160405280600181526020017f32000000000000000000000000000000000000000000000000000000000000008152506008600001600088815260200190815260200160002060010190805190602001906114ff929190613ad4565b50505050505050565b6060600d80548060200260200160405190810160405280929190818152602001828054801561158c57602002820191906000526020600020905b8160009054906101000a900473ffffffffffffffffffffffffffffffffffffffff1673ffffffffffffffffffffffffffffffffffffffff1681526020019060010190808311611542575b5050505050905090565b6000600760003373ffffffffffffffffffffffffffffffffffffffff1673ffffffffffffffffffffffffffffffffffffffff16815260200190815260200160002054905090565b6115e5613b54565b610100604051908101604052808b81526020018a815260200189815260200188815260200187815260200186815260200185815260200184815250905080600860010160008481526020019081526020016000206000820151816000019080519060200190611655929190613b9a565b506020820151816001019080519060200190611672929190613b9a565b50604082015181600201908051906020019061168f929190613b9a565b5060608201518160030190805190602001906116ac929190613b9a565b5060808201518160040190805190602001906116c9929190613b9a565b5060a08201518160050190805190602001906116e6929190613b9a565b5060c0820151816006019080519060200190611703929190613b9a565b5060e0820151816007019080519060200190611720929190613b9a565b509050506040805190810160405280600181526020017f3000000000000000000000000000000000000000000000000000000000000000815250600860000160008481526020019081526020016000206001019080519060200190611786929190613ad4565b50336008600001600084815260200190815260200160002060030160006101000a81548173ffffffffffffffffffffffffffffffffffffffff021916908373ffffffffffffffffffffffffffffffffffffffff160217905550600b60003373ffffffffffffffffffffffffffffffffffffffff1673ffffffffffffffffffffffffffffffffffffffff16815260200190815260200160002082908060018154018082558091505090600182039060005260206000200160009091929091909150555050505050505050505050565b60003373ffffffffffffffffffffffffffffffffffffffff1631905090565b6060600182141561193757600860010160008481526020019081526020016000206000018054600181600116156101000203166002900480601f01602080910402602001604051908101604052809291908181526020018280546001816001161561010002031660029004801561192b5780601f106119005761010080835404028352916020019161192b565b820191906000526020600020905b81548152906001019060200180831161190e57829003601f168201915b50505050509050612558565b60028214156119f957600860010160008481526020019081526020016000206001018054600181600116156101000203166002900480601f0160208091040260200160405190810160405280929190818152602001828054600181600116156101000203166002900480156119ed5780601f106119c2576101008083540402835291602001916119ed565b820191906000526020600020905b8154815290600101906020018083116119d057829003601f168201915b50505050509050612558565b6003821415611abb57600860010160008481526020019081526020016000206002018054600181600116156101000203166002900480601f016020809104026020016040519081016040528092919081815260200182805460018160011615610100020316600290048015611aaf5780601f10611a8457610100808354040283529160200191611aaf565b820191906000526020600020905b815481529060010190602001808311611a9257829003601f168201915b50505050509050612558565b6004821415611b7d57600860010160008481526020019081526020016000206003018054600181600116156101000203166002900480601f016020809104026020016040519081016040528092919081815260200182805460018160011615610100020316600290048015611b715780601f10611b4657610100808354040283529160200191611b71565b820191906000526020600020905b815481529060010190602001808311611b5457829003601f168201915b50505050509050612558565b6005821415611c3f57600860010160008481526020019081526020016000206004018054600181600116156101000203166002900480601f016020809104026020016040519081016040528092919081815260200182805460018160011615610100020316600290048015611c335780601f10611c0857610100808354040283529160200191611c33565b820191906000526020600020905b815481529060010190602001808311611c1657829003601f168201915b50505050509050612558565b6006821415611d0157600860010160008481526020019081526020016000206005018054600181600116156101000203166002900480601f016020809104026020016040519081016040528092919081815260200182805460018160011615610100020316600290048015611cf55780601f10611cca57610100808354040283529160200191611cf5565b820191906000526020600020905b815481529060010190602001808311611cd857829003601f168201915b50505050509050612558565b6007821415611dc357600860010160008481526020019081526020016000206006018054600181600116156101000203166002900480601f016020809104026020016040519081016040528092919081815260200182805460018160011615610100020316600290048015611db75780601f10611d8c57610100808354040283529160200191611db7565b820191906000526020600020905b815481529060010190602001808311611d9a57829003601f168201915b50505050509050612558565b6008821415611e8557600860010160008481526020019081526020016000206007018054600181600116156101000203166002900480601f016020809104026020016040519081016040528092919081815260200182805460018160011615610100020316600290048015611e795780601f10611e4e57610100808354040283529160200191611e79565b820191906000526020600020905b815481529060010190602001808311611e5c57829003601f168201915b50505050509050612558565b6009821415611f4757600860000160008481526020019081526020016000206001018054600181600116156101000203166002900480601f016020809104026020016040519081016040528092919081815260200182805460018160011615610100020316600290048015611f3b5780601f10611f1057610100808354040283529160200191611f3b565b820191906000526020600020905b815481529060010190602001808311611f1e57829003601f168201915b50505050509050612558565b600a82141561200957600860020160008481526020019081526020016000206000018054600181600116156101000203166002900480601f016020809104026020016040519081016040528092919081815260200182805460018160011615610100020316600290048015611ffd5780601f10611fd257610100808354040283529160200191611ffd565b820191906000526020600020905b815481529060010190602001808311611fe057829003601f168201915b50505050509050612558565b600b8214156120cb57600860020160008481526020019081526020016000206001018054600181600116156101000203166002900480601f0160208091040260200160405190810160405280929190818152602001828054600181600116156101000203166002900480156120bf5780601f10612094576101008083540402835291602001916120bf565b820191906000526020600020905b8154815290600101906020018083116120a257829003601f168201915b50505050509050612558565b600c82141561218d57600860020160008481526020019081526020016000206002018054600181600116156101000203166002900480601f0160208091040260200160405190810160405280929190818152602001828054600181600116156101000203166002900480156121815780601f1061215657610100808354040283529160200191612181565b820191906000526020600020905b81548152906001019060200180831161216457829003601f168201915b50505050509050612558565b600d82141561224f57600860020160008481526020019081526020016000206003018054600181600116156101000203166002900480601f0160208091040260200160405190810160405280929190818152602001828054600181600116156101000203166002900480156122435780601f1061221857610100808354040283529160200191612243565b820191906000526020600020905b81548152906001019060200180831161222657829003601f168201915b50505050509050612558565b600e82141561231157600860020160008481526020019081526020016000206004018054600181600116156101000203166002900480601f0160208091040260200160405190810160405280929190818152602001828054600181600116156101000203166002900480156123055780601f106122da57610100808354040283529160200191612305565b820191906000526020600020905b8154815290600101906020018083116122e857829003601f168201915b50505050509050612558565b600f8214156123d357600860020160008481526020019081526020016000206005018054600181600116156101000203166002900480601f0160208091040260200160405190810160405280929190818152602001828054600181600116156101000203166002900480156123c75780601f1061239c576101008083540402835291602001916123c7565b820191906000526020600020905b8154815290600101906020018083116123aa57829003601f168201915b50505050509050612558565b601082141561249557600860020160008481526020019081526020016000206006018054600181600116156101000203166002900480601f0160208091040260200160405190810160405280929190818152602001828054600181600116156101000203166002900480156124895780601f1061245e57610100808354040283529160200191612489565b820191906000526020600020905b81548152906001019060200180831161246c57829003601f168201915b50505050509050612558565b601182141561255757600860020160008481526020019081526020016000206007018054600181600116156101000203166002900480601f01602080910402602001604051908101604052809291908181526020018280546001816001161561010002031660029004801561254b5780601f106125205761010080835404028352916020019161254b565b820191906000526020600020905b81548152906001019060200180831161252e57829003601f168201915b50505050509050612558565b5b92915050565b6000600660003373ffffffffffffffffffffffffffffffffffffffff1673ffffffffffffffffffffffffffffffffffffffff16815260200190815260200160002054905090565b6060601360003373ffffffffffffffffffffffffffffffffffffffff1673ffffffffffffffffffffffffffffffffffffffff16815260200190815260200160002080548060200260200160405190810160405280929190818152602001828054801561263057602002820191906000526020600020905b81548152602001906001019080831161261c575b5050505050905090565b6060601260003373ffffffffffffffffffffffffffffffffffffffff1673ffffffffffffffffffffffffffffffffffffffff1681526020019081526020016000208054806020026020016040519081016040528092919081815260200182805480156126c557602002820191906000526020600020905b8154815260200190600101908083116126b1575b5050505050905090565b600060156000838152602001908152602001600020549050919050565b6000600182141561275b576040805190810160405280600181526020017f3400000000000000000000000000000000000000000000000000000000000000815250600860000160008581526020019081526020016000206001019080519060200190612759929190613ad4565b505b6127a2601160003373ffffffffffffffffffffffffffffffffffffffff1673ffffffffffffffffffffffffffffffffffffffff1681526020019081526020016000206137e1565b905092915050565b6000806000806000925060009150600090505b600d805490508110156128645761280d600d828154811015156127dc57fe5b9060005260206000200160009054906101000a900473ffffffffffffffffffffffffffffffffffffffff1686612a05565b91508282111561285757819250600d8181548110151561282957fe5b9060005260206000200160009054906101000a900473ffffffffffffffffffffffffffffffffffffffff1693505b80806001019150506127bd565b505050919050565b60008060006128b9601160008673ffffffffffffffffffffffffffffffffffffffff1673ffffffffffffffffffffffffffffffffffffffff16815260200190815260200160002086613763565b836010600087815260200190815260200160002060006101000a81548173ffffffffffffffffffffffffffffffffffffffff021916908373ffffffffffffffffffffffffffffffffffffffff160217905550601260008573ffffffffffffffffffffffffffffffffffffffff1673ffffffffffffffffffffffffffffffffffffffff1681526020019081526020016000209150600090505b81805490508110156129935784828281548110151561296c57fe5b9060005260206000200154141561298657600092506129fd565b8080600101915050612951565b601260008573ffffffffffffffffffffffffffffffffffffffff1673ffffffffffffffffffffffffffffffffffffffff1681526020019081526020016000208590806001815401808255809150509060018203906000526020600020016000909192909190915055505b505092915050565b60008060c8601160008673ffffffffffffffffffffffffffffffffffffffff1673ffffffffffffffffffffffffffffffffffffffff16815260200190815260200160002060000181612a579190613c1a565b50612a9f601160008673ffffffffffffffffffffffffffffffffffffffff1673ffffffffffffffffffffffffffffffffffffffff168152602001908152602001600020613873565b9050600581101515612ab45760009150612b25565b6000831415612b135780600503600f60008673ffffffffffffffffffffffffffffffffffffffff1673ffffffffffffffffffffffffffffffffffffffff16815260200190815260200160002054612b0a86613881565b02029150612b24565b80600503612b2085613881565b0291505b5b5092915050565b80600860000160008481526020019081526020016000206001019080519060200190612b59929190613ad4565b505050565b6000600154905090565b612b70613c46565b610100604051908101604052808b81526020018a815260200189815260200188815260200187815260200186815260200185815260200184815250905080600860020160008481526020019081526020016000206000820151816000019080519060200190612be0929190613b9a565b506020820151816001019080519060200190612bfd929190613b9a565b506040820151816002019080519060200190612c1a929190613b9a565b506060820151816003019080519060200190612c37929190613b9a565b506080820151816004019080519060200190612c54929190613b9a565b5060a0820151816005019080519060200190612c71929190613b9a565b5060c0820151816006019080519060200190612c8e929190613b9a565b5060e0820151816007019080519060200190612cab929190613b9a565b5090505050505050505050505050565b80600f60003373ffffffffffffffffffffffffffffffffffffffff1673ffffffffffffffffffffffffffffffffffffffff1681526020019081526020016000208190555050565b600060146000838152602001908152602001600020600101549050919050565b6001600c60003373ffffffffffffffffffffffffffffffffffffffff1673ffffffffffffffffffffffffffffffffffffffff16815260200190815260200160002081905550600d3390806001815401808255809150509060018203906000526020600020016000909192909190916101000a81548173ffffffffffffffffffffffffffffffffffffffff021916908373ffffffffffffffffffffffffffffffffffffffff16021790555050565b8060066000600560009054906101000a900473ffffffffffffffffffffffffffffffffffffffff1673ffffffffffffffffffffffffffffffffffffffff1673ffffffffffffffffffffffffffffffffffffffff16815260200190815260200160002054111515612e3e57600080fd5b60c981600660003373ffffffffffffffffffffffffffffffffffffffff1673ffffffffffffffffffffffffffffffffffffffff1681526020019081526020016000205401101515612e8e57600080fd5b600760003373ffffffffffffffffffffffffffffffffffffffff1673ffffffffffffffffffffffffffffffffffffffff1681526020019081526020016000206000815480929190600101919050555080600660003373ffffffffffffffffffffffffffffffffffffffff1673ffffffffffffffffffffffffffffffffffffffff168152602001908152602001600020600082825401925050819055508060066000600560009054906101000a900473ffffffffffffffffffffffffffffffffffffffff1673ffffffffffffffffffffffffffffffffffffffff1673ffffffffffffffffffffffffffffffffffffffff16815260200190815260200160002060008282540392505081905550806001600082825401925050819055503373ffffffffffffffffffffffffffffffffffffffff16600560009054906101000a900473ffffffffffffffffffffffffffffffffffffffff1673ffffffffffffffffffffffffffffffffffffffff167fddf252ad1be2c89b69c2b068fc378daa952ba7f163c4a11628f55a4df523b3ef836040518082815260200191505060405180910390a350565b6000806000809150600090506014600086815260200190815260200160002060000160003373ffffffffffffffffffffffffffffffffffffffff1673ffffffffffffffffffffffffffffffffffffffff16815260200190815260200160002060009054906101000a900460ff16156130ae5760029250613337565b6001601460008781526020019081526020016000206001016000828254019250508190555083601460008781526020019081526020016000206002016000828254019250508190555061313e601160003373ffffffffffffffffffffffffffffffffffffffff1673ffffffffffffffffffffffffffffffffffffffff1681526020019081526020016000206137e1565b5060016014600087815260200190815260200160002060000160003373ffffffffffffffffffffffffffffffffffffffff1673ffffffffffffffffffffffffffffffffffffffff16815260200190815260200160002060006101000a81548160ff021916908315150217905550600560146000878152602001908152602001600020600101541415613336576040805190810160405280600181526020017f330000000000000000000000000000000000000000000000000000000000000081525060086000016000878152602001908152602001600020600101908051906020019061322c929190613ad4565b5060056132e9600860010160008881526020019081526020016000206006018054600181600116156101000203166002900480601f0160208091040260200160405190810160405280929190818152602001828054600181600116156101000203166002900480156132df5780601f106132b4576101008083540402835291602001916132df565b820191906000526020600020905b8154815290600101906020018083116132c257829003601f168201915b50505050506138ca565b02915060146000868152602001908152602001600020600201549050605f820281111561332d57606982028110156133245760019250613337565b60009250613337565b60009250613337565b5b505092915050565b81600660003373ffffffffffffffffffffffffffffffffffffffff1673ffffffffffffffffffffffffffffffffffffffff168152602001908152602001600020541015151561338d57600080fd5b600760003373ffffffffffffffffffffffffffffffffffffffff1673ffffffffffffffffffffffffffffffffffffffff168152602001908152602001600020600081548092919060010191905055508160066000600560009054906101000a900473ffffffffffffffffffffffffffffffffffffffff1673ffffffffffffffffffffffffffffffffffffffff1673ffffffffffffffffffffffffffffffffffffffff1681526020019081526020016000206000828254019250508190555081600660003373ffffffffffffffffffffffffffffffffffffffff1673ffffffffffffffffffffffffffffffffffffffff16815260200190815260200160002060008282540392505081905550816001600082825403925050819055503373ffffffffffffffffffffffffffffffffffffffff166108fc829081150290604051600060405180830381858888f193505050501580156134ee573d6000803e3d6000fd5b50600560009054906101000a900473ffffffffffffffffffffffffffffffffffffffff1673ffffffffffffffffffffffffffffffffffffffff163373ffffffffffffffffffffffffffffffffffffffff167fddf252ad1be2c89b69c2b068fc378daa952ba7f163c4a11628f55a4df523b3ef846040518082815260200191505060405180910390a35050565b806008600101600084815260200190815260200160002060060190805190602001906135a7929190613ad4565b506040805190810160405280600181526020017f310000000000000000000000000000000000000000000000000000000000000081525060086000016000848152602001908152602001600020600101908051906020019061360a929190613ad4565b506136168260006126ec565b505050565b600080600c60003373ffffffffffffffffffffffffffffffffffffffff1673ffffffffffffffffffffffffffffffffffffffff168152602001908152602001600020819055506001905090565b60003073ffffffffffffffffffffffffffffffffffffffff1631905090565b6060600b60003373ffffffffffffffffffffffffffffffffffffffff1673ffffffffffffffffffffffffffffffffffffffff16815260200190815260200160002080548060200260200160405190810160405280929190818152602001828054801561371257602002820191906000526020600020905b8154815260200190600101908083116136fe575b5050505050905090565b6000600c60003373ffffffffffffffffffffffffffffffffffffffff1673ffffffffffffffffffffffffffffffffffffffff16815260200190815260200160002054905090565b8160010154600e54600184600201540181151561377c57fe5b061415613788576137dd565b8082600001836002015481548110151561379e57fe5b906000526020600020018190555060018260030160008282540192505081905550600e5460018360020154018115156137d357fe5b0682600201819055505b5050565b60008160010154826002015414156137f85761386e565b81600001826001015481548110151561380d57fe5b9060005260206000200154905081600001826001015481548110151561382f57fe5b906000526020600020016000905560018260030160008282540392505081905550600e54600183600101540181151561386457fe5b0682600101819055505b919050565b600081600301549050919050565b6000600660008373ffffffffffffffffffffffffffffffffffffffff1673ffffffffffffffffffffffffffffffffffffffff168152602001908152602001600020549050919050565b6000606060008084925060009150600090505b8251811015613ac95760307f010000000000000000000000000000000000000000000000000000000000000002838281518110151561391857fe5b9060200101517f010000000000000000000000000000000000000000000000000000000000000090047f0100000000000000000000000000000000000000000000000000000000000000027effffffffffffffffffffffffffffffffffffffffffffffffffffffffffffff191610158015613a30575060397f01000000000000000000000000000000000000000000000000000000000000000283828151811015156139c057fe5b9060200101517f010000000000000000000000000000000000000000000000000000000000000090047f0100000000000000000000000000000000000000000000000000000000000000027effffffffffffffffffffffffffffffffffffffffffffffffffffffffffffff191611155b15613abc5760308382815181101515613a4557fe5b9060200101517f010000000000000000000000000000000000000000000000000000000000000090047f0100000000000000000000000000000000000000000000000000000000000000027f0100000000000000000000000000000000000000000000000000000000000000900403600a83020191505b80806001019150506138dd565b819350505050919050565b828054600181600116156101000203166002900490600052602060002090601f016020900481019282601f10613b1557805160ff1916838001178555613b43565b82800160010185558215613b43579182015b82811115613b42578251825591602001919060010190613b27565b5b509050613b509190613c8c565b5090565b6101006040519081016040528060608152602001606081526020016060815260200160608152602001606081526020016060815260200160608152602001606081525090565b828054600181600116156101000203166002900490600052602060002090601f016020900481019282601f10613bdb57805160ff1916838001178555613c09565b82800160010185558215613c09579182015b82811115613c08578251825591602001919060010190613bed565b5b509050613c169190613c8c565b5090565b815481835581811115613c4157818360005260206000209182019101613c409190613c8c565b5b505050565b6101006040519081016040528060608152602001606081526020016060815260200160608152602001606081526020016060815260200160608152602001606081525090565b613cae91905b80821115613caa576000816000905550600101613c92565b5090565b905600a165627a7a72305820719e425794309982f1bd570cc8b9cd096ecedc47af37f5ceb18cdb933e6b82e70029",
  "source": "pragma solidity ^0.4.24;\n\nimport \"./assign.sol\";\n\ncontract demo is assign{\n    mapping(uint => uint) backrecord;\n    /*****************************/\n    /*****************************/\n    /**\n     * guobin\n     * \n    */\n    function addvaluation(\n        string memory Frame_number,             //\n        string memory Number_plate,             //\n        string memory Vehicle_type,             //\n        string memory Brand_number,             //\n        string memory Engine_number,            //\n        string memory Manufacture_date,         //\n        string memory Evaluation,               //\n        string memory Timestammp,               //\n        uint evaluation_index                   //(js,ipfs,)\n        ) public {\n        _addvaluation(Frame_number,Number_plate,Vehicle_type,Brand_number,Engine_number,Manufacture_date,Evaluation,Timestammp,evaluation_index); //\n    }\n\n    /**\n     * guobin\n     * \n    */\n    function addphoto(\n        string memory photo1,\n        string memory photo2,\n        string memory photo3,\n        string memory photo4,\n        string memory photo5,\n        string memory photo6,\n        string memory photo7,\n        string memory photo8,\n        uint evaluation_index\n    ) public payable {\n        _addphoto(photo1,photo2,photo3,photo4,photo5,photo6,photo7,photo8,evaluation_index);\n        distribution(evaluation_index,statistic(0));             //\n    }\n\n    /**\n     * guobin\n     * \n    */\n    function backwork(uint evaluation_index) public {\n        if(checkbackstate(evaluation_index) == 1) {\n            finishwork(evaluation_index,1);\n        }\n        else {\n            finishwork(evaluation_index,0);\n            distribution(evaluation_index,statistic(1));             //\n            backrecord[evaluation_index] += 1;\n        }\n    }\n\n    /**\n     * guobin\n     * \n    */\n    function checkbackstate(uint evaluation_index) internal view returns (uint) {\n        return backrecord[evaluation_index];\n    }\n\n    /**\n     * guobin\n     * \n    */\n    function evaluate(uint index,string value) public {\n        _evaluate(index,value);\n    }\n\n    /**\n     * guobin\n     * \n    */\n    function backvaluation() view public returns (uint[]) {\n        return _backvaluation();\n    }\n\n    /**\n     * guobin\n     * \n    */\n    function setstate(uint index,string condition) public {\n        _setstate(index,condition);\n    }\n\n    /**\n     * guobin\n     * \n    */\n    function display(uint index,uint num) view public returns (string) {\n        return _display(index,num);\n    }\n\n    /*****************************/\n    function buy(uint amount) public payable {\n        _buy(amount);\n    }\n    \n    function sell(uint256 amount,uint256 eth_amount) public payable {\n        _sell(amount,eth_amount);\n    }\n\n    function displaybalance() view public returns (uint256) {\n        return _displaybalance();\n    } \n\n    function displayethbalance() view public returns (uint256) {\n        return _displayethbalance();\n    } \n\n    function displayaccount() view public returns (uint256) {\n        return _displayaccount();\n    } \n\n    function displayaccountforarbitrage(address send) public view returns (uint) {\n        return calc(send,1);\n    }\n\n    function displaytoken() view public returns (uint256) {\n        return _displaytoken();\n    } \n\n    function distranumber() view public returns (uint256) {\n        return _distranumber();\n    } \n\n\n\n    /*****************************/\n    function registertest(uint amount,uint scale) public payable {          //\n        _registertest();\n        _buy(amount);\n        _Enter_quote(scale);\n    }\n\n    function Enter_quote(uint value) public {                               //\n        _Enter_quote(value);\n    }\n    \n    function checkuser() view public returns (uint) {                       //10\n        return _checkuser();\n    }\n\n    function unregister() public {                                          //\n        _unregister();\n    }\n\n    /**\n     * guobin\n     * \n    */\n    function backofwork() view public returns (address[]) {\n        return _backofwork();\n    }\n\n    /**\n     * guobin\n     * \n    */\n    function backvalnumber() view public returns (uint[]) {\n        return _backvalnumber();\n    }\n\n    /**\n     * guobin\n     * \n    */\n    function backappnumber() view public returns (uint[]) {\n        return _backappnumber();\n    }\n\n    /**\n     * guobin\n     * \n    */\n    function appealdistribution(uint number,address appeal1,address appeal2,address appeal3,address appeal4,address appeal5) public {\n        _appealdistribution(number,appeal1,appeal2,appeal3,appeal4,appeal5);\n    }\n\n    /**\n     * guobin\n     * \n    */\n    function appealevaluate(uint index,uint value) public {\n        _appealevaluate(index,value);\n    }\n\n    /**\n     * guobin\n     * \n    */\n    function appealeschedule(uint index) public view returns (uint) {\n        return _appealeschedule(index);\n    }\n}\n",
  "sourcePath": "/blockpro/dev-complete/contracts/demo.sol",
  "compiler": {
    "name": "solc",
    "version": "0.4.24+commit.e67f0147.Emscripten.clang"
  },
  "schemaVersion": "2.0.1",
  "updatedAt": "2019-03-22T07:08:58.527Z"
}