{
  "contractName": "demo",
  "abi": [
    {
      "anonymous": false,
      "inputs": [
        {
          "indexed": true,
          "name": "from",
          "type": "address"
        },
        {
          "indexed": true,
          "name": "to",
          "type": "address"
        },
        {
          "indexed": false,
          "name": "value",
          "type": "uint256"
        }
      ],
      "name": "Transfer",
      "type": "event"
    },
    {
      "anonymous": false,
      "inputs": [
        {
          "indexed": true,
          "name": "to",
          "type": "address"
        },
        {
          "indexed": false,
          "name": "value",
          "type": "uint256"
        }
      ],
      "name": "Reward",
      "type": "event"
    },
    {
      "anonymous": false,
      "inputs": [
        {
          "indexed": true,
          "name": "to",
          "type": "address"
        },
        {
          "indexed": false,
          "name": "value",
          "type": "uint256"
        }
      ],
      "name": "Punishment",
      "type": "event"
    },
    {
      "constant": false,
      "inputs": [
        {
          "name": "Frame_number",
          "type": "string"
        },
        {
          "name": "Number_plate",
          "type": "string"
        },
        {
          "name": "Vehicle_type",
          "type": "string"
        },
        {
          "name": "Brand_number",
          "type": "string"
        },
        {
          "name": "car_displacement",
          "type": "string"
        },
        {
          "name": "approval_passengers",
          "type": "string"
        },
        {
          "name": "Engine_number",
          "type": "string"
        },
        {
          "name": "Manufacture_date",
          "type": "string"
        },
        {
          "name": "Evaluation",
          "type": "uint256"
        },
        {
          "name": "Timestammp",
          "type": "string"
        },
        {
          "name": "evaluation_index",
          "type": "uint256"
        }
      ],
      "name": "addvaluation",
      "outputs": [],
      "payable": false,
      "stateMutability": "nonpayable",
      "type": "function"
    },
    {
      "constant": false,
      "inputs": [
        {
          "name": "photo1",
          "type": "string"
        },
        {
          "name": "photo2",
          "type": "string"
        },
        {
          "name": "photo3",
          "type": "string"
        },
        {
          "name": "photo4",
          "type": "string"
        },
        {
          "name": "photo5",
          "type": "string"
        },
        {
          "name": "photo6",
          "type": "string"
        },
        {
          "name": "photo7",
          "type": "string"
        },
        {
          "name": "photo8",
          "type": "string"
        },
        {
          "name": "evaluation_index",
          "type": "uint256"
        }
      ],
      "name": "addphoto",
      "outputs": [],
      "payable": true,
      "stateMutability": "payable",
      "type": "function"
    },
    {
      "constant": true,
      "inputs": [],
      "name": "backordernumber",
      "outputs": [
        {
          "name": "",
          "type": "uint256"
        }
      ],
      "payable": false,
      "stateMutability": "view",
      "type": "function"
    },
    {
      "constant": false,
      "inputs": [
        {
          "name": "evaluation_index",
          "type": "uint256"
        }
      ],
      "name": "backwork",
      "outputs": [],
      "payable": false,
      "stateMutability": "nonpayable",
      "type": "function"
    },
    {
      "constant": false,
      "inputs": [
        {
          "name": "index",
          "type": "uint256"
        },
        {
          "name": "value",
          "type": "uint256"
        }
      ],
      "name": "evaluate",
      "outputs": [],
      "payable": false,
      "stateMutability": "nonpayable",
      "type": "function"
    },
    {
      "constant": true,
      "inputs": [],
      "name": "backvaluation",
      "outputs": [
        {
          "name": "",
          "type": "uint256[]"
        }
      ],
      "payable": false,
      "stateMutability": "view",
      "type": "function"
    },
    {
      "constant": false,
      "inputs": [
        {
          "name": "index",
          "type": "uint256"
        },
        {
          "name": "condition",
          "type": "string"
        }
      ],
      "name": "setstate",
      "outputs": [],
      "payable": false,
      "stateMutability": "nonpayable",
      "type": "function"
    },
    {
      "constant": true,
      "inputs": [
        {
          "name": "index",
          "type": "uint256"
        }
      ],
      "name": "displayvalue",
      "outputs": [
        {
          "name": "",
          "type": "uint256"
        }
      ],
      "payable": false,
      "stateMutability": "view",
      "type": "function"
    },
    {
      "constant": true,
      "inputs": [
        {
          "name": "index",
          "type": "uint256"
        },
        {
          "name": "num",
          "type": "uint256"
        }
      ],
      "name": "displayinfo",
      "outputs": [
        {
          "name": "",
          "type": "string"
        }
      ],
      "payable": false,
      "stateMutability": "view",
      "type": "function"
    },
    {
      "constant": false,
      "inputs": [
        {
          "name": "amount",
          "type": "uint256"
        }
      ],
      "name": "buy",
      "outputs": [],
      "payable": true,
      "stateMutability": "payable",
      "type": "function"
    },
    {
      "constant": false,
      "inputs": [
        {
          "name": "amount",
          "type": "uint256"
        },
        {
          "name": "eth_amount",
          "type": "uint256"
        }
      ],
      "name": "sell",
      "outputs": [],
      "payable": true,
      "stateMutability": "payable",
      "type": "function"
    },
    {
      "constant": true,
      "inputs": [],
      "name": "displaybalance",
      "outputs": [
        {
          "name": "",
          "type": "uint256"
        }
      ],
      "payable": false,
      "stateMutability": "view",
      "type": "function"
    },
    {
      "constant": true,
      "inputs": [],
      "name": "displayethbalance",
      "outputs": [
        {
          "name": "",
          "type": "uint256"
        }
      ],
      "payable": false,
      "stateMutability": "view",
      "type": "function"
    },
    {
      "constant": true,
      "inputs": [],
      "name": "displayaccount",
      "outputs": [
        {
          "name": "",
          "type": "uint256"
        }
      ],
      "payable": false,
      "stateMutability": "view",
      "type": "function"
    },
    {
      "constant": true,
      "inputs": [
        {
          "name": "send",
          "type": "address"
        }
      ],
      "name": "displayaccountforarbitrage",
      "outputs": [
        {
          "name": "",
          "type": "uint256"
        }
      ],
      "payable": false,
      "stateMutability": "view",
      "type": "function"
    },
    {
      "constant": true,
      "inputs": [],
      "name": "displaytoken",
      "outputs": [
        {
          "name": "",
          "type": "uint256"
        }
      ],
      "payable": false,
      "stateMutability": "view",
      "type": "function"
    },
    {
      "constant": true,
      "inputs": [],
      "name": "distranumber",
      "outputs": [
        {
          "name": "",
          "type": "uint256"
        }
      ],
      "payable": false,
      "stateMutability": "view",
      "type": "function"
    },
    {
      "constant": false,
      "inputs": [
        {
          "name": "amount",
          "type": "uint256"
        },
        {
          "name": "scale",
          "type": "uint256"
        }
      ],
      "name": "registertest",
      "outputs": [],
      "payable": true,
      "stateMutability": "payable",
      "type": "function"
    },
    {
      "constant": false,
      "inputs": [
        {
          "name": "value",
          "type": "uint256"
        }
      ],
      "name": "Enter_quote",
      "outputs": [],
      "payable": false,
      "stateMutability": "nonpayable",
      "type": "function"
    },
    {
      "constant": true,
      "inputs": [],
      "name": "checkuser",
      "outputs": [
        {
          "name": "",
          "type": "uint256"
        }
      ],
      "payable": false,
      "stateMutability": "view",
      "type": "function"
    },
    {
      "constant": false,
      "inputs": [],
      "name": "unregister",
      "outputs": [],
      "payable": false,
      "stateMutability": "nonpayable",
      "type": "function"
    },
    {
      "constant": true,
      "inputs": [],
      "name": "backofwork",
      "outputs": [
        {
          "name": "",
          "type": "address[]"
        }
      ],
      "payable": false,
      "stateMutability": "view",
      "type": "function"
    },
    {
      "constant": true,
      "inputs": [],
      "name": "backvalnumber",
      "outputs": [
        {
          "name": "",
          "type": "uint256[]"
        }
      ],
      "payable": false,
      "stateMutability": "view",
      "type": "function"
    },
    {
      "constant": true,
      "inputs": [],
      "name": "backappnumber",
      "outputs": [
        {
          "name": "",
          "type": "uint256[]"
        }
      ],
      "payable": false,
      "stateMutability": "view",
      "type": "function"
    },
    {
      "constant": false,
      "inputs": [
        {
          "name": "number",
          "type": "uint256"
        },
        {
          "name": "appeal1",
          "type": "address"
        },
        {
          "name": "appeal2",
          "type": "address"
        },
        {
          "name": "appeal3",
          "type": "address"
        },
        {
          "name": "appeal4",
          "type": "address"
        },
        {
          "name": "appeal5",
          "type": "address"
        }
      ],
      "name": "appealdistribution",
      "outputs": [],
      "payable": false,
      "stateMutability": "nonpayable",
      "type": "function"
    },
    {
      "constant": true,
      "inputs": [
        {
          "name": "index",
          "type": "uint256"
        }
      ],
      "name": "appealesituation",
      "outputs": [
        {
          "name": "",
          "type": "uint256"
        }
      ],
      "payable": false,
      "stateMutability": "view",
      "type": "function"
    },
    {
      "constant": false,
      "inputs": [
        {
          "name": "index",
          "type": "uint256"
        },
        {
          "name": "value",
          "type": "uint256"
        }
      ],
      "name": "appealevaluate",
      "outputs": [],
      "payable": false,
      "stateMutability": "nonpayable",
      "type": "function"
    },
    {
      "constant": true,
      "inputs": [
        {
          "name": "index",
          "type": "uint256"
        }
      ],
      "name": "appealeschedule",
      "outputs": [
        {
          "name": "",
          "type": "uint256"
        }
      ],
      "payable": false,
      "stateMutability": "view",
      "type": "function"
    }
  ],
  "bytecode": "0x60806040526040805190810160405280600981526020017f546f6b656e20312e3000000000000000000000000000000000000000000000008152506002908051906020019062000051929190620001aa565b506001600b556006600f556305f5e100600660003373ffffffffffffffffffffffffffffffffffffffff1673ffffffffffffffffffffffffffffffffffffffff168152602001908152602001600020819055506040805190810160405280600981526020017f746f6b656e4e616d65000000000000000000000000000000000000000000000081525060039080519060200190620000f1929190620001aa565b506040805190810160405280600b81526020017f746f6b656e53796d626f6c000000000000000000000000000000000000000000815250600490805190602001906200013f929190620001aa565b5033600560006101000a81548173ffffffffffffffffffffffffffffffffffffffff021916908373ffffffffffffffffffffffffffffffffffffffff16021790555060016000806101000a81548160ff021916908360ff160217905550602860018190555062000259565b828054600181600116156101000203166002900490600052602060002090601f016020900481019282601f10620001ed57805160ff19168380011785556200021e565b828001600101855582156200021e579182015b828111156200021d57825182559160200191906001019062000200565b5b5090506200022d919062000231565b5090565b6200025691905b808211156200025257600081600090555060010162000238565b5090565b90565b613fa780620002696000396000f30060806040526004361061016a576000357c0100000000000000000000000000000000000000000000000000000000900463ffffffff16806309afc9101461016f5780631304b5b71461019a57806315596e5b14610267578063216573a0146102d357806330e83d2d146102fe578063369236e214610329578063374d91d21461036a5780634245369e1461039557806343b851a01461044557806362c61f34146104b1578063684ce2e51461051d578063718d70fa1461054a5780638c9ab83c146105a15780639c16a16b14610614578063a4d2ce00146108c1578063b99fc10a146108ec578063c5f4f12a14610b3c578063cbb4cee414610b69578063d101af1a14610baa578063d67ee2ae14610bd4578063d79875eb14610c0b578063d96a094a14610c35578063dcd1501714610c55578063e79a198f14610c96578063f363e61314610cad578063f97445a914610cd8578063fc8ee8a914610d0f578063fe83014514610d7b575b600080fd5b34801561017b57600080fd5b50610184610da6565b6040518082815260200191505060405180910390f35b3480156101a657600080fd5b5061026560048036038101908080359060200190929190803573ffffffffffffffffffffffffffffffffffffffff169060200190929190803573ffffffffffffffffffffffffffffffffffffffff169060200190929190803573ffffffffffffffffffffffffffffffffffffffff169060200190929190803573ffffffffffffffffffffffffffffffffffffffff169060200190929190803573ffffffffffffffffffffffffffffffffffffffff169060200190929190505050610db5565b005b34801561027357600080fd5b5061027c610dcb565b6040518080602001828103825283818151815260200191508051906020019060200280838360005b838110156102bf5780820151818401526020810190506102a4565b505050509050019250505060405180910390f35b3480156102df57600080fd5b506102e8610dda565b6040518082815260200191505060405180910390f35b34801561030a57600080fd5b50610313610de9565b6040518082815260200191505060405180910390f35b34801561033557600080fd5b5061035460048036038101908080359060200190929190505050610df8565b6040518082815260200191505060405180910390f35b34801561037657600080fd5b5061037f610e09565b6040518082815260200191505060405180910390f35b3480156103a157600080fd5b506103ca6004803603810190808035906020019092919080359060200190929190505050610e18565b6040518080602001828103825283818151815260200191508051906020019080838360005b8381101561040a5780820151818401526020810190506103ef565b50505050905090810190601f1680156104375780820380516001836020036101000a031916815260200191505b509250505060405180910390f35b34801561045157600080fd5b5061045a610e2c565b6040518080602001828103825283818151815260200191508051906020019060200280838360005b8381101561049d578082015181840152602081019050610482565b505050509050019250505060405180910390f35b3480156104bd57600080fd5b506104c6610e3b565b6040518080602001828103825283818151815260200191508051906020019060200280838360005b838110156105095780820151818401526020810190506104ee565b505050509050019250505060405180910390f35b34801561052957600080fd5b5061054860048036038101908080359060200190929190505050610e4a565b005b34801561055657600080fd5b5061058b600480360381019080803573ffffffffffffffffffffffffffffffffffffffff169060200190929190505050610f00565b6040518082815260200191505060405180910390f35b3480156105ad57600080fd5b5061061260048036038101908080359060200190929190803590602001908201803590602001908080601f0160208091040260200160405190810160405280939291908181526020018383808284378201915050505050509192919290505050610f14565b005b34801561062057600080fd5b506108bf600480360381019080803590602001908201803590602001908080601f0160208091040260200160405190810160405280939291908181526020018383808284378201915050505050509192919290803590602001908201803590602001908080601f0160208091040260200160405190810160405280939291908181526020018383808284378201915050505050509192919290803590602001908201803590602001908080601f0160208091040260200160405190810160405280939291908181526020018383808284378201915050505050509192919290803590602001908201803590602001908080601f0160208091040260200160405190810160405280939291908181526020018383808284378201915050505050509192919290803590602001908201803590602001908080601f0160208091040260200160405190810160405280939291908181526020018383808284378201915050505050509192919290803590602001908201803590602001908080601f0160208091040260200160405190810160405280939291908181526020018383808284378201915050505050509192919290803590602001908201803590602001908080601f0160208091040260200160405190810160405280939291908181526020018383808284378201915050505050509192919290803590602001908201803590602001908080601f016020809104026020016040519081016040528093929190818152602001838380828437820191505050505050919291929080359060200190929190803590602001908201803590602001908080601f016020809104026020016040519081016040528093929190818152602001838380828437820191505050505050919291929080359060200190929190505050610f22565b005b3480156108cd57600080fd5b506108d6610f42565b6040518082815260200191505060405180910390f35b610b3a600480360381019080803590602001908201803590602001908080601f0160208091040260200160405190810160405280939291908181526020018383808284378201915050505050509192919290803590602001908201803590602001908080601f0160208091040260200160405190810160405280939291908181526020018383808284378201915050505050509192919290803590602001908201803590602001908080601f0160208091040260200160405190810160405280939291908181526020018383808284378201915050505050509192919290803590602001908201803590602001908080601f0160208091040260200160405190810160405280939291908181526020018383808284378201915050505050509192919290803590602001908201803590602001908080601f0160208091040260200160405190810160405280939291908181526020018383808284378201915050505050509192919290803590602001908201803590602001908080601f0160208091040260200160405190810160405280939291908181526020018383808284378201915050505050509192919290803590602001908201803590602001908080601f0160208091040260200160405190810160405280939291908181526020018383808284378201915050505050509192919290803590602001908201803590602001908080601f016020809104026020016040519081016040528093929190818152602001838380828437820191505050505050919291929080359060200190929190505050610f51565b005b348015610b4857600080fd5b50610b6760048036038101908080359060200190929190505050610f81565b005b348015610b7557600080fd5b50610b9460048036038101908080359060200190929190505050610f8d565b6040518082815260200191505060405180910390f35b610bd26004803603810190808035906020019092919080359060200190929190505050610f9f565b005b348015610be057600080fd5b50610c096004803603810190808035906020019092919080359060200190929190505050610fbd565b005b610c336004803603810190808035906020019092919080359060200190929190505050610fcc565b005b610c5360048036038101908080359060200190929190505050610fda565b005b348015610c6157600080fd5b50610c8060048036038101908080359060200190929190505050610fe6565b6040518082815260200191505060405180910390f35b348015610ca257600080fd5b50610cab610ff8565b005b348015610cb957600080fd5b50610cc2611003565b6040518082815260200191505060405180910390f35b348015610ce457600080fd5b50610d0d6004803603810190808035906020019092919080359060200190929190505050611012565b005b348015610d1b57600080fd5b50610d24611020565b6040518080602001828103825283818151815260200191508051906020019060200280838360005b83811015610d67578082015181840152602081019050610d4c565b505050509050019250505060405180910390f35b348015610d8757600080fd5b50610d9061102f565b6040518082815260200191505060405180910390f35b6000610db061103e565b905090565b610dc3868686868686611048565b505050505050565b6060610dd5611446565b905090565b6000610de46114d4565b905090565b6000610df361151b565b905090565b6000610e038261153a565b50919050565b6000610e136115ab565b905090565b6060610e2483836115f2565b905092915050565b6060610e3661239f565b905090565b6060610e45612434565b905090565b6001610e55826124c9565b1415610e6b57610e668160016124e6565b610efd565b610e768160006124e6565b610e8981610e8460016125a5565b612667565b5060016016600083815260200190815260200160002060008282540192505081905550610eb58161280a565b73ffffffffffffffffffffffffffffffffffffffff166108fc60649081150290604051600060405180830381858888f19350505050158015610efb573d6000803e3d6000fd5b505b50565b6000610f0d82600161284d565b9050919050565b610f1e828261291d565b5050565b610f358b8b8b8b8b8b8b8b8b8b8b61294f565b5050505050505050505050565b6000610f4c612c0f565b905090565b610f62898989898989898989612c19565b610f7581610f7060006125a5565b612667565b50505050505050505050565b610f8a81612d6c565b50565b6000610f9882612db3565b9050919050565b610fa7612dd3565b610fb082612e80565b610fb981612d6c565b5050565b610fc782826130e4565b505050565b610fd6828261344c565b5050565b610fe381612e80565b50565b6000610ff182613687565b9050919050565b6110006136aa565b50565b600061100d6136f7565b905090565b61101c8282613716565b5050565b606061102a613808565b905090565b600061103961389d565b905090565b6000600b54905090565b6001601160008773ffffffffffffffffffffffffffffffffffffffff1673ffffffffffffffffffffffffffffffffffffffff168152602001908152602001600020600082825401925050819055506001601160008673ffffffffffffffffffffffffffffffffffffffff1673ffffffffffffffffffffffffffffffffffffffff168152602001908152602001600020600082825401925050819055506001601160008573ffffffffffffffffffffffffffffffffffffffff1673ffffffffffffffffffffffffffffffffffffffff168152602001908152602001600020600082825401925050819055506001601160008473ffffffffffffffffffffffffffffffffffffffff1673ffffffffffffffffffffffffffffffffffffffff168152602001908152602001600020600082825401925050819055506001601160008373ffffffffffffffffffffffffffffffffffffffff1673ffffffffffffffffffffffffffffffffffffffff16815260200190815260200160002060008282540192505081905550601360008673ffffffffffffffffffffffffffffffffffffffff1673ffffffffffffffffffffffffffffffffffffffff168152602001908152602001600020869080600181540180825580915050906001820390600052602060002001600090919290919091505550601360008573ffffffffffffffffffffffffffffffffffffffff1673ffffffffffffffffffffffffffffffffffffffff168152602001908152602001600020869080600181540180825580915050906001820390600052602060002001600090919290919091505550601360008473ffffffffffffffffffffffffffffffffffffffff1673ffffffffffffffffffffffffffffffffffffffff168152602001908152602001600020869080600181540180825580915050906001820390600052602060002001600090919290919091505550601360008373ffffffffffffffffffffffffffffffffffffffff1673ffffffffffffffffffffffffffffffffffffffff168152602001908152602001600020869080600181540180825580915050906001820390600052602060002001600090919290919091505550601360008273ffffffffffffffffffffffffffffffffffffffff1673ffffffffffffffffffffffffffffffffffffffff1681526020019081526020016000208690806001815401808255809150509060018203906000526020600020016000909192909190915055506040805190810160405280600181526020017f320000000000000000000000000000000000000000000000000000000000000081525060086000016000888152602001908152602001600020600101908051906020019061143d929190613d76565b50505050505050565b6060600e8054806020026020016040519081016040528092919081815260200182805480156114ca57602002820191906000526020600020905b8160009054906101000a900473ffffffffffffffffffffffffffffffffffffffff1673ffffffffffffffffffffffffffffffffffffffff1681526020019060010190808311611480575b5050505050905090565b6000600760003373ffffffffffffffffffffffffffffffffffffffff1673ffffffffffffffffffffffffffffffffffffffff16815260200190815260200160002054905090565b60003373ffffffffffffffffffffffffffffffffffffffff1631905090565b600060016014600084815260200190815260200160002060000160003373ffffffffffffffffffffffffffffffffffffffff1673ffffffffffffffffffffffffffffffffffffffff1681526020019081526020016000205414156115a157600090506115a6565b600190505b919050565b6000600660003373ffffffffffffffffffffffffffffffffffffffff1673ffffffffffffffffffffffffffffffffffffffff16815260200190815260200160002054905090565b606060018214156116b657600860010160008481526020019081526020016000206000018054600181600116156101000203166002900480601f0160208091040260200160405190810160405280929190818152602001828054600181600116156101000203166002900480156116aa5780601f1061167f576101008083540402835291602001916116aa565b820191906000526020600020905b81548152906001019060200180831161168d57829003601f168201915b50505050509050612399565b600282141561177857600860010160008481526020019081526020016000206001018054600181600116156101000203166002900480601f01602080910402602001604051908101604052809291908181526020018280546001816001161561010002031660029004801561176c5780601f106117415761010080835404028352916020019161176c565b820191906000526020600020905b81548152906001019060200180831161174f57829003601f168201915b50505050509050612399565b600382141561183a57600860010160008481526020019081526020016000206002018054600181600116156101000203166002900480601f01602080910402602001604051908101604052809291908181526020018280546001816001161561010002031660029004801561182e5780601f106118035761010080835404028352916020019161182e565b820191906000526020600020905b81548152906001019060200180831161181157829003601f168201915b50505050509050612399565b60048214156118fc57600860010160008481526020019081526020016000206003018054600181600116156101000203166002900480601f0160208091040260200160405190810160405280929190818152602001828054600181600116156101000203166002900480156118f05780601f106118c5576101008083540402835291602001916118f0565b820191906000526020600020905b8154815290600101906020018083116118d357829003601f168201915b50505050509050612399565b60058214156119be57600860010160008481526020019081526020016000206004018054600181600116156101000203166002900480601f0160208091040260200160405190810160405280929190818152602001828054600181600116156101000203166002900480156119b25780601f10611987576101008083540402835291602001916119b2565b820191906000526020600020905b81548152906001019060200180831161199557829003601f168201915b50505050509050612399565b6006821415611a8057600860010160008481526020019081526020016000206005018054600181600116156101000203166002900480601f016020809104026020016040519081016040528092919081815260200182805460018160011615610100020316600290048015611a745780601f10611a4957610100808354040283529160200191611a74565b820191906000526020600020905b815481529060010190602001808311611a5757829003601f168201915b50505050509050612399565b6007821415611b4257600860010160008481526020019081526020016000206006018054600181600116156101000203166002900480601f016020809104026020016040519081016040528092919081815260200182805460018160011615610100020316600290048015611b365780601f10611b0b57610100808354040283529160200191611b36565b820191906000526020600020905b815481529060010190602001808311611b1957829003601f168201915b50505050509050612399565b6008821415611c0457600860010160008481526020019081526020016000206007018054600181600116156101000203166002900480601f016020809104026020016040519081016040528092919081815260200182805460018160011615610100020316600290048015611bf85780601f10611bcd57610100808354040283529160200191611bf8565b820191906000526020600020905b815481529060010190602001808311611bdb57829003601f168201915b50505050509050612399565b600a821415611cc657600860010160008481526020019081526020016000206009018054600181600116156101000203166002900480601f016020809104026020016040519081016040528092919081815260200182805460018160011615610100020316600290048015611cba5780601f10611c8f57610100808354040283529160200191611cba565b820191906000526020600020905b815481529060010190602001808311611c9d57829003601f168201915b50505050509050612399565b600b821415611d8857600860000160008481526020019081526020016000206001018054600181600116156101000203166002900480601f016020809104026020016040519081016040528092919081815260200182805460018160011615610100020316600290048015611d7c5780601f10611d5157610100808354040283529160200191611d7c565b820191906000526020600020905b815481529060010190602001808311611d5f57829003601f168201915b50505050509050612399565b600c821415611e4a57600860020160008481526020019081526020016000206000018054600181600116156101000203166002900480601f016020809104026020016040519081016040528092919081815260200182805460018160011615610100020316600290048015611e3e5780601f10611e1357610100808354040283529160200191611e3e565b820191906000526020600020905b815481529060010190602001808311611e2157829003601f168201915b50505050509050612399565b600d821415611f0c57600860020160008481526020019081526020016000206001018054600181600116156101000203166002900480601f016020809104026020016040519081016040528092919081815260200182805460018160011615610100020316600290048015611f005780601f10611ed557610100808354040283529160200191611f00565b820191906000526020600020905b815481529060010190602001808311611ee357829003601f168201915b50505050509050612399565b600e821415611fce57600860020160008481526020019081526020016000206002018054600181600116156101000203166002900480601f016020809104026020016040519081016040528092919081815260200182805460018160011615610100020316600290048015611fc25780601f10611f9757610100808354040283529160200191611fc2565b820191906000526020600020905b815481529060010190602001808311611fa557829003601f168201915b50505050509050612399565b600f82141561209057600860020160008481526020019081526020016000206003018054600181600116156101000203166002900480601f0160208091040260200160405190810160405280929190818152602001828054600181600116156101000203166002900480156120845780601f1061205957610100808354040283529160200191612084565b820191906000526020600020905b81548152906001019060200180831161206757829003601f168201915b50505050509050612399565b601082141561215257600860020160008481526020019081526020016000206004018054600181600116156101000203166002900480601f0160208091040260200160405190810160405280929190818152602001828054600181600116156101000203166002900480156121465780601f1061211b57610100808354040283529160200191612146565b820191906000526020600020905b81548152906001019060200180831161212957829003601f168201915b50505050509050612399565b601182141561221457600860020160008481526020019081526020016000206005018054600181600116156101000203166002900480601f0160208091040260200160405190810160405280929190818152602001828054600181600116156101000203166002900480156122085780601f106121dd57610100808354040283529160200191612208565b820191906000526020600020905b8154815290600101906020018083116121eb57829003601f168201915b50505050509050612399565b60128214156122d657600860020160008481526020019081526020016000206006018054600181600116156101000203166002900480601f0160208091040260200160405190810160405280929190818152602001828054600181600116156101000203166002900480156122ca5780601f1061229f576101008083540402835291602001916122ca565b820191906000526020600020905b8154815290600101906020018083116122ad57829003601f168201915b50505050509050612399565b601382141561239857600860020160008481526020019081526020016000206007018054600181600116156101000203166002900480601f01602080910402602001604051908101604052809291908181526020018280546001816001161561010002031660029004801561238c5780601f106123615761010080835404028352916020019161238c565b820191906000526020600020905b81548152906001019060200180831161236f57829003601f168201915b50505050509050612399565b5b92915050565b6060601360003373ffffffffffffffffffffffffffffffffffffffff1673ffffffffffffffffffffffffffffffffffffffff16815260200190815260200160002080548060200260200160405190810160405280929190818152602001828054801561242a57602002820191906000526020600020905b815481526020019060010190808311612416575b5050505050905090565b6060601260003373ffffffffffffffffffffffffffffffffffffffff1673ffffffffffffffffffffffffffffffffffffffff1681526020019081526020016000208054806020026020016040519081016040528092919081815260200182805480156124bf57602002820191906000526020600020905b8154815260200190600101908083116124ab575b5050505050905090565b600060166000838152602001908152602001600020549050919050565b6001811415612553576040805190810160405280600181526020017f3400000000000000000000000000000000000000000000000000000000000000815250600860000160008481526020019081526020016000206001019080519060200190612551929190613d76565b505b6001601160003373ffffffffffffffffffffffffffffffffffffffff1673ffffffffffffffffffffffffffffffffffffffff168152602001908152602001600020600082825403925050819055505050565b6000806000806000925060009150600090505b600e8054905081101561265f57612608600e828154811015156125d757fe5b9060005260206000200160009054906101000a900473ffffffffffffffffffffffffffffffffffffffff168661284d565b91508282111561265257819250600e8181548110151561262457fe5b9060005260206000200160009054906101000a900473ffffffffffffffffffffffffffffffffffffffff1693505b80806001019150506125b8565b505050919050565b6000606060006001601160008673ffffffffffffffffffffffffffffffffffffffff1673ffffffffffffffffffffffffffffffffffffffff168152602001908152602001600020600082825401925050819055506126c585856138e4565b601260008573ffffffffffffffffffffffffffffffffffffffff1673ffffffffffffffffffffffffffffffffffffffff16815260200190815260200160002080548060200260200160405190810160405280929190818152602001828054801561274e57602002820191906000526020600020905b81548152602001906001019080831161273a575b50505050509150600090505b81518110156127985784828281518110151561277257fe5b90602001906020020151141561278b5760009250612802565b808060010191505061275a565b601260008573ffffffffffffffffffffffffffffffffffffffff1673ffffffffffffffffffffffffffffffffffffffff1681526020019081526020016000208590806001815401808255809150509060018203906000526020600020016000909192909190915055505b505092915050565b60006008600001600083815260200190815260200160002060030160009054906101000a900473ffffffffffffffffffffffffffffffffffffffff169050919050565b600080601160008573ffffffffffffffffffffffffffffffffffffffff1673ffffffffffffffffffffffffffffffffffffffff1681526020019081526020016000205490506005811015156128a55760009150612916565b60008314156129045780600503601060008673ffffffffffffffffffffffffffffffffffffffff1673ffffffffffffffffffffffffffffffffffffffff168152602001908152602001600020546128fb86613940565b02029150612915565b8060050361291185613940565b0291505b5b5092915050565b8060086000016000848152602001908152602001600020600101908051906020019061294a929190613d76565b505050565b612957613df6565b610140604051908101604052808d81526020018c81526020018b81526020018a8152602001898152602001888152602001878152602001868152602001858152602001848152509050806008600101600084815260200190815260200160002060008201518160000190805190602001906129d3929190613e4a565b5060208201518160010190805190602001906129f0929190613e4a565b506040820151816002019080519060200190612a0d929190613e4a565b506060820151816003019080519060200190612a2a929190613e4a565b506080820151816004019080519060200190612a47929190613e4a565b5060a0820151816005019080519060200190612a64929190613e4a565b5060c0820151816006019080519060200190612a81929190613e4a565b5060e0820151816007019080519060200190612a9e929190613e4a565b506101008201518160080155610120820151816009019080519060200190612ac7929190613e4a565b509050506040805190810160405280600181526020017f3000000000000000000000000000000000000000000000000000000000000000815250600860000160008481526020019081526020016000206001019080519060200190612b2d929190613d76565b50336008600001600084815260200190815260200160002060030160006101000a81548173ffffffffffffffffffffffffffffffffffffffff021916908373ffffffffffffffffffffffffffffffffffffffff160217905550600c60003373ffffffffffffffffffffffffffffffffffffffff1673ffffffffffffffffffffffffffffffffffffffff168152602001908152602001600020829080600181540180825580915050906001820390600052602060002001600090919290919091505550600b60008154809291906001019190505550505050505050505050505050565b6000600154905090565b612c21613eca565b610100604051908101604052808b81526020018a815260200189815260200188815260200187815260200186815260200185815260200184815250905080600860020160008481526020019081526020016000206000820151816000019080519060200190612c91929190613e4a565b506020820151816001019080519060200190612cae929190613e4a565b506040820151816002019080519060200190612ccb929190613e4a565b506060820151816003019080519060200190612ce8929190613e4a565b506080820151816004019080519060200190612d05929190613e4a565b5060a0820151816005019080519060200190612d22929190613e4a565b5060c0820151816006019080519060200190612d3f929190613e4a565b5060e0820151816007019080519060200190612d5c929190613e4a565b5090505050505050505050505050565b80601060003373ffffffffffffffffffffffffffffffffffffffff1673ffffffffffffffffffffffffffffffffffffffff1681526020019081526020016000208190555050565b600060146000838152602001908152602001600020600101549050919050565b6001600d60003373ffffffffffffffffffffffffffffffffffffffff1673ffffffffffffffffffffffffffffffffffffffff16815260200190815260200160002081905550600e3390806001815401808255809150509060018203906000526020600020016000909192909190916101000a81548173ffffffffffffffffffffffffffffffffffffffff021916908373ffffffffffffffffffffffffffffffffffffffff16021790555050565b8060066000600560009054906101000a900473ffffffffffffffffffffffffffffffffffffffff1673ffffffffffffffffffffffffffffffffffffffff1673ffffffffffffffffffffffffffffffffffffffff16815260200190815260200160002054111515612eef57600080fd5b60c981600660003373ffffffffffffffffffffffffffffffffffffffff1673ffffffffffffffffffffffffffffffffffffffff1681526020019081526020016000205401101515612f3f57600080fd5b600760003373ffffffffffffffffffffffffffffffffffffffff1673ffffffffffffffffffffffffffffffffffffffff1681526020019081526020016000206000815480929190600101919050555080600660003373ffffffffffffffffffffffffffffffffffffffff1673ffffffffffffffffffffffffffffffffffffffff168152602001908152602001600020600082825401925050819055508060066000600560009054906101000a900473ffffffffffffffffffffffffffffffffffffffff1673ffffffffffffffffffffffffffffffffffffffff1673ffffffffffffffffffffffffffffffffffffffff16815260200190815260200160002060008282540392505081905550806001600082825401925050819055503373ffffffffffffffffffffffffffffffffffffffff16600560009054906101000a900473ffffffffffffffffffffffffffffffffffffffff1673ffffffffffffffffffffffffffffffffffffffff167fddf252ad1be2c89b69c2b068fc378daa952ba7f163c4a11628f55a4df523b3ef836040518082815260200191505060405180910390a350565b60008060008091506000905060016014600087815260200190815260200160002060000160003373ffffffffffffffffffffffffffffffffffffffff1673ffffffffffffffffffffffffffffffffffffffff16815260200190815260200160002054141561315157600080fd5b6001601160003373ffffffffffffffffffffffffffffffffffffffff1673ffffffffffffffffffffffffffffffffffffffff16815260200190815260200160002060008282540392505081905550601560008681526020019081526020016000203390806001815401808255809150509060018203906000526020600020016000909192909190916101000a81548173ffffffffffffffffffffffffffffffffffffffff021916908373ffffffffffffffffffffffffffffffffffffffff160217905550506001601460008781526020019081526020016000206001016000828254019250508190555083601460008781526020019081526020016000206002016000828254019250508190555060016014600087815260200190815260200160002060000160003373ffffffffffffffffffffffffffffffffffffffff1673ffffffffffffffffffffffffffffffffffffffff16815260200190815260200160002081905550600560146000878152602001908152602001600020600101541415613443576101f46008600101600087815260200190815260200160002060080154029150601460008681526020019081526020016000206002015490506040805190810160405280600181526020017f3300000000000000000000000000000000000000000000000000000000000000815250600860000160008781526020019081526020016000206001019080519060200190613372929190613d76565b50605f81028211156133f1576069810282101561339f576133968560646000613989565b60009250613444565b6005818115156133ab57fe5b0460086001016000878152602001908152602001600020600801819055506133e8856133de6133d988613b47565b613b8a565b6002026001613989565b60019250613444565b6005818115156133fd57fe5b04600860010160008781526020019081526020016000206008018190555061343a8561343061342b88613b47565b613b8a565b6002026001613989565b60019250613444565b5b505092915050565b81600660003373ffffffffffffffffffffffffffffffffffffffff1673ffffffffffffffffffffffffffffffffffffffff168152602001908152602001600020541015151561349a57600080fd5b600760003373ffffffffffffffffffffffffffffffffffffffff1673ffffffffffffffffffffffffffffffffffffffff168152602001908152602001600020600081548092919060010191905055508160066000600560009054906101000a900473ffffffffffffffffffffffffffffffffffffffff1673ffffffffffffffffffffffffffffffffffffffff1673ffffffffffffffffffffffffffffffffffffffff1681526020019081526020016000206000828254019250508190555081600660003373ffffffffffffffffffffffffffffffffffffffff1673ffffffffffffffffffffffffffffffffffffffff16815260200190815260200160002060008282540392505081905550816001600082825403925050819055503373ffffffffffffffffffffffffffffffffffffffff166108fc829081150290604051600060405180830381858888f193505050501580156135fb573d6000803e3d6000fd5b50600560009054906101000a900473ffffffffffffffffffffffffffffffffffffffff1673ffffffffffffffffffffffffffffffffffffffff163373ffffffffffffffffffffffffffffffffffffffff167fddf252ad1be2c89b69c2b068fc378daa952ba7f163c4a11628f55a4df523b3ef846040518082815260200191505060405180910390a35050565b600060086001016000838152602001908152602001600020600801549050919050565b600080600d60003373ffffffffffffffffffffffffffffffffffffffff1673ffffffffffffffffffffffffffffffffffffffff168152602001908152602001600020819055506001905090565b60003073ffffffffffffffffffffffffffffffffffffffff1631905090565b600061372133613b8a565b90508160086001016000858152602001908152602001600020600801819055506040805190810160405280600181526020017f31000000000000000000000000000000000000000000000000000000000000008152506008600001600085815260200190815260200160002060010190805190602001906137a3929190613d76565b506137af8360006124e6565b6137b93382613bd6565b3373ffffffffffffffffffffffffffffffffffffffff166108fc826064039081150290604051600060405180830381858888f19350505050158015613802573d6000803e3d6000fd5b50505050565b6060600c60003373ffffffffffffffffffffffffffffffffffffffff1673ffffffffffffffffffffffffffffffffffffffff16815260200190815260200160002080548060200260200160405190810160405280929190818152602001828054801561389357602002820191906000526020600020905b81548152602001906001019080831161387f575b5050505050905090565b6000600d60003373ffffffffffffffffffffffffffffffffffffffff1673ffffffffffffffffffffffffffffffffffffffff16815260200190815260200160002054905090565b806008600001600084815260200190815260200160002060020160006101000a81548173ffffffffffffffffffffffffffffffffffffffff021916908373ffffffffffffffffffffffffffffffffffffffff1602179055505050565b6000600660008373ffffffffffffffffffffffffffffffffffffffff1673ffffffffffffffffffffffffffffffffffffffff168152602001908152602001600020549050919050565b6000613993613f10565b61399b613f10565b6139a3613f33565b6000809450600090505b6005811015613aa15760156000898152602001908152602001600020818154811015156139d657fe5b9060005260206000200160009054906101000a900473ffffffffffffffffffffffffffffffffffffffff168282600581101515613a0f57fe5b602002019073ffffffffffffffffffffffffffffffffffffffff16908173ffffffffffffffffffffffffffffffffffffffff1681525050613a618282600581101515613a5757fe5b6020020151613940565b81600503028482600581101515613a7457fe5b6020020181815250508381600581101515613a8b57fe5b60200201518501945080806001019150506139ad565b600090505b6005811015613b2157848482600581101515613abe57fe5b6020020151811515613acc57fe5b0487028382600581101515613add57fe5b602002018181525050613b148282600581101515613af757fe5b60200201518483600581101515613b0a57fe5b6020020151613bd6565b8080600101915050613aa6565b6001861415613b3d57613b3c613b3689613b47565b88613ca6565b5b5050505050505050565b60006008600001600083815260200190815260200160002060020160009054906101000a900473ffffffffffffffffffffffffffffffffffffffff169050919050565b60006064601060008473ffffffffffffffffffffffffffffffffffffffff1673ffffffffffffffffffffffffffffffffffffffff16815260200190815260200160002054039050919050565b80600660008473ffffffffffffffffffffffffffffffffffffffff1673ffffffffffffffffffffffffffffffffffffffff168152602001908152602001600020600082825401925050819055508060066000600560009054906101000a900473ffffffffffffffffffffffffffffffffffffffff1673ffffffffffffffffffffffffffffffffffffffff1673ffffffffffffffffffffffffffffffffffffffff16815260200190815260200160002060008282540392505081905550806001600082825401925050819055505050565b80600660008473ffffffffffffffffffffffffffffffffffffffff1673ffffffffffffffffffffffffffffffffffffffff168152602001908152602001600020600082825403925050819055508060066000600560009054906101000a900473ffffffffffffffffffffffffffffffffffffffff1673ffffffffffffffffffffffffffffffffffffffff1673ffffffffffffffffffffffffffffffffffffffff16815260200190815260200160002060008282540192505081905550806001600082825403925050819055505050565b828054600181600116156101000203166002900490600052602060002090601f016020900481019282601f10613db757805160ff1916838001178555613de5565b82800160010185558215613de5579182015b82811115613de4578251825591602001919060010190613dc9565b5b509050613df29190613f56565b5090565b61014060405190810160405280606081526020016060815260200160608152602001606081526020016060815260200160608152602001606081526020016060815260200160008152602001606081525090565b828054600181600116156101000203166002900490600052602060002090601f016020900481019282601f10613e8b57805160ff1916838001178555613eb9565b82800160010185558215613eb9579182015b82811115613eb8578251825591602001919060010190613e9d565b5b509050613ec69190613f56565b5090565b6101006040519081016040528060608152602001606081526020016060815260200160608152602001606081526020016060815260200160608152602001606081525090565b60a060405190810160405280600590602082028038833980820191505090505090565b60a060405190810160405280600590602082028038833980820191505090505090565b613f7891905b80821115613f74576000816000905550600101613f5c565b5090565b905600a165627a7a723058208f59f643cbe3f89cce7efb02b25a538d3d6a1cd414c8ba7b6e92c50e766625550029",
  "source": "pragma solidity ^0.4.24;\n\nimport \"./assign.sol\";\n\ncontract demo is assign{\n    mapping(uint => uint) backrecord;\n    /*****************************/\n    /*****************************/\n    /**\n     * guobin\n     * \n    */\n    function addvaluation(\n        string memory Frame_number,             //\n        string memory Number_plate,             //\n        string memory Vehicle_type,             //\n        string memory Brand_number,             //\n        string memory car_displacement,         //L\n        string memory approval_passengers,      //\n        string memory Engine_number,            //\n        string memory Manufacture_date,         //\n        uint          Evaluation,               //\n        string memory Timestammp,               //\n        uint evaluation_index                   //(js,ipfs,)\n        ) public {\n        _addvaluation(Frame_number,Number_plate,Vehicle_type,Brand_number,car_displacement,approval_passengers,Engine_number,Manufacture_date,Evaluation,Timestammp,evaluation_index); //\n    }\n\n    /**\n     * guobin\n     * \n    */\n    function addphoto(\n        string memory photo1,\n        string memory photo2,\n        string memory photo3,\n        string memory photo4,\n        string memory photo5,\n        string memory photo6,\n        string memory photo7,\n        string memory photo8,\n        uint evaluation_index\n    ) public payable {\n        _addphoto(photo1,photo2,photo3,photo4,photo5,photo6,photo7,photo8,evaluation_index);\n        distribution(evaluation_index,statistic(0));             //\n    }\n\n    /**\n     * guobin\n     * \n    */\n    function backordernumber() view public returns (uint) {\n        return _backordernumber();\n    }\n\n\n    /**\n     * guobin\n     * \n    */\n    function backwork(uint evaluation_index) public {\n        if(checkbackstate(evaluation_index) == 1) {\n            finishwork(evaluation_index,1);\n        }\n        else {\n            finishwork(evaluation_index,0);\n            distribution(evaluation_index,statistic(1));             //\n            backrecord[evaluation_index] += 1;\n            _getcreator(evaluation_index).transfer(100);\n        }\n    }\n\n    /**\n     * guobin\n     * \n    */\n    function checkbackstate(uint evaluation_index) internal view returns (uint) {\n        return backrecord[evaluation_index];\n    }\n\n    /**\n     * guobin\n     * \n    */\n    function evaluate(uint index,uint value) public {\n        _evaluate(index,value);\n    }\n\n    /**\n     * guobin\n     * \n    */\n    function backvaluation() view public returns (uint[]) {\n        return _backvaluation();\n    }\n\n    /**\n     * guobin\n     * \n    */\n    function setstate(uint index,string condition) public {\n        _setstate(index,condition);\n    }\n\n    /**\n     * guobin\n     * \n    */\n    function displayvalue(uint index) view public returns (uint) {\n        return _displayvalue(index);\n    }\n\n    /**\n     * guobin\n     * \n    */\n    function displayinfo(uint index,uint num) view public returns (string) {\n        return _displayinfo(index,num);\n    }\n\n    /*****************************/\n    /**\n     * guobin\n     * \n    */\n    function buy(uint amount) public payable {\n        _buy(amount);\n    }\n    \n    /**\n     * guobin\n     * \n    */\n    function sell(uint256 amount,uint256 eth_amount) public payable {\n        _sell(amount,eth_amount);\n    }\n\n    /**\n     * guobin\n     * \n    */\n    function displaybalance() view public returns (uint256) {\n        return _displaybalance();\n    } \n\n    /**\n     * guobin\n     * \n    */\n    function displayethbalance() view public returns (uint256) {\n        return _displayethbalance();\n    } \n\n    /**\n     * guobin\n     * \n    */\n    function displayaccount() view public returns (uint256) {\n        return _displayaccount();\n    } \n\n    /**\n     * guobin\n     * \n    */\n    function displayaccountforarbitrage(address send) public view returns (uint) {\n        return calc(send,1);\n    }\n\n    /**\n     * guobin\n     * \n    */\n    function displaytoken() view public returns (uint256) {\n        return _displaytoken();\n    } \n\n    /**\n     * guobin\n     * \n    */\n    function distranumber() view public returns (uint256) {\n        return _distranumber();\n    } \n\n\n\n    /*****************************/\n    /**\n     * guobin\n     * \n    */\n    function registertest(uint amount,uint scale) public payable {          \n        _registertest();\n        _buy(amount);\n        _Enter_quote(scale);\n    }\n\n    /**\n     * guobin\n     * \n    */\n    function Enter_quote(uint value) public {                               \n        _Enter_quote(value);\n    }\n    \n    /**\n     * guobin\n     * 10\n    */\n    function checkuser() view public returns (uint) {                       \n        return _checkuser();\n    }\n\n    /**\n     * guobin\n     * \n    */\n    function unregister() public {                                          \n        _unregister();\n    }\n\n    /**\n     * guobin\n     * \n    */\n    function backofwork() view public returns (address[]) {\n        return _backofwork();\n    }\n\n    /**\n     * guobin\n     * \n    */\n    function backvalnumber() view public returns (uint[]) {\n        return _backvalnumber();\n    }\n\n\n    /*****************************/\n    /**\n     * guobin\n     * \n    */\n    function backappnumber() view public returns (uint[]) {\n        return _backappnumber();\n    }\n\n    /**\n     * guobin\n     * \n    */\n    function appealdistribution(uint number,address appeal1,address appeal2,address appeal3,address appeal4,address appeal5) public {\n        _appealdistribution(number,appeal1,appeal2,appeal3,appeal4,appeal5);\n    }\n\n    /**\n     * guobin\n     * \n    */\n    function appealesituation(uint index) public view  returns (uint) {\n        _appealesituation(index);\n    }\n\n    /**\n     * guobin\n     * \n    */\n    function appealevaluate(uint index,uint value) public {\n        _appealevaluate(index,value);\n    }\n\n    /**\n     * guobin\n     * \n    */\n    function appealeschedule(uint index) public view returns (uint) {\n        return _appealeschedule(index);\n    }\n}\n",
  "sourcePath": "/blockpro/dev-complete/contracts/demo.sol",
  "compiler": {
    "name": "solc",
    "version": "0.4.24+commit.e67f0147.Emscripten.clang"
  },
  "schemaVersion": "2.0.1",
  "updatedAt": "2019-04-04T11:17:51.093Z"
}