{
  "contractName": "login",
  "abi": [
    {
      "constant": false,
      "inputs": [
        {
          "name": "rewarder",
          "type": "address"
        },
        {
          "name": "amount",
          "type": "uint256"
        }
      ],
      "name": "reward",
      "outputs": [],
      "payable": false,
      "stateMutability": "nonpayable",
      "type": "function"
    },
    {
      "constant": false,
      "inputs": [
        {
          "name": "punisher",
          "type": "address"
        },
        {
          "name": "amount",
          "type": "uint256"
        }
      ],
      "name": "punish",
      "outputs": [],
      "payable": false,
      "stateMutability": "nonpayable",
      "type": "function"
    },
    {
      "anonymous": false,
      "inputs": [
        {
          "indexed": true,
          "name": "from",
          "type": "address"
        },
        {
          "indexed": true,
          "name": "to",
          "type": "address"
        },
        {
          "indexed": false,
          "name": "value",
          "type": "uint256"
        }
      ],
      "name": "Transfer",
      "type": "event"
    },
    {
      "anonymous": false,
      "inputs": [
        {
          "indexed": true,
          "name": "to",
          "type": "address"
        },
        {
          "indexed": false,
          "name": "value",
          "type": "uint256"
        }
      ],
      "name": "Reward",
      "type": "event"
    },
    {
      "anonymous": false,
      "inputs": [
        {
          "indexed": true,
          "name": "to",
          "type": "address"
        },
        {
          "indexed": false,
          "name": "value",
          "type": "uint256"
        }
      ],
      "name": "Punishment",
      "type": "event"
    }
  ],
  "bytecode": "0x60806040526040805190810160405280600981526020017f546f6b656e20312e3000000000000000000000000000000000000000000000008152506002908051906020019061004f929190610186565b506305f5e100600660003373ffffffffffffffffffffffffffffffffffffffff1673ffffffffffffffffffffffffffffffffffffffff168152602001908152602001600020819055506040805190810160405280600981526020017f746f6b656e4e616d650000000000000000000000000000000000000000000000815250600390805190602001906100e3929190610186565b506040805190810160405280600b81526020017f746f6b656e53796d626f6c0000000000000000000000000000000000000000008152506004908051906020019061012f929190610186565b5033600560006101000a81548173ffffffffffffffffffffffffffffffffffffffff021916908373ffffffffffffffffffffffffffffffffffffffff1602179055506001600081905550602860018190555061022b565b828054600181600116156101000203166002900490600052602060002090601f016020900481019282601f106101c757805160ff19168380011785556101f5565b828001600101855582156101f5579182015b828111156101f45782518255916020019190600101906101d9565b5b5090506102029190610206565b5090565b61022891905b8082111561022457600081600090555060010161020c565b5090565b90565b6102b78061023a6000396000f30060806040526004361061004c576000357c0100000000000000000000000000000000000000000000000000000000900463ffffffff16806321670f2214610051578063d8e423b21461009e575b600080fd5b34801561005d57600080fd5b5061009c600480360381019080803573ffffffffffffffffffffffffffffffffffffffff169060200190929190803590602001909291905050506100eb565b005b3480156100aa57600080fd5b506100e9600480360381019080803573ffffffffffffffffffffffffffffffffffffffff169060200190929190803590602001909291905050506101bb565b005b80600660008473ffffffffffffffffffffffffffffffffffffffff1673ffffffffffffffffffffffffffffffffffffffff168152602001908152602001600020600082825401925050819055508060066000600560009054906101000a900473ffffffffffffffffffffffffffffffffffffffff1673ffffffffffffffffffffffffffffffffffffffff1673ffffffffffffffffffffffffffffffffffffffff16815260200190815260200160002060008282540392505081905550806001600082825401925050819055505050565b80600660008473ffffffffffffffffffffffffffffffffffffffff1673ffffffffffffffffffffffffffffffffffffffff168152602001908152602001600020600082825403925050819055508060066000600560009054906101000a900473ffffffffffffffffffffffffffffffffffffffff1673ffffffffffffffffffffffffffffffffffffffff1673ffffffffffffffffffffffffffffffffffffffff168152602001908152602001600020600082825401925050819055508060016000828254039250508190555050505600a165627a7a723058207c25ab2d5d9fcc8c6a0e92e9b97fb733e5b47654dd4f7e19224f9bcf80f9f7370029",
  "source": "pragma solidity ^0.4.24;\n\nimport \"./token.sol\";\nimport \"./create.sol\";\n\ncontract login is token,create{\n    mapping(address => uint)  ID;                           //地址对应用户属性(0:普通用户,1:评估师)\n    address[] workers;                                      //评估师列表\n    \n    /**\n     * guobin\n     * 地址注册函数\n    */\n    function _register(uint index,uint testvalue) internal returns (uint) {\n        require(balanceOf[msg.sender] >= 100);              //评估时注册需缴纳100押金\n        \n        testvalue = testvalue * 100;                        //放大100倍避免除法造成造成的误差\n        \n        uint value = stringToUint(order.store_msg[index].Evaluation);\n        if(testvalue < value * 105) {\n            if(testvalue > value * 95) {\n                ID[msg.sender] = 1;\n                workers.push(msg.sender);\n                return 1;\n            }\n        }\n        return 0;\n    }\n\n    function _registertest() internal {\n        ID[msg.sender] = 1;\n        workers.push(msg.sender);\n    }\n\n    /**\n     * guobin\n     * 返回所有评估师地址\n    */\n    function _backofwork() view internal returns (address[]) {\n        return workers;\n    }\n\n    function _checkuser() view internal returns (uint) {\n        return ID[msg.sender];\n    }\n    \n    /**\n     * guobin\n     * 解除注册函数\n    */\n    function _unregister() internal returns (uint) {\n        ID[msg.sender] = 0;\n        return 1;\n    }\n    \n    /**\n     * guobin\n     * String转Uint\n    */\n    function stringToUint(string s) pure internal returns (uint) {\n        bytes memory b = bytes(s);\n        uint result = 0;\n        \n        for (uint i = 0; i < b.length; i++) {\n            if (b[i] >= 48 && b[i] <= 57) {\n                result = result * 10 + (uint(b[i]) - 48);\n            }\n        }\n        return result;\n    }\n}",
  "sourcePath": "/blockpro/dev-complete/contracts/login.sol",
  "compiler": {
    "name": "solc",
    "version": "0.4.24+commit.e67f0147.Emscripten.clang"
  },
  "schemaVersion": "2.0.1",
  "updatedAt": "2019-03-22T07:01:28.846Z"
}