{
  "contractName": "token",
  "abi": [
    {
      "inputs": [],
      "payable": false,
      "stateMutability": "nonpayable",
      "type": "constructor"
    },
    {
      "anonymous": false,
      "inputs": [
        {
          "indexed": true,
          "name": "from",
          "type": "address"
        },
        {
          "indexed": true,
          "name": "to",
          "type": "address"
        },
        {
          "indexed": false,
          "name": "value",
          "type": "uint256"
        }
      ],
      "name": "Transfer",
      "type": "event"
    },
    {
      "anonymous": false,
      "inputs": [
        {
          "indexed": true,
          "name": "to",
          "type": "address"
        },
        {
          "indexed": false,
          "name": "value",
          "type": "uint256"
        }
      ],
      "name": "Reward",
      "type": "event"
    },
    {
      "anonymous": false,
      "inputs": [
        {
          "indexed": true,
          "name": "to",
          "type": "address"
        },
        {
          "indexed": false,
          "name": "value",
          "type": "uint256"
        }
      ],
      "name": "Punishment",
      "type": "event"
    },
    {
      "constant": false,
      "inputs": [
        {
          "name": "rewarder",
          "type": "address"
        },
        {
          "name": "amount",
          "type": "uint256"
        }
      ],
      "name": "reward",
      "outputs": [],
      "payable": false,
      "stateMutability": "nonpayable",
      "type": "function"
    },
    {
      "constant": false,
      "inputs": [
        {
          "name": "punisher",
          "type": "address"
        },
        {
          "name": "amount",
          "type": "uint256"
        }
      ],
      "name": "punish",
      "outputs": [],
      "payable": false,
      "stateMutability": "nonpayable",
      "type": "function"
    }
  ],
  "bytecode": "0x60806040526040805190810160405280600981526020017f546f6b656e20312e3000000000000000000000000000000000000000000000008152506002908051906020019061004f929190610193565b5034801561005c57600080fd5b506305f5e100600660003373ffffffffffffffffffffffffffffffffffffffff1673ffffffffffffffffffffffffffffffffffffffff168152602001908152602001600020819055506040805190810160405280600981526020017f746f6b656e4e616d650000000000000000000000000000000000000000000000815250600390805190602001906100f0929190610193565b506040805190810160405280600b81526020017f746f6b656e53796d626f6c0000000000000000000000000000000000000000008152506004908051906020019061013c929190610193565b5033600560006101000a81548173ffffffffffffffffffffffffffffffffffffffff021916908373ffffffffffffffffffffffffffffffffffffffff16021790555060016000819055506028600181905550610238565b828054600181600116156101000203166002900490600052602060002090601f016020900481019282601f106101d457805160ff1916838001178555610202565b82800160010185558215610202579182015b828111156102015782518255916020019190600101906101e6565b5b50905061020f9190610213565b5090565b61023591905b80821115610231576000816000905550600101610219565b5090565b90565b6102b7806102476000396000f30060806040526004361061004c576000357c0100000000000000000000000000000000000000000000000000000000900463ffffffff16806321670f2214610051578063d8e423b21461009e575b600080fd5b34801561005d57600080fd5b5061009c600480360381019080803573ffffffffffffffffffffffffffffffffffffffff169060200190929190803590602001909291905050506100eb565b005b3480156100aa57600080fd5b506100e9600480360381019080803573ffffffffffffffffffffffffffffffffffffffff169060200190929190803590602001909291905050506101bb565b005b80600660008473ffffffffffffffffffffffffffffffffffffffff1673ffffffffffffffffffffffffffffffffffffffff168152602001908152602001600020600082825401925050819055508060066000600560009054906101000a900473ffffffffffffffffffffffffffffffffffffffff1673ffffffffffffffffffffffffffffffffffffffff1673ffffffffffffffffffffffffffffffffffffffff16815260200190815260200160002060008282540392505081905550806001600082825401925050819055505050565b80600660008473ffffffffffffffffffffffffffffffffffffffff1673ffffffffffffffffffffffffffffffffffffffff168152602001908152602001600020600082825403925050819055508060066000600560009054906101000a900473ffffffffffffffffffffffffffffffffffffffff1673ffffffffffffffffffffffffffffffffffffffff1673ffffffffffffffffffffffffffffffffffffffff168152602001908152602001600020600082825401925050819055508060016000828254039250508190555050505600a165627a7a7230582059a2f091a0ddd6015ccc068edd726ac1f0341d3204e27075f2dd8a9a66e6e85b0029",
  "source": "pragma solidity ^0.4.14;\n\ncontract token {\n    uint256 buyPrice;\n    uint256 CirculationToken;         \n    \n    string standard = 'Token 1.0';\n    string name;\n    string symbol;\n    \n    address owner;\n    \n    mapping(address => uint256) balanceOf;\n    mapping(address => uint256) tra_number; //交易次数\n\n    event Transfer(address indexed from,address indexed to,uint256 value);\n    event Reward(address indexed to,uint256 value);\n    event Punishment(address indexed to,uint256 value);\n    \n    \n    \n    modifier onlyOwner {\n        require(msg.sender == owner);\n        _;\n    }\n    \n    constructor() public {\n        balanceOf[msg.sender] = 100000000;\n        name = 'tokenName';\n        symbol = 'tokenSymbol';\n        owner = msg.sender;\n        buyPrice = 1;\n        CirculationToken = 40;             //初始化流通通证数量\n    }\n  \n\n    /**\n     * guobin\n     * 购买初始通证，作为押金\n    */\n    function _buy(uint amount) internal {\n        require(balanceOf[owner] > amount);\n        require(balanceOf[msg.sender] + amount< 201);\n        \n        tra_number[msg.sender]++;\n        balanceOf[msg.sender] += amount;\n        balanceOf[owner] -= amount;\n        CirculationToken += amount;\n        emit Transfer(owner,msg.sender,amount);\n    }\n    \n    /**\n     * guobin\n     * 卖出通证\n    */\n    function _sell(uint256 amount,uint256 eth_amount) internal {\n        require(balanceOf[msg.sender] >= amount);\n        \n        tra_number[msg.sender]++;\n        balanceOf[owner] += amount;\n        balanceOf[msg.sender] -= amount;\n        CirculationToken -= amount;\n        address(msg.sender).transfer(eth_amount);\n        emit Transfer(msg.sender,owner,amount);\n    }\n    \n    \n    /**\n     * guobin\n     * 显示购买token价格\n     * 将eth_balance和流通token返回给js,并由JS计算出当前价格\n    */\n    function _displaybalance() view internal returns (uint256) {\n        return address(this).balance;\n    }\n\n    function _displayethbalance() view internal returns (uint256) {\n        return (msg.sender).balance;\n    }\n\n    function _displayaccount() view internal returns (uint256) {\n        return balanceOf[msg.sender];\n    }\n    \n    function _displaytoken() view internal returns (uint256) {\n        return CirculationToken;\n    }\n\n    function _distranumber() view internal returns (uint256) {\n        return tra_number[msg.sender];\n    }\n\n    /**\n     * guobin\n     * 奖励通证\n    */\n    function reward(address rewarder,uint amount) public {\n        balanceOf[rewarder] += amount;\n        balanceOf[owner] -= amount;\n        CirculationToken += amount;\n    }\n    \n    /**\n     * guobin\n     * 惩罚通证\n    */\n    function punish(address punisher,uint amount) public {\n        balanceOf[punisher] -= amount;\n        balanceOf[owner] += amount;\n        CirculationToken -= amount;\n    }\n    \n    /**\n     * guobin\n     * 返回当前用户账户余额\n    */\n    function check_balance(address _to) internal view returns (uint256) {\n        return balanceOf[_to];\n    }\n}",
  "sourcePath": "/blockpro/dev-complete/contracts/token.sol",
  "compiler": {
    "name": "solc",
    "version": "0.4.24+commit.e67f0147.Emscripten.clang"
  },
  "schemaVersion": "2.0.1",
  "updatedAt": "2019-03-22T07:08:58.511Z"
}