{
  "contractName": "Users",
  "abi": [
    {
      "inputs": [],
      "payable": false,
      "stateMutability": "nonpayable",
      "type": "constructor"
    },
    {
      "constant": false,
      "inputs": [
        {
          "name": "Frame_number",
          "type": "string"
        },
        {
          "name": "Number_plate",
          "type": "string"
        },
        {
          "name": "Vehicle_type",
          "type": "string"
        },
        {
          "name": "Brand_number",
          "type": "string"
        },
        {
          "name": "Engine_number",
          "type": "string"
        },
        {
          "name": "Manufacture_date",
          "type": "string"
        },
        {
          "name": "Evaluation",
          "type": "string"
        },
        {
          "name": "Evaluation_address",
          "type": "string"
        },
        {
          "name": "Timestammp",
          "type": "string"
        }
      ],
      "name": "_addvaluation",
      "outputs": [],
      "payable": false,
      "stateMutability": "nonpayable",
      "type": "function"
    },
    {
      "constant": true,
      "inputs": [],
      "name": "_backvaluation",
      "outputs": [
        {
          "name": "tmp",
          "type": "uint256[]"
        }
      ],
      "payable": false,
      "stateMutability": "view",
      "type": "function"
    },
    {
      "constant": true,
      "inputs": [
        {
          "name": "num",
          "type": "uint256"
        },
        {
          "name": "index",
          "type": "uint256"
        }
      ],
      "name": "test1",
      "outputs": [
        {
          "name": "",
          "type": "string"
        }
      ],
      "payable": false,
      "stateMutability": "view",
      "type": "function"
    }
  ],
  "bytecode": "0x608060405234801561001057600080fd5b5060008081905550610c59806100276000396000f300608060405260043610610057576000357c0100000000000000000000000000000000000000000000000000000000900463ffffffff16806326c9c7e71461005c57806384fffacb1461010c578063ff677bf8146103a5575b600080fd5b34801561006857600080fd5b506100916004803603810190808035906020019092919080359060200190929190505050610411565b6040518080602001828103825283818151815260200191508051906020019080838360005b838110156100d15780820151818401526020810190506100b6565b50505050905090810190601f1680156100fe5780820380516001836020036101000a031916815260200191505b509250505060405180910390f35b34801561011857600080fd5b506103a3600480360381019080803590602001908201803590602001908080601f0160208091040260200160405190810160405280939291908181526020018383808284378201915050505050509192919290803590602001908201803590602001908080601f0160208091040260200160405190810160405280939291908181526020018383808284378201915050505050509192919290803590602001908201803590602001908080601f0160208091040260200160405190810160405280939291908181526020018383808284378201915050505050509192919290803590602001908201803590602001908080601f0160208091040260200160405190810160405280939291908181526020018383808284378201915050505050509192919290803590602001908201803590602001908080601f0160208091040260200160405190810160405280939291908181526020018383808284378201915050505050509192919290803590602001908201803590602001908080601f0160208091040260200160405190810160405280939291908181526020018383808284378201915050505050509192919290803590602001908201803590602001908080601f0160208091040260200160405190810160405280939291908181526020018383808284378201915050505050509192919290803590602001908201803590602001908080601f0160208091040260200160405190810160405280939291908181526020018383808284378201915050505050509192919290803590602001908201803590602001908080601f01602080910402602001604051908101604052809392919081815260200183838082843782019150505050505091929192905050506107d5565b005b3480156103b157600080fd5b506103ba610a26565b6040518080602001828103825283818151815260200191508051906020019060200280838360005b838110156103fd5780820151818401526020810190506103e2565b505050509050019250505060405180910390f35b606060008214156104d257600160008481526020019081526020016000206007018054600181600116156101000203166002900480601f0160208091040260200160405190810160405280929190818152602001828054600181600116156101000203166002900480156104c65780601f1061049b576101008083540402835291602001916104c6565b820191906000526020600020905b8154815290600101906020018083116104a957829003601f168201915b505050505090506107cf565b600182141561059157600160008481526020019081526020016000206003018054600181600116156101000203166002900480601f0160208091040260200160405190810160405280929190818152602001828054600181600116156101000203166002900480156105855780601f1061055a57610100808354040283529160200191610585565b820191906000526020600020905b81548152906001019060200180831161056857829003601f168201915b505050505090506107cf565b600282141561065057600160008481526020019081526020016000206000018054600181600116156101000203166002900480601f0160208091040260200160405190810160405280929190818152602001828054600181600116156101000203166002900480156106445780601f1061061957610100808354040283529160200191610644565b820191906000526020600020905b81548152906001019060200180831161062757829003601f168201915b505050505090506107cf565b600382141561070f57600360008481526020019081526020016000206000018054600181600116156101000203166002900480601f0160208091040260200160405190810160405280929190818152602001828054600181600116156101000203166002900480156107035780601f106106d857610100808354040283529160200191610703565b820191906000526020600020905b8154815290600101906020018083116106e657829003601f168201915b505050505090506107cf565b60048214156107ce57600160008481526020019081526020016000206008018054600181600116156101000203166002900480601f0160208091040260200160405190810160405280929190818152602001828054600181600116156101000203166002900480156107c25780601f10610797576101008083540402835291602001916107c2565b820191906000526020600020905b8154815290600101906020018083116107a557829003601f168201915b505050505090506107cf565b5b92915050565b6107dd610abb565b610120604051908101604052808b81526020018a81526020018981526020018881526020018781526020018681526020018581526020018481526020018381525090508060016000805481526020019081526020016000206000820151816000019080519060200190610851929190610b08565b50602082015181600101908051906020019061086e929190610b08565b50604082015181600201908051906020019061088b929190610b08565b5060608201518160030190805190602001906108a8929190610b08565b5060808201518160040190805190602001906108c5929190610b08565b5060a08201518160050190805190602001906108e2929190610b08565b5060c08201518160060190805190602001906108ff929190610b08565b5060e082015181600701908051906020019061091c929190610b08565b5061010082015181600801908051906020019061093a929190610b08565b50905050600260003373ffffffffffffffffffffffffffffffffffffffff1673ffffffffffffffffffffffffffffffffffffffff16815260200190815260200160002060005490806001815401808255809150509060018203906000526020600020016000909192909190915055506040805190810160405280600981526020017fe5be85e8af84e4bcb0000000000000000000000000000000000000000000000081525060036000805481526020019081526020016000206000019080519060200190610a09929190610b88565b506001600080828254019250508190555050505050505050505050565b6060600260003373ffffffffffffffffffffffffffffffffffffffff1673ffffffffffffffffffffffffffffffffffffffff168152602001908152602001600020805480602002602001604051908101604052809291908181526020018280548015610ab157602002820191906000526020600020905b815481526020019060010190808311610a9d575b5050505050905090565b610120604051908101604052806060815260200160608152602001606081526020016060815260200160608152602001606081526020016060815260200160608152602001606081525090565b828054600181600116156101000203166002900490600052602060002090601f016020900481019282601f10610b4957805160ff1916838001178555610b77565b82800160010185558215610b77579182015b82811115610b76578251825591602001919060010190610b5b565b5b509050610b849190610c08565b5090565b828054600181600116156101000203166002900490600052602060002090601f016020900481019282601f10610bc957805160ff1916838001178555610bf7565b82800160010185558215610bf7579182015b82811115610bf6578251825591602001919060010190610bdb565b5b509050610c049190610c08565b5090565b610c2a91905b80821115610c26576000816000905550600101610c0e565b5090565b905600a165627a7a72305820dcc65a7143b7f766f28b2df310c34ed9d419bb76dcf71972152374bdca2e7b480029",
  "source": "pragma solidity ^0.4.24;\n\ncontract Users {\n  struct fortest {\n    string Address;\n    string name;\n    string vin;\n    string state;\n    string date;\n  }\n\n  struct Valuationdata {\n    string Frame_number;            //车架号\n    string Number_plate;            //号码车牌\n    string Vehicle_type;            //车辆类型\n    string Brand_number;            //品牌型号\n    string Engine_number;           //发动机号码\n    string Manufacture_date;        //出厂日期\n    string Evaluation;              //评估价值\n    string Evaluation_address;      //评估地址\n    string Timestammp;              //时间戳(提交时间)\n  }\n\n  struct Status {\n    string Evaluation_status;                       //每个评估单对应的评估状态(0:未评估,1:已评估,2:已申诉,3:申诉完成)\n    uint Evaluation_value;                          //评估支付金额\n    address Assessor;                               //评估人\n    address Create;                                 //创建人\n  }\n\n  uint256 valuationindex;\n\n  mapping(uint => Valuationdata) store_msg;\n  mapping(address => uint[]) record;               //记录每个用户下评估单编号\n  mapping(uint => Status)    status;               //评估单状态  \n\n  function Users () public {\n    valuationindex = 0;                    //评估单编号(唯一)\n  }\n\n  function _addvaluation(\n    string memory Frame_number,\n    string memory Number_plate,\n    string memory Vehicle_type,\n    string memory Brand_number,\n    string memory Engine_number,\n    string memory Manufacture_date,\n    string memory Evaluation,\n    string memory Evaluation_address,\n    string memory Timestammp\n    ) public {\n    Valuationdata memory valuationdata = Valuationdata(Frame_number,Number_plate,Vehicle_type,Brand_number,Engine_number,Manufacture_date,Evaluation,Evaluation_address,Timestammp);\n    store_msg[valuationindex] = valuationdata;\n    record[msg.sender].push(valuationindex);\n    status[valuationindex].Evaluation_status = \"待评估\";\n    valuationindex += 1;\n  }\n\n  function _backvaluation() view public returns (uint[] tmp) {\n    tmp = record[msg.sender];\n  }\n\n  function test1(uint num,uint index) public view returns (string) {\n    if(index == 0) {\n      return (store_msg[num].Evaluation_address);\n    }\n    else if(index == 1) {\n      return (store_msg[num].Brand_number);\n    }\n    else if(index == 2) {\n      return (store_msg[num].Frame_number);\n    }\n    else if(index == 3) {\n      return (status[num].Evaluation_status);\n    }\n    else if(index == 4) {\n      return (store_msg[num].Timestammp);\n    }\n  } \n\n}\n",
  "sourcePath": "/blockpro/dev-complete/contracts/Users.sol",
  "compiler": {
    "name": "solc",
    "version": "0.4.24+commit.e67f0147.Emscripten.clang"
  },
  "schemaVersion": "2.0.1",
  "updatedAt": "2019-03-12T08:33:56.730Z"
}